:020000040800F2
:1000000000C000202915000841130008491300080A
:100010005113000859130008611300080000000084
:10002000000000000000000000000000691300084C
:100030007513000800000000811300088D130008EC
:100040007115000871150008711500087115000878
:100050007115000871150008711500087115000868
:100060007115000871150008711500087115000858
:100070007115000871150008711500087115000848
:100080007115000871150008711500087115000838
:100090007115000871150008711500087115000828
:1000A0007115000871150008711500087115000818
:1000B0007115000871150008711500087115000808
:1000C00071150008711500087115000871150008F8
:1000D00071150008711500087115000871150008E8
:1000E00071150008711500087115000871150008D8
:1000F00071150008711500087115000871150008C8
:1001000071150008711500087115000871150008B7
:1001100071150008711500087115000871150008A7
:100120007115000871150008711500087115000897
:1001300000000000000000000000000000000000BF
:1001400000000000000000000000000000000000AF
:10015000000000000000000000000000000000009F
:10016000000000000000000000000000000000008F
:10017000000000000000000000000000000000007F
:10018000000000000000000000000000000000006F
:10019000000000000000000000000000000000005F
:1001A000000000000000000000000000000000004F
:1001B000000000000000000000000000000000003F
:1001C000000000000000000000000000000000002F
:1001D000000000000000000000000000000000001F
:0401E0005FF8E0F1F3
:1001E80010B5054C237833B9044B13B10448AFF369
:1001F80000800123237010BDD401002000000000FE
:10020800A462000808B5034B1BB103490348AFF3C8
:10021800008008BD00000000D8010020A46200088A
:10022800034613F8012B002AFBD1181A013870472E
:1002380081F0004102E000BF83F0004330B54FEA8F
:1002480041044FEA430594EA050F08BF90EA020FFC
:100258001FBF54EA000C55EA020C7FEA645C7FEA8F
:10026800655C00F0E2804FEA5454D4EB5555B8BFB2
:100278006D420CDD2C4480EA020281EA030382EA23
:10028800000083EA010180EA020281EA0303362DB5
:1002980088BF30BD11F0004F4FEA01314FF4801C88
:1002A8004CEA113102D0404261EB410113F0004F9A
:1002B8004FEA03334CEA133302D0524263EB430351
:1002C80094EA050F00F0A780A4F10104D5F1200EEF
:1002D8000DDB02FA0EFC22FA05F2801841F100014A
:1002E80003FA0EF2801843FA05F359410EE0A5F11E
:1002F80020050EF1200E012A03FA0EFC28BF4CF04F
:10030800020C43FA05F3C01851EBE37101F0004504
:1003180007D54FF0000EDCF1000C7EEB00006EEB11
:100328000101B1F5801F1BD3B1F5001F0CD349089B
:100338005FEA30004FEA3C0C04F101044FEA4452F2
:1003480012F5800F80F09A80BCF1004F08BF5FEA79
:10035800500C50F1000041EB045141EA050130BD59
:100368005FEA4C0C404141EB0101013C28BFB1F56B
:10037800801FE9D291F0000F04BF01460020B1FAB6
:1003880081F308BF2033A3F10B03B3F120020CDA89
:100398000C3208DD02F1140CC2F10C0201FA0CF067
:1003A80021FA02F10CE002F11402D8BFC2F1200CCC
:1003B80001FA02F120FA0CFCDCBF41EA0C01904082
:1003C800E41AA2BF01EB0451294330BD6FEA0404CB
:1003D8001F3C1CDA0C340EDC04F11404C4F12002B6
:1003E80020FA04F001FA02F340EA030021FA04F3C8
:1003F80045EA030130BDC4F10C04C4F1200220FA1F
:1004080002F001FA04F340EA0300294630BD21FA5C
:1004180004F0294630BD94F0000F83F4801306BF22
:1004280081F480110134013D4EE77FEA645C18BF16
:100438007FEA655C29D094EA050F08BF90EA020FAD
:1004480005D054EA000C04BF1946104630BD91EAA5
:10045800030F1EBF0021002030BD5FEA545C05D1A8
:100468004000494128BF41F0004130BD14F58004E7
:100478003CBF01F5801130BD01F0004545F0FE415B
:1004880041F470014FF0000030BD7FEA645C1ABF90
:10049800194610467FEA655C1CBF0B46024650EAC7
:1004A800013406BF52EA033591EA030F41F40021F3
:1004B80030BD00BF90F0000F04BF0021704730B579
:1004C8004FF4806404F132044FF000054FF000014E
:1004D80050E700BF90F0000F04BF0021704730B50F
:1004E8004FF4806404F1320410F0004548BF4042E4
:1004F8004FF000013EE700BF42004FEAE2014FEA39
:1005080031014FEA02701FBF12F07F4393F07F4F13
:1005180081F06051704732F07F4208BF704793F016
:100528007F4F04BF41F40021704730B54FF4607429
:1005380001F0004521F000411CE700BF50EA01022C
:1005480008BF704730B54FF000050AE050EA0102D5
:1005580008BF704730B511F0004502D5404261EB45
:1005680041014FF4806404F132045FEA915C3FF486
:10057800D8AE4FF003025FEADC0C18BF03325FEA23
:10058800DC0C18BF033202EBDC02C2F1200300FAD4
:1005980003FC20FA02F001FA03FE40EA0E0021FAF9
:1005A80002F11444BDE600BF70B54FF0FF0C4CF4E7
:1005B800E06C1CEA11541DBF1CEA135594EA0C0F99
:1005C80095EA0C0F00F0DEF82C4481EA030621EAD4
:1005D8004C5123EA4C5350EA013518BF52EA03350F
:1005E80041F4801143F4801338D0A0FB02CE4FF0C1
:1005F8000005E1FB02E506F00042E0FB03E54FF0F1
:100608000006E1FB03569CF0000F18BF4EF0010EE8
:10061800A4F1FF04B6F5007F64F5407404D25FEAE4
:100628004E0E6D4146EB060642EAC62141EA555197
:100638004FEAC52040EA5E504FEACE2EB4F1FD0CD9
:1006480088BFBCF5E06F1ED8BEF1004F08BF5FEA57
:10065800500E50F1000041EB045170BD06F0004609
:1006680046EA010140EA020081EA0301B4EB5C04B6
:10067800C2BFD4EB0C0541EA045170BD41F48011AE
:100688004FF0000E013C00F3AB8014F1360FDEBFD3
:10069800002001F0004170BDC4F10004203C35DAAF
:1006A8000C341BDC04F11404C4F1200500FA05F332
:1006B80020FA04F001FA05F240EA020001F00042D3
:1006C80021F0004110EBD37021FA04F642EB060149
:1006D8005EEA430E08BF20EAD37070BDC4F10C0473
:1006E800C4F1200500FA04F320FA05F001FA04F237
:1006F80040EA020001F0004110EBD37041F1000123
:100708005EEA430E08BF20EAD37070BDC4F120052D
:1007180000FA05F24EEA020E20FA04F301FA05F295
:1007280043EA020321FA04F001F0004121FA04F23D
:1007380020EA020000EBD3705EEA430E08BF20EA0D
:10074800D37070BD94F0000F0FD101F00046400047
:1007580041EB010111F4801F08BF013CF7D041EAC9
:10076800060195F0000F18BF704703F000465200CD
:1007780043EB030313F4801F08BF013DF7D043EA9E
:100788000603704794EA0C0F0CEA135518BF95EA54
:100798000C0F0CD050EA410618BF52EA4306D1D1DB
:1007A80081EA030101F000414FF0000070BD50EAFA
:1007B800410606BF1046194652EA430619D094EA84
:1007C8000C0F02D150EA013613D195EA0C0F05D16E
:1007D80052EA03361CBF104619460AD181EA0301C2
:1007E80001F0004141F0FE4141F470014FF000007A
:1007F80070BD41F0FE4141F4780170BD70B54FF015
:10080800FF0C4CF4E06C1CEA11541DBF1CEA135594
:1008180094EA0C0F95EA0C0F00F0A7F8A4EB050476
:1008280081EA030E52EA03354FEA013100F088806D
:100838004FEA03334FF0805545EA131343EA126336
:100848004FEA022245EA111545EA10654FEA0026EB
:100858000EF000419D4208BF964244F1FD0404F5A4
:10086800407402D25B084FEA3202B61A65EB030500
:100878005B084FEA32024FF480104FF4002CB6EBBD
:10088800020E75EB030E22BFB61A754640EA0C003D
:100898005B084FEA3202B6EB020E75EB030E22BF7D
:1008A800B61A754640EA5C005B084FEA3202B6EBBE
:1008B800020E75EB030E22BFB61A754640EA9C007D
:1008C8005B084FEA3202B6EB020E75EB030E22BF4D
:1008D800B61A754640EADC0055EA060E18D04FEA0B
:1008E800051545EA16754FEA06164FEAC30343EAAB
:1008F80052734FEAC2025FEA1C1CC0D111F4801F78
:100908000BD141EA00014FF000004FF0004CB6E770
:1009180011F4801F04BF01430020B4F1FD0C88BF0F
:10092800BCF5E06F3FF6AFAEB5EB030C04BFB6EB1A
:10093800020C5FEA500C50F1000041EB045170BD0D
:100948000EF0004E4EEA113114EB5C04C2BFD4EB3A
:100958000C0541EA045170BD41F480114FF0000EBE
:10096800013C90E645EA060E8DE60CEA135594EA3A
:100978000C0F08BF95EA0C0F3FF43BAF94EA0C0F3D
:100988000AD150EA01347FF434AF95EA0C0F7FF4B2
:1009980025AF104619462CE795EA0C0F06D152EA06
:1009A80003353FF4FDAE1046194622E750EA4106EA
:1009B80018BF52EA43067FF4C5AE50EA41047FF4FB
:1009C8000DAF52EA43057FF4EBAE12E74FF0FF3C60
:1009D80006E000BF4FF0010C02E000BF4FF0010C31
:1009E8004DF804CD4FEA410C7FEA6C5C4FEA430CAA
:1009F80018BF7FEA6C5C1BD001B050EA410C0CBFF9
:100A080052EA430C91EA030F02BF90EA020F00205A
:100A1800704710F1000F91EA030F58BF994208BFC1
:100A280090422CBFD8176FEAE37040F0010070477E
:100A38004FEA410C7FEA6C5C02D150EA013C07D1D5
:100A48004FEA430C7FEA6C5CD6D152EA033CD3D020
:100A58005DF8040B704700BF8446104662468C461A
:100A68001946634600E000BF01B5FFF7B7FF00284D
:100A780048BF10F1000F01BD4DF808EDFFF7F4FF76
:100A88000CBF012000205DF808FB00BF4DF808ED01
:100A9800FFF7EAFF34BF012000205DF808FB00BF24
:100AA8004DF808EDFFF7E0FF94BF012000205DF846
:100AB80008FB00BF4DF808EDFFF7CEFF94BF0120FB
:100AC80000205DF808FB00BF4DF808EDFFF7C4FFF4
:100AD80034BF012000205DF808FB00BF4FEA410C3D
:100AE8007FEA6C5C02D150EA013C0AD14FEA430C20
:100AF8007FEA6C5C02D152EA033C02D14FF000005D
:100B080070474FF0010070474FEA410212F500129A
:100B180015D211D56FF47873B3EB625212D94FEA3C
:100B2800C12343F0004343EA505311F0004F23FA26
:100B380002F018BF404270474FF00000704750EA7B
:100B4800013005D111F0004008BF6FF00040704738
:100B58004FF00000704700BF4FEA4102B2F1E04396
:100B680024BFB3F5001CDCF1FE5C0DD901F0004C8C
:100B78004FEAC0024CEA5070B2F1004F40EB8300DC
:100B880008BF20F00100704711F0804F21D113F108
:100B98003872BCBF01F00040704741F480114FEA41
:100BA8005252C2F11802C2F1200C10FA0CF320FACA
:100BB80002F018BF40F001004FEAC1234FEAD323E7
:100BC80003FA0CFC40EA0C0023FA02F34FEA430351
:100BD800CCE77FEA625307D150EA01331EBF4FF0DA
:100BE800FE4040F44000704701F0004040F0FE40F5
:100BF80040F40000704700BF80B586B004AF002302
:100C0800FB714FF47A73029301230193FB1D009348
:100C180001236B22D0211B4801F0EAF8322000F0B2
:100C280007FD0723FB714FF47A73029301230193A5
:100C3800FB1D009301231922D021124801F0D8F896
:100C48000023FB714FF47A73029301230193FB1D78
:100C5800009301231C22D0210A4801F0C9F800237F
:100C6800FB714FF47A73029301230193FB1D0093E8
:100C780001231B22D021034801F0BAF800BF08372E
:100C8800BD4680BDF001002080B588B004AF4FF4A8
:100C98007A7302930E2301933B46009301233B2270
:100CA800D021674801F09EF90346002B40F0B5803B
:100CB8003B781BB21B021AB27B781BB213431AB2E1
:100CC800604B1A80BB781BB21B021AB2FB781BB2AE
:100CD80013431AB25C4B1A803B791BB21B021AB23F
:100CE8007B791BB213431AB2584B1A803B7A1BB25A
:100CF8001B021AB27B7A1BB213431AB2544B1A80E6
:100D0800BB7A1BB21B021AB2FB7A1BB213431AB28C
:100D1800504B1A803B7B1BB21B021AB27B7B1BB267
:100D280013431AB24C4B1A80464BB3F9003018469D
:100D3800FFF7D0FB4FF00002484BFFF75FFD02467C
:100D48000B4610461946FFF707FF0346444A13604F
:100D58003D4BB3F900301846FFF7BCFB4FF00002DB
:100D68003E4BFFF74BFD02460B4610461946FFF770
:100D7800F3FE03463B4A1360344BB3F90030184680
:100D8800FFF7A8FB4FF00002344BFFF737FD024690
:100D98000B4610461946FFF7DFFE0346324A13603A
:100DA8002B4BB3F900301846FFF794FB22A3D3E985
:100DB8000023FFF723FD02460B4610461946FFF7AE
:100DC800CBFE0346294A1360224BB3F9003018467C
:100DD800FFF780FB18A3D3E90023FFF70FFD0246B6
:100DE8000B4610461946FFF7B7FE0346204A136024
:100DF800194BB3F900301846FFF76CFB0EA3D3E983
:100E08000023FFF7FBFC02460B4610461946FFF786
:100E1800A3FE0346174A13600AE0134B164A1A60EA
:100E2800114B1B680F4A13600E4B1B680C4A13606A
:100E380000BF1037BD4680BD000000000060604064
:100E4800F00100208C0200208E0200209002002079
:100E58009202002094020020960200200000D04058
:100E6800980200209C020020A0020020A40200207A
:100E7800A8020020AC0200205CFF794400000000BA
:100E88002DE9B04384B004AF00F070FB00F07EF8A9
:100E980000F006F900F0B6F800F0DEF8FFF7ACFE57
:100EA8002F4803F07FFAFFF7EFFE2E4B1B6818461A
:100EB800FFF722FB28A3D3E90023FFF7DDFD034654
:100EC800002B03D0284803F06DFA3EE0254B1B6841
:100ED8001846FFF711FB80468946244B1B681846C5
:100EE800FFF70AFB04460D46214B1B681846FFF71F
:100EF80003FB02460B46CDE90223CDE900454246F5
:100F08004B461C4803F0E6F91B4B1B681846FFF7D5
:100F1800F3FA80468946194B1B681846FFF7ECFA26
:100F280004460D46164B1B681846FFF7E5FA0246BD
:100F38000B46CDE90223CDE9004542464B46114810
:100F480003F0C8F9104803F02DFAC82000F070FB30
:100F5800A9E700BFAFF3008052B81E85EB3F8F4072
:100F6800C062000898020020F06200089C0200207D
:100F7800A002002028630008A4020020A802002084
:100F8800AC0200205C6300088C63000880B590B058
:100F980000AF07F1180328220021184603F0E2FAEF
:100FA8003B1D00221A605A609A60DA601A610123B8
:100FB800BB614FF48033FB6100233B620123BB62BA
:100FC80002237B634FF48033BB634FF4E013FB636E
:100FD80007F11803184601F02DFE0F237B6002234A
:100FE800BB600023FB604FF480633B6100237B619F
:100FF8003B1D0221184602F09FF800BF4037BD464E
:1010080080BD000080B500AF104B114A1A600F4B2D
:10101800104A5A600D4B00229A600C4B0022DA608D
:101028000A4B4FF480421A61084B00225A61074B61
:1010380000229A61054B0022DA61044B00221A62F1
:10104800024800F091FD00BF80BD00BFF001002004
:1010580000540040A086010080B500AF0E4B0F4A37
:101068001A600D4B4FF4E1325A600B4B00229A6024
:10107800094B0022DA60084B00221A61064B0C2249
:101088005A61054B00229A61034B0022DA6102483B
:1010980002F0E0F900BF80BD4402002000380140A2
:1010A80080B588B000AF07F1100300221A605A60BB
:1010B8009A60DA60204B9B691F4A43F020039361D2
:1010C8001D4B9B6903F02003FB60FB681A4B9B696F
:1010D800194A43F004039361174B9B6903F0040317
:1010E800BB60BB68144B9B69134A43F008039361C8
:1010F800114B9B6903F008037B607B684FF4007316
:101108003B6102237B610323FB6107F1100319464E
:101118000A4800F095FB4FF480633B6100237B6134
:101128000023BB6107F110031946044800F088FB4F
:1011380000BF2037BD4680BD0010024000080140B6
:1011480080B582B000AF7860391D4FF0FF330122BF
:10115800034802F0CFF97B6818460837BD4680BDC2
:101168004402002080B485B000AF154B9B69144A37
:1011780043F001039361124B9B6903F00103BB60C9
:10118800BB680F4BDB690E4A43F08053D3610C4BAD
:10119800DB6903F080537B607B680A4B5B68FB600C
:1011A800FB6823F0E063FB60FB6843F08063FB604F
:1011B800044AFB68536000BF1437BD4680BC7047C3
:1011C800001002400000014080B58AB000AF78608E
:1011D80007F1180300221A605A609A60DA607B6887
:1011E8001B682B4A934224D12A4B9B69294A43F016
:1011F80008039361274B9B6903F008037B617B69B4
:10120800C023BB611223FB6103237B6207F1180330
:101218001946214800F014FB1E4BDB691D4A43F4B4
:101228000013D3611B4BDB6903F400133B613B697B
:1012380029E07B681B68194A934224D1154B9B69A6
:10124800144A43F008039361124B9B6903F00803A7
:10125800FB60FB684FF44063BB611223FB6103230F
:101268007B6207F1180319460B4800F0E9FA094BAD
:10127800DB69084A43F48003D361064BDB6903F456
:101288008003BB60BB6800BF2837BD4680BD00BF78
:101298000054004000100240000C0140005800407B
:1012A80080B588B000AF786007F1100300221A609B
:1012B8005A609A60DA607B681B681C4A934231D195
:1012C8001B4B9B691A4A43F480439361184B9B69F3
:1012D80003F48043FB60FB68154B9B69144A43F099
:1012E80004039361124B9B6903F00403BB60BB6862
:1012F8004FF400733B6102237B610323FB6107F119
:10130800100319460B4800F09BFA4FF480633B61C9
:1013180000237B610023BB6107F1100319460548D0
:1013280000F08EFA00BF2037BD4680BD003801406E
:10133800001002400008014080B400AF00BFFDE784
:1013480080B400AF00BFFDE780B400AF00BFFDE789
:1013580080B400AF00BFFDE780B400AF00BFFDE779
:1013680080B400AF00BFBD4680BC704780B400AFFA
:1013780000BFBD4680BC704780B400AF00BFBD460B
:1013880080BC704780B500AF00F036F900BF80BD63
:1013980080B400AF01231846BD4680BC704780B5B5
:1013A80082B000AF7860396003F02EF90346162248
:1013B8001A604FF0FF3318460837BD4680BD80B528
:1013C80082B000AF78604FF0FF317868FFF7E7FF31
:1013D80000BFFDE780B586B000AFF860B9607A60FD
:1013E80000237B610AE0AFF300800146BB685A1C0A
:1013F800BA60CAB21A707B6901337B617A697B680B
:101408009A42F0DB7B6818461837BD4680BD80B528
:1014180086B000AFF860B9607A6000237B6109E0AC
:10142800BB685A1CBA601B781846FFF789FE7B69AF
:1014380001337B617A697B689A42F1DB7B681846E5
:101448001837BD4680BD80B483B000AF78604FF0D8
:10145800FF3318460C37BD4680BC704780B483B054
:1014680000AF786039603B684FF400525A6000233F
:1014780018460C37BD4680BC704780B483B000AFB7
:101488007860012318460C37BD4680BC704780B48D
:1014980085B000AFF860B9607A6000231846143749
:1014A800BD4680BC7047000080B586B000AF78604C
:1014B800144A154BD31A7B617B693B61134B1B683C
:1014C800002B02D1114B124A1A60104B1A687B6824
:1014D80013443A699A4207D203F096F803460C225D
:1014E8001A604FF0FF3309E0084B1B68FB60074B9D
:1014F8001A687B681344054A1360FB681846183756
:10150800BD4680BD00C0002000040000B0020020DD
:101518000804002080B400AF00BFBD4680BC7047FF
:10152800FFF7F8FF0B480C490C4A002302E0D45897
:10153800C4500433C4188C42F9D3094A094C002317
:1015480001E013600432A242FBD303F063F8FFF713
:1015580097FC704700000020D40100206C67000849
:10156800D401002004040020FEE7000080B500AF8D
:10157800084B1B68074A43F010031360032000F070
:101588002BF90F2000F008F8FFF7ECFD00231846B0
:1015980080BD00BF0020024080B582B000AF7860F7
:1015A800124B1A68124B1B7819464FF47A73B3FB27
:1015B800F1F3B2FBF3F3184600F035F90346002BBC
:1015C80001D001230EE07B680F2B0AD8002279682E
:1015D8004FF0FF3000F00BF9064A7B6813600023D8
:1015E80000E0012318460837BD4680BD00000020F2
:1015F800080000200400002080B400AF054B1B78D1
:101608001A46054B1B681344034A136000BFBD46C6
:1016180080BC704708000020B402002080B400AFEE
:10162800024B1B681846BD4680BC7047B4020020B8
:1016380080B584B000AF7860FFF7F0FFB8607B68D2
:10164800FB60FB68B3F1FF3F05D00A4B1B781A46D5
:10165800FB681344FB6000BFFFF7E0FF0246BB686E
:10166800D31AFA689A42F7D800BF00BF1037BD46B0
:1016780080BD00BF0800002080B485B000AF78604E
:101688007B6803F00703FB600C4BDB68BB60BA6840
:101698004FF6FF031340BB60FB681A02BB68134395
:1016A80043F0BF6343F40033BB60044ABB68D360B4
:1016B80000BF1437BD4680BC704700BF00ED00E096
:1016C80080B400AF044BDB681B0A03F0070318461D
:1016D800BD4680BC704700BF00ED00E080B483B019
:1016E80000AF03463960FB7197F90730002B0ADB1E
:1016F8003B68DAB20C4997F907301201D2B20B44B1
:1017080083F800230AE03B68DAB20849FB7903F062
:101718000F03043B1201D2B20B441A7600BF0C37F8
:10172800BD4680BC704700BF00E100E000ED00E06E
:1017380080B489B000AFF860B9607A60FB6803F0E4
:101748000703FB61FB69C3F10703042B28BF0423CC
:10175800BB61FB690433062B02D9FB69033B00E03C
:1017680000237B614FF0FF32BB6902FA03F3DA43CF
:10177800BB681A407B699A404FF0FF317B6901FAD8
:1017880003F3D9437B680B40134318462437BD46FF
:1017980080BC704780B582B000AF78607B68013B41
:1017A800B3F1807F01D301230FE00A4A7B68013B34
:1017B80053600F214FF0FF30FFF790FF054B0022D9
:1017C8009A60044B07221A60002318460837BD4662
:1017D80080BD00BF10E000E080B582B000AF786047
:1017E8007868FFF749FF00BF0837BD4680BD80B560
:1017F80086B000AF0346B9607A60FB7300237B6153
:10180800FFF75EFF78617A68B9687869FFF790FF3B
:10181800024697F90F3011461846FFF75FFF00BFE1
:101828001837BD4680BD80B582B000AF7860786853
:10183800FFF7B0FF034618460837BD4680BD0000D5
:1018480080B48BB000AF7860396000237B620023DE
:101858003B6279E101227B6A02FA03F3FB613B6890
:101868001B68FA691340BB61BA69FB699A4240F088
:1018780068813B685B68964A93425ED0944A93427B
:1018880075D8944A934258D0924A93426FD8924A54
:10189800934252D0904A934269D8904A93424CD08E
:1018A8008E4A934263D88E4A934246D08C4A9342DA
:1018B8005DD8122B2AD8122B59D801A252F823F03E
:1018C800431900081D1900082F190008711900088C
:1018D80077190008771900087719000877190008A0
:1018E8007719000877190008771900087719000890
:1018F8007719000877190008771900087719000880
:10190800771900082519000839190008754A934203
:1019180013D02CE03B68DB683B6229E03B68DB685E
:1019280004333B6224E03B68DB6808333B621FE01A
:101938003B68DB680C333B621AE03B689B68002B12
:1019480002D104233B6213E03B689B68012B05D15D
:1019580008233B627B68FA691A6109E008233B6245
:101968007B68FA695A6103E000233B6200E000BF2C
:10197800BB69FF2B01D87B6801E07B6804337B617E
:10198800BB69FF2B02D87B6A9B0002E07B6A083B9D
:101998009B003B617B691A680F213B6901FA03F3DD
:1019A800DB431A40396A3B6901FA03F31A437B693E
:1019B8001A603B685B6803F08053002B00F0C1801D
:1019C800494B9B69484A43F001039361464B9B6925
:1019D80003F00103BB60BB68444A7B6A9B0802337F
:1019E80052F82330FB607B6A03F003039B000F224D
:1019F80002FA03F3DB43FA681340FB607B683C4A56
:101A080093421FD07B683B4A934219D07B683A4A7D
:101A1800934213D07B68394A93420DD07B68384A89
:101A2800934207D07B68374A934201D105230AE0E5
:101A3800062308E0042306E0032304E0022302E06F
:101A4800012300E000237A6A02F003029200934027
:101A5800FA681343FB6025497B6A9B080233FA68DE
:101A680041F823203B685B6803F48013002B06D001
:101A7800254B9A682449BB6913438B6006E0224BC7
:101A88009A68BB69DB43204913408B603B685B68FD
:101A980003F40013002B06D01B4BDA681A49BB6904
:101AA8001343CB6006E0184BDA68BB69DB43164981
:101AB8001340CB603B685B6803F40033002B25D0F0
:101AC800114B5A681049BB6913434B6025E000BFAE
:101AD8000000321000003110000022100000211018
:101AE8000000121000001110001002400000014018
:101AF80000080140000C01400010014000140140A2
:101B080000180140001C014000040140154B5A68B0
:101B1800BB69DB43134913404B603B685B6803F4C4
:101B28008033002B06D00F4B1A680E49BB6913434C
:101B38000B6006E00B4B1A68BB69DB43094913408D
:101B48000B607B6A01337B623B681A687B6A22FA06
:101B580003F3002B7FF47EAE00BF00BF2C37BD46D9
:101B680080BC70470004014080B584B000AF786045
:101B78007B68002B01D101232BE17B6893F83D3072
:101B8800DBB2002B06D17B68002283F83C20786802
:101B9800FFF71AFB7B68242283F83D207B681B68CB
:101BA8001A687B681B6822F001021A607B681B6850
:101BB8001A687B681B6842F400421A607B681B68DD
:101BC8001A687B681B6822F400421A6001F0FCFB6B
:101BD800F8607B685B68814A934207D8FB68804A53
:101BE800934294BF01230023DBB206E0FB687D4AE1
:101BF800934294BF01230023DBB2002B01D00123C1
:101C0800E7E0FB68784AA2FB03239B0CBB607B6878
:101C18001B685B6823F03F017B681B68BA680A434E
:101C28005A607B681B681B6A23F03F017B685B680E
:101C38006A4A934202D8BB68013309E0BB684FF493
:101C4800967202FB03F3694AA2FB03239B09013343
:101C58007A6812680B4313627B681B68DB6923F49C
:101C68004F4222F0FF027B685B685C498B4219D8BF
:101C7800FB68591E7B685B685B00B1FBF3F3591C7A
:101C880040F6FC730B40002B0AD0FB68591E7B689A
:101C98005B685B00B1FBF3F30133C3F30B0351E063
:101CA80004234FE07B689B68002B11D1FB68581E0A
:101CB8007B6859680B465B000B44B0FBF3F30133B8
:101CC800C3F30B03002B0CBF01230023DBB212E08C
:101CD800FB68581E7B6859680B469B000B449900AB
:101CE8000B44B0FBF3F30133C3F30B03002B0CBF1E
:101CF80001230023DBB2002B01D0012322E07B6803
:101D08009B68002B0ED1FB68581E7B6859680B46F0
:101D18005B000B44B0FBF3F30133C3F30B0343F451
:101D280000430FE0FB68581E7B6859680B469B0010
:101D38000B4499000B44B0FBF3F30133C3F30B03DB
:101D480043F44043796809681343CB617B681B6897
:101D58001B6823F0C0017B68DA697B681B6A1A4339
:101D68007B681B680A431A607B681B689B6823F4BE
:101D7800034323F0FF037A6811697A68D268114334
:101D88007A6812680B4393607B681B68DB6823F0F2
:101D9800FF017B685A697B689B691A437B681B68EB
:101DA8000A43DA607B681B681A687B681B6842F024
:101DB80001021A607B6800221A647B68202283F87B
:101DC8003D207B6800221A637B68002283F83E204E
:101DD800002318461037BD4680BD00BFA08601000D
:101DE8007F841E00FF083D0083DE1B43D34D621035
:101DF80080B588B002AFF860084611461A46034617
:101E08007B810B463B811346FB80FFF707FC78611B
:101E1800FB6893F83D30DBB2202B40F0D9807B691A
:101E28000093192301226D49F86800F0CDFC0346A0
:101E3800002B01D00223CCE0FB6893F83C30012B47
:101E480001D10223C5E0FB68012283F83C20FB682E
:101E58001B681B6803F00103012B07D0FB681B6894
:101E68001A68FB681B6842F001021A60FB681B686D
:101E78001A68FB681B6822F400621A60FB6821225A
:101E880083F83D20FB68402283F83E20FB6800224F
:101E98001A64FB683A6A5A62FB68BA8C5A85FB680E
:101EA8005B8D9AB2FB681A85FB684D4ADA62F8883E
:101EB8003A8979897B690193BB6A00930346F8687C
:101EC80000F004FB0346002B52D0012381E07A691D
:101ED800B96AF86800F092FD0346002B0DD0FB6844
:101EE8001B6C042B07D1FB681B681A68FB681B680E
:101EF80042F400721A6001236BE0FB685B6A1A788F
:101F0800FB681B681A61FB685B6A5A1CFB685A62AB
:101F1800FB681B8D013B9AB2FB681A85FB685B8DD9
:101F28009BB2013B9AB2FB685A85FB681B685B69E8
:101F380003F00403042B1BD1FB681B8D002B17D067
:101F4800FB685B6A1A78FB681B681A61FB685B6A46
:101F58005A1CFB685A62FB681B8D013B9AB2FB68EE
:101F68001A85FB685B8D9BB2013B9AB2FB685A8568
:101F7800FB681B8D002BAAD17A69B96AF86800F052
:101F880085FD0346002B0DD0FB681B6C042B07D185
:101F9800FB681B681A68FB681B6842F400721A60C9
:101FA800012316E0FB681B681A68FB681B6842F48B
:101FB80000721A60FB68202283F83D20FB6800222B
:101FC80083F83E20FB68002283F83C20002300E0D1
:101FD800022318461837BD4680BD00BF0200100016
:101FE8000000FFFF80B58CB002AFF86008461146CC
:101FF8001A4603467B810B463B811346FB80002330
:102008003B62FFF70BFB7862FB6893F83D30DBB26D
:10201800202B40F050827B6A0093192301228249C9
:10202800F86800F0D1FB0346002B01D0022343E2FD
:10203800FB6893F83C30012B01D102233CE2FB689A
:10204800012283F83C20FB681B681B6803F001032E
:10205800012B07D0FB681B681A68FB681B6842F0F5
:1020680001021A60FB681B681A68FB681B6822F487
:1020780000621A60FB68222283F83D20FB68402238
:1020880083F83E20FB6800221A64FB683A6B5A62A8
:10209800FB68BA8E5A85FB685B8D9AB2FB681A8515
:1020A800FB68624ADA62F8883A8979897B6A01931F
:1020B800BB6B00930346F86800F09EFA0346002BBA
:1020C80001D00123F8E1FB681B8D002B13D10023FD
:1020D800FB61FB681B685B69FB61FB681B689B69AC
:1020E800FB61FB69FB681B681A68FB681B6842F4A4
:1020F80000721A60CCE1FB681B8D012B1ED1FB68B6
:102108001B681A68FB681B6822F480621A6072B642
:1021180000BF0023BB61FB681B685B69BB61FB6890
:102128001B689B69BB61BB69FB681B681A68FB6815
:102138001B6842F400721A6062B635E0FB681B8DBA
:10214800022B1ED1FB681B681A68FB681B6842F4E7
:1021580000621A6072B600BF00237B61FB681B68CF
:102168005B697B61FB681B689B697B617B69FB68BA
:102178001B681A68FB681B6822F480621A6062B6E2
:1021880012E0FB681B681A68FB681B6842F48062EF
:102198001A6000233B61FB681B685B693B61FB6855
:1021A8001B689B693B613B6972E1FB681B8D032BD4
:1021B80000F21F81FB681B8D012B23D17A6AB96B52
:1021C800F86800F0ABFC0346002B01D0012373E153
:1021D800FB681B681A69FB685B6AD2B21A70FB68F5
:1021E8005B6A5A1CFB685A62FB681B8D013B9AB2FA
:1021F800FB681A85FB685B8D9BB2013B9AB2FB6852
:102208005A8545E1FB681B8D022B52D17B6A0093EE
:10221800BB6B00220649F86800F0D6FA0346002B8B
:1022280008D0012348E100BF020010000000FFFFB2
:102238000400010072B600BFFB681B681A68FB68DF
:102248001B6842F400721A60FB681B681A69FB6815
:102258005B6AD2B21A70FB685B6A5A1CFB685A62E6
:10226800FB681B8D013B9AB2FB681A85FB685B8D86
:102278009BB2013B9AB2FB685A8562B600BFFB6805
:102288001B681A69FB685B6AD2B21A70FB685B6AE2
:102298005A1CFB685A62FB681B8D013B9AB2FB68AB
:1022A8001A85FB685B8D9BB2013B9AB2FB685A8525
:1022B800EEE07B6A0093BB6B00228149F86800F06E
:1022C80083FA0346002B01D00123F5E0FB681B6865
:1022D8001A68FB681B6822F480621A6072B600BF35
:1022E800FB681B681A69FB685B6AD2B21A70FB68E4
:1022F8005B6A5A1CFB685A62FB681B8D013B9AB2E9
:10230800FB681A85FB685B8D9BB2013B9AB2FB6840
:102318005A856C4B1B68DB086B4AA2FB03231A0A1D
:1023280013469B001344DA00D31A3B623B6A013B15
:102338003B623B6A002B18D1FB6800221A63FB68DA
:10234800202283F83D20FB68002283F83E20FB68AA
:102358001B6C43F02002FB681A6462B600BFFB687E
:10236800002283F83C200123A6E0FB681B685B6918
:1023780003F00403042BD9D1FB681B681A68FB68B7
:102388001B6842F400721A60FB681B681A69FB68D4
:102398005B6AD2B21A70FB685B6A5A1CFB685A62A5
:1023A800FB681B8D013B9AB2FB681A85FB685B8D45
:1023B8009BB2013B9AB2FB685A8562B600BFFB68C4
:1023C8001B681A69FB685B6AD2B21A70FB685B6AA1
:1023D8005A1CFB685A62FB681B8D013B9AB2FB686A
:1023E8001A85FB685B8D9BB2013B9AB2FB685A85E4
:1023F8004EE07A6AB96BF86800F090FB0346002B50
:1024080001D0012358E0FB681B681A69FB685B6A06
:10241800D2B21A70FB685B6A5A1CFB685A62FB6886
:102428001B8D013B9AB2FB681A85FB685B8D9BB2DA
:10243800013B9AB2FB685A85FB681B685B6903F02D
:102448000403042B24D1FB681B8D032B07D1FB68E5
:102458001B681A68FB681B6822F480621A60FB68B4
:102468001B681A69FB685B6AD2B21A70FB685B6A00
:102478005A1CFB685A62FB681B8D013B9AB2FB68C9
:102488001A85FB685B8D9BB2013B9AB2FB685A8543
:10249800FB681B8D002B7FF488AEFB68202283F835
:1024A8003D20FB68002283F83E20FB68002283F869
:1024B8003C20002300E0022318462837BD4680BD93
:1024C800040001000000002089B5F81480B588B028
:1024D80002AFF860084611461A4603467B810B4650
:1024E8003B811346FB80FB681B681A68FB681B6806
:1024F80042F480721A607B6A00933B6A00224FF0B4
:102508000111F86800F060F90346002B0DD0FB6854
:102518001B681B6803F48073B3F5807F03D1FB68E5
:102528004FF400721A6403235FE07B89DBB21A461A
:10253800FB681B6802F0FE021A617B6A3A6A2D4941
:10254800F86800F0BBF90346002B01D001234CE0EA
:1025580000237B61FB681B685B697B61FB681B6808
:102568009B697B617B697A6A396AF86800F046FA88
:102578000346002B0DD0FB681B6C042B07D1FB68AE
:102588001B681A68FB681B6842F400721A60012312
:102598002BE0FB88012B05D13B89DAB2FB681B686D
:1025A8001A6121E03B891B0A9BB2DAB2FB681B68FF
:1025B8001A617A6A396AF86800F020FA0346002B33
:1025C8000DD0FB681B6C042B07D1FB681B681A68CD
:1025D800FB681B6842F400721A60012305E03B891E
:1025E800DAB2FB681B681A61002318461837BD4623
:1025F80080BD00BF0200010080B588B002AFF8605E
:10260800084611461A4603467B810B463B81134612
:10261800FB80FB681B681A68FB681B6842F48062D1
:102628001A60FB681B681A68FB681B6842F48072B2
:102638001A607B6A00933B6A00224FF00111F86828
:1026480000F0C2F80346002B0DD0FB681B681B681E
:1026580003F48073B3F5807F03D1FB684FF40072F5
:102668001A640323AAE07B89DBB21A46FB681B685D
:1026780002F0FE021A617B6A3A6A5249F86800F071
:102688001DF90346002B01D0012397E000237B614D
:10269800FB681B685B697B61FB681B689B697B61E6
:1026A8007B697A6A396AF86800F0A8F90346002B52
:1026B8000DD0FB681B6C042B07D1FB681B681A68DC
:1026C800FB681B6842F400721A60012376E0FB88FD
:1026D800012B05D13B89DAB2FB681B681A6121E03E
:1026E8003B891B0A9BB2DAB2FB681B681A617A6ADB
:1026F800396AF86800F082F90346002B0DD0FB68B0
:102708001B6C042B07D1FB681B681A68FB681B68E5
:1027180042F400721A60012350E03B89DAB2FB6888
:102728001B681A617A6A396AF86800F067F9034623
:10273800002B0DD0FB681B6C042B07D1FB681B68B2
:102748001A68FB681B6842F400721A60012335E0BE
:10275800FB681B681A68FB681B6842F480721A6081
:102768007B6A00933B6A00224FF00111F86800F081
:102778002BF80346002B0DD0FB681B681B6803F47D
:102788008073B3F5807F03D1FB684FF400721A643D
:10279800032313E07B89DBB243F00103DAB2FB6861
:1027A8001B681A617B6A3A6A0649F86800F086F87D
:1027B8000346002B01D0012300E0002318461837F8
:1027C800BD4680BD0200010080B584B000AFF8604E
:1027D800B9603B601346FB7148E03B68B3F1FF3FCB
:1027E80044D0FEF71BFF0246BB69D31A3A689A42E7
:1027F80002D33B68002B39D1BB681B0CDBB2012B21
:102808000DD1FB681B685B69DA43BB6813409BB258
:10281800002B0CBF01230023DBB21A460CE0FB6837
:102828001B689B69DA43BB6813409BB2002B0CBF43
:1028380001230023DBB21A46FB799A4216D1FB68C2
:1028480000221A63FB68202283F83D20FB680022DF
:1028580083F83E20FB681B6C43F02002FB681A6477
:10286800FB68002283F83C20012323E0BB681B0C93
:10287800DBB2012B0DD1FB681B685B69DA43BB68CF
:1028880013409BB2002B0CBF01230023DBB21A4676
:102898000CE0FB681B689B69DA43BB6813409BB27A
:1028A800002B0CBF01230023DBB21A46FB799A42A6
:1028B80093D0002318461037BD4680BD80B584B03C
:1028C80000AFF860B9607A603B6071E0FB681B6834
:1028D8005B6903F48063B3F5806F23D1FB681B68E1
:1028E8001A68FB681B6842F400721A60FB681B6870
:1028F8006FF480625A61FB6800221A63FB68202229
:1029080083F83D20FB68002283F83E20FB681B6C9F
:1029180043F00402FB681A64FB68002283F83C2039
:10292800012367E07B68B3F1FF3F41D0FEF776FEF5
:1029380002463B68D31A7A689A4202D37B68002B16
:1029480036D1BB681B0CDBB2012B0CD1FB681B68B2
:102958005B69DA43BB6813409BB2002B14BF0123A9
:102968000023DBB20BE0FB681B689B69DA43BB689A
:1029780013409BB2002B14BF01230023DBB2002BB2
:1029880016D0FB6800221A63FB68202283F83D20DA
:10299800FB68002283F83E20FB681B6C43F0200292
:1029A800FB681A64FB68002283F83C20012321E0BD
:1029B800BB681B0CDBB2012B0CD1FB681B685B6985
:1029C800DA43BB6813409BB2002B14BF01230023DA
:1029D800DBB20BE0FB681B689B69DA43BB681340FA
:1029E8009BB2002B14BF01230023DBB2002B7FF422
:1029F8006DAF002318461037BD4680BD80B584B042
:102A080000AFF860B9607A6034E0F86800F0E3F885
:102A18000346002B01D0012334E0BB68B3F1FF3F2C
:102A280028D0FEF7FBFD02467B68D31ABA689A42A3
:102A380002D3BB68002B1DD1FB681B685B6903F0E0
:102A48008003802B16D0FB6800221A63FB682022C3
:102A580083F83D20FB68002283F83E20FB681B6C4E
:102A680043F02002FB681A64FB68002283F83C20CC
:102A7800012307E0FB681B685B6903F08003802B78
:102A8800C3D1002318461037BD4680BD80B584B039
:102A980000AFF860B9607A6034E0F86800F09BF83D
:102AA8000346002B01D0012334E0BB68B3F1FF3F9C
:102AB80028D0FEF7B3FD02467B68D31ABA689A425B
:102AC80002D3BB68002B1DD1FB681B685B6903F050
:102AD8000403042B16D0FB6800221A63FB6820222B
:102AE80083F83D20FB68002283F83E20FB681B6CBE
:102AF80043F02002FB681A64FB68002283F83C203C
:102B0800012307E0FB681B685B6903F00403042BDF
:102B1800C3D1002318461037BD4680BD80B584B0A8
:102B280000AFF860B9607A6049E0FB681B685B69D0
:102B380003F01003102B19D1FB681B686FF010020B
:102B48005A61FB6800221A63FB68202283F83D2043
:102B5800FB68002283F83E20FB681A6CFB681A6445
:102B6800FB68002283F83C20012330E0FEF756FD85
:102B780002467B68D31ABA689A4202D3BB68002B14
:102B88001DD1FB681B685B6903F04003402B16D01E
:102B9800FB6800221A63FB68202283F83D20FB684B
:102BA800002283F83E20FB681B6C43F02002FB6880
:102BB8001A64FB68002283F83C20012307E0FB68C5
:102BC8001B685B6903F04003402BAED10023184615
:102BD8001037BD4680BD80B483B000AF78607B6895
:102BE8001B685B6903F48063B3F5806F1BD17B6856
:102BF8001B686FF480625A617B6800221A637B68E5
:102C0800202283F83D207B68002283F83E207B68E1
:102C18001B6C43F004027B681A647B68002283F80B
:102C28003C20012300E0002318460C37BD4680BC39
:102C38007047000080B586B000AF78607B68002BD5
:102C480001D1012372E27B681B6803F00103002BAA
:102C580000F08780924B5B6803F00C03042B0CD0C8
:102C68008F4B5B6803F00C03082B12D18C4B5B680D
:102C780003F48033B3F5803F0BD1894B1B6803F411
:102C88000033002B6CD07B685B68002B68D1012374
:102C98004CE27B685B68B3F5803F06D1804B1B68CC
:102CA8007F4A43F4803313602EE07B685B68002B17
:102CB8000CD17B4B1B687A4A23F480331360784B22
:102CC8001B68774A23F4802313601DE07B685B68E8
:102CD800B3F5A02F0CD1724B1B68714A43F48023C3
:102CE80013606F4B1B686E4A43F4803313600BE02C
:102CF8006B4B1B686A4A23F480331360684B1B686C
:102D0800674A23F4802313607B685B68002B13D029
:102D1800FEF784FC386108E0FEF780FC02463B6958
:102D2800D31A642B01D9032300E25D4B1B6803F41B
:102D38000033002BF0D014E0FEF770FC386108E097
:102D4800FEF76CFC02463B69D31A642B01D90323B6
:102D5800ECE1534B1B6803F40033002BF0D100E087
:102D680000BF7B681B6803F00203002B63D04C4B49
:102D78005B6803F00C03002B0BD0494B5B6803F036
:102D88000C03082B1CD1464B5B6803F48033002BE3
:102D980016D1434B1B6803F00203002B05D07B6858
:102DA8001B69012B01D00123C0E13D4B1B6823F0B7
:102DB800F8027B685B69DB00394913430B603AE032
:102DC8007B681B69002B20D0364B01221A60FEF766
:102DD80025FC386108E0FEF721FC02463B69D31A5E
:102DE800022B01D90323A1E12D4B1B6803F0020339
:102DF800002BF0D02A4B1B6823F0F8027B685B6934
:102E0800DB00274913430B6015E0264B00221A60AC
:102E1800FEF704FC386108E0FEF700FC02463B6957
:102E2800D31A022B01D9032380E11D4B1B6803F041
:102E38000203002BF0D17B681B6803F00803002B0A
:102E48003AD07B689B69002B19D0174B01221A6076
:102E5800FEF7E4FB386108E0FEF7E0FB02463B6959
:102E6800D31A022B01D9032360E10D4B5B6A03F0EF
:102E78000203002BF0D0012000F0CEFA1CE00A4B30
:102E880000221A60FEF7CAFB38610FE0FEF7C6FBA6
:102E980002463B69D31A022B08D9032346E100BF37
:102EA800001002400000424280044242924B5B6A9A
:102EB80003F00203002BE9D17B681B6803F00403CD
:102EC800002B00F0A6800023FB758B4BDB6903F019
:102ED8008053002B0DD1884BDB69874A43F0805320
:102EE800D361854BDB6903F08053BB60BB6801236A
:102EF800FB75824B1B6803F48073002B18D17F4B42
:102F08001B687E4A43F480731360FEF787FB3861C1
:102F180008E0FEF783FB02463B69D31A642B01D90C
:102F2800032303E1754B1B6803F48073002BF0D077
:102F38007B68DB68012B06D16F4B1B6A6E4A43F036
:102F4800010313622DE07B68DB68002B0CD16A4B10
:102F58001B6A694A23F001031362674B1B6A664ABE
:102F680023F0040313621CE07B68DB68052B0CD19B
:102F7800614B1B6A604A43F0040313625E4B1B6A91
:102F88005D4A43F0010313620BE05B4B1B6A5A4A2C
:102F980023F001031362584B1B6A574A23F00403BA
:102FA80013627B68DB68002B15D0FEF737FB3861AE
:102FB8000AE0FEF733FB02463B69D31A41F2883236
:102FC800934201D90323B1E04B4B1B6A03F0020380
:102FD800002BEED014E0FEF721FB38610AE0FEF783
:102FE8001DFB02463B69D31A41F28832934201D94C
:102FF80003239BE0404B1B6A03F00203002BEED136
:10300800FB7D012B05D13C4BDB693B4A23F0805308
:10301800D3617B68DB69002B00F08780364B5B68E7
:1030280003F00C03082B61D07B68DB69022B46D1C7
:10303800334B00221A60FEF7F1FA386108E0FEF718
:10304800EDFA02463B69D31A022B01D903236DE03E
:10305800294B1B6803F00073002BF0D17B681B6AB7
:10306800B3F5803F08D1244B5B6823F400327B68BA
:103078009B68214913434B601F4B5B6823F4741210
:103088007B68196A7B685B6A0B431B4913434B6077
:103098001B4B01221A60FEF7C1FA386108E0FEF7FF
:1030A800BDFA02463B69D31A022B01D903233DE03E
:1030B800114B1B6803F00073002BF0D035E0104B68
:1030C80000221A60FEF7AAFA386108E0FEF7A6FAAD
:1030D80002463B69D31A022B01D9032326E0064B8B
:1030E8001B6803F00073002BF0D11EE07B68DB69DE
:1030F800012B07D1012319E00010024000700040A5
:10310800600042420B4B5B68FB60FB6803F4803253
:103118007B681B6A9A4206D1FB6803F470127B68CD
:103128005B6A9A4201D0012300E000231846183751
:10313800BD4680BD0010024080B584B000AF786005
:1031480039607B68002B01D10123D0E06A4B1B68F2
:1031580003F007033A689A4210D9674B1B6823F0BB
:10316800070265493B6813430B60634B1B6803F018
:1031780007033A689A4201D00123B8E07B681B68CC
:1031880003F00203002B20D07B681B6803F00403C4
:10319800002B05D0594B5B68584A43F4E0635360F1
:1031A8007B681B6803F00803002B05D0534B5B6852
:1031B800524A43F460535360504B5B6823F0F0026B
:1031C8007B689B684D4913434B607B681B6803F021
:1031D8000103002B40D07B685B68012B07D1474B6C
:1031E8001B6803F40033002B15D101237FE07B68B3
:1031F8005B68022B07D1414B1B6803F00073002B5F
:1032080009D1012373E03D4B1B6803F00203002B37
:1032180001D101236BE0394B5B6823F003027B6823
:103228005B68364913434B60FEF7F8F9F8600AE02B
:10323800FEF7F4F90246FB68D31A41F2883293424A
:1032480001D9032353E02D4B5B6803F00C027B6824
:103258005B689B009A42EBD1274B1B6803F007037E
:103268003A689A4210D2244B1B6823F0070222497D
:103278003B6813430B60204B1B6803F007033A6855
:103288009A4201D0012332E07B681B6803F00403F3
:10329800002B08D0194B5B6823F4E0627B68DB687D
:1032A800164913434B607B681B6803F00803002B27
:1032B80009D0124B5B6823F460527B681B69DB0002
:1032C8000E4913434B6000F021F802460B4B5B6834
:1032D8001B0903F00F030A49CB5C22FA03F3094ADE
:1032E8001360094B1B681846FEF756F90023184669
:1032F8001037BD4680BD00BF0020024000100240CC
:10330800C0630008000000200400002080B487B0DB
:1033180000AF0023FB600023BB6000237B61002318
:103328007B6000233B611E4B5B68FB60FB6803F01E
:103338000C03042B02D0082B03D027E0194B3B6168
:1033480027E0FB689B0C03F00F03174AD35C7B60F4
:10335800FB6803F48033002B10D0114B5B685B0CC7
:1033680003F00103114AD35CBB607B680D4A03FB81
:1033780002F2BB68B2FBF3F37B6104E07B680C4AA2
:1033880002FB03F37B617B693B6102E0054B3B6118
:1033980000BF3B6918461C37BD4680BC704700BF5C
:1033A8000010024000127A00D8630008E8630008A1
:1033B80000093D0080B400AF024B1B681846BD46AB
:1033C80080BC70470000002080B500AFFFF7F2FF17
:1033D8000246054B5B681B0A03F007030349CB5CF5
:1033E80022FA03F3184680BD00100240D06300089B
:1033F80080B500AFFFF7DEFF0246054B5B68DB0ACE
:1034080003F007030349CB5C22FA03F3184680BD97
:1034180000100240D063000880B485B000AF786027
:103428000A4B1B680A4AA2FB03235B0A7A6802FB61
:1034380003F3FB6000BFFB685A1EFA60002BF9D14A
:1034480000BF00BF1437BD4680BC70470000002095
:10345800D34D621080B582B000AF78607B68002BD6
:1034680001D1012342E07B6893F84130DBB2002BA5
:1034780006D17B68002283F840207868FDF710FFAA
:103488007B68242283F841207B681B68DA687B68A4
:103498001B6822F40052DA60786800F071F97B68E2
:1034A8001B681A697B681B6822F490421A617B6862
:1034B8001B685A697B681B6822F02A025A617B687C
:1034C8001B68DA687B681B6842F40052DA607B6824
:1034D80000225A647B68202283F841207B682022DE
:1034E80083F842207B6800225A6300231846083775
:1034F800BD4680BD80B58AB002AFF860B9603B6058
:103508001346FB8000237B61FB6893F84130DBB2F4
:10351800202B75D1BB68002B02D0FB88002B01D172
:1035280001236EE0FB6800225A64FB68212283F8BD
:103538004120FEF773F87861FB68FA889A84FB6883
:10354800FA88DA84FB689B68B3F5805F08D1FB686A
:103558001B69002B04D10023FB61BB68BB6103E03E
:10356800BB68FB610023BB612EE03B6800937B696D
:1035780000228021F86800F048F80346002B05D0A7
:10358800FB68202283F8412003233AE0FB69002BE3
:103598000BD1BB691B881A46FB681B68C2F308027B
:1035A8005A60BB690233BB6107E0FB691A78FB68A4
:1035B8001B685A60FB690133FB61FB68DB8C9BB2BB
:1035C800013B9AB2FB68DA84FB68DB8C9BB2002B68
:1035D800CBD13B6800937B6900224021F86800F05A
:1035E80014F80346002B05D0FB68202283F84120FD
:1035F800032306E0FB68202283F84120002300E033
:10360800022318462037BD4680BD80B586B000AF7E
:10361800F860B9603B601346FB713BE03B6AB3F16D
:10362800FF3F37D0FDF7FAFF02463B68D31A3A6AE4
:103638009A4202D33B6A002B01D103233AE0FB688C
:103648001B68DB6803F00403002B23D0BB68802BC6
:1036580020D0BB68402B1DD0FB681B681B6803F09B
:103668000803082B16D100237B61FB681B681B68C5
:103678007B61FB681B685B687B617B69F86800F0AD
:103688001DF8FB6808225A64FB68002283F8402072
:1036980001230FE0FB681B681A68BB681340BA680F
:1036A8009A420CBF01230023DBB21A46FB799A42E7
:1036B800B4D0002318461837BD4680BD80B495B0F5
:1036C80000AF78607B681B680C337B637B6B53E8C7
:1036D800003F3B633B6B23F49073FB647B681B6880
:1036E8000C33FA6C3A64FB63F96B3A6C41E80023DB
:1036F800BB63BB6B002BE5D17B681B6814333B6253
:103708003B6A53E8003FFB61FB6923F00103BB649C
:103718007B681B681433BA6CFA62BB62B96AFA6ACE
:1037280041E800237B627B6A002BE5D17B681B6B39
:10373800012B19D17B681B680C33FB60FB6853E8CD
:10374800003FBB60BB6823F010037B647B681B6889
:103758000C337A6CBA617B617969BA6941E80023F4
:103768003B613B69002BE5D17B68202283F842202E
:103778007B6800221A6300BF5437BD4680BC70477F
:1037880080B584B000AF78607B681B681B6923F440
:1037980040517B68DA687B681B680A431A617B685A
:1037A8009A687B681B691A437B685B691343BB6033
:1037B8007B681B68DB6823F4B05323F00C037A683A
:1037C8001268B9680B43D3607B681B685B6923F494
:1037D80040717B689A697B681B680A435A617B68F9
:1037E8001B682C4A934203D1FFF702FEF86002E0FF
:1037F800FFF7EAFDF860FA6813469B0013449A0045
:103808001A447B685B689B00B2FBF3F3224AA2FB75
:1038180003235B091901FA6813469B0013449A00B5
:103828001A447B685B689B00B2FBF3F21A4BA3FB5C
:1038380002035B09642000FB03F3D31A1B01323334
:10384800154AA2FB03235B0903F0F0031944FA6845
:1038580013469B0013449A001A447B685B689B00DC
:10386800B2FBF3F20C4BA3FB02035B09642000FBE1
:1038780003F3D31A1B013233074AA2FB03235B0964
:1038880003F00F027B681B680A449A6000BF103778
:10389800BD4680BD003801401F85EB51002B2DE946
:1038A800F0471D46BBBF03F100431D4600232D23EF
:1038B80088B01446B8BF1446129A109E1370149B11
:1038C800DDF84CA023F02008B8F1460F05D0B8F178
:1038D800450F00D10136022300E0032307AA049212
:1038E80006AACDE902A2CDE9003622462B4600F011
:1038F8004FFFB8F1470F074619D1119BDB070ED5CB
:1039080000EB06090022002320462946FDF7B4F8FB
:1039180008B1CDF81C903022079B4B451ED3384682
:10392800079B159ADB1B136008B0BDE8F087B8F158
:10393800460F00EB0609E5D10378302B0AD10022A7
:10394800002320462946FDF797F818B9C6F1010665
:10395800CAF80060DAF800309944D3E7591C079197
:103968001A70D9E7F7B50029B6BF2D232B23494292
:1039780009290270437029DD0DF107031D460A2746
:10398800B1FBF7F61A4607FB1614303402F8014C5F
:103998000C46632C314603F1FF33F1DC3031941EC1
:1039A80003F8011C2346411CAB420AD30DF109035D
:1039B8009B1AAC4288BF002302330344181A03B091
:1039C800F0BD13F8016B01F8016FEDE730233031DA
:1039D8008370C170031DF1E72DE9F04F91B00C46DB
:1039E800DDF8688016461F46054600F0C3FD0368EB
:1039F80018460893FCF714FC00230E93D8F80030FF
:103A08000990073323F0070303F1080294F818A07C
:103A1800D4F800B0C8F80020D3E9008929F00043A1
:103A28000B93CDF828804FF0FF32DDE90A01C4E995
:103A380012899C4BFDF752F870BBDDE90A014FF083
:103A4800FF32984BFDF72CF830BB0022002340468C
:103A58004946FDF71BF810B12D2384F84330924AEC
:103A6800924BBAF1470F8CBF9046984603234FF00C
:103A7800000923612BF004032360334621462846BE
:103A880000970FAA00F0D4F9013040F090804FF071
:103A9800FF3011B0BDE8F08F42464B4640464946DC
:103AA800FDF71CF848B14B46002BB8BF2D23804AC0
:103AB800B8BF84F843307F4BD3E763680AF0DF016F
:103AC8005A1C3FD10623636000224BF480632360B5
:103AD80006920EAACDE904A20DAA03920DF13302B3
:103AE800CDE9013263684246009328464B460A9165
:103AF800FFF7D4FE0A99804647290D9928D1C81C9A
:103B080002DB6368994240DDAAF1020A5FFA8AFA89
:103B18005246013904F150000D91FFF723FF0E9A28
:103B280081461318012A236102DC2268D20701D5D5
:103B3800013323619DF83330002B9ED02D2384F868
:103B480043309AE74729BFD1002BBDD10123BAE7FB
:103B5800BAF1650FDCD9BAF1660F18D1002963688C
:103B68000BDD216113B92268D00702D501330B445C
:103B780023614FF00009A165DCE713B92268D20779
:103B880001D50233F4E70123F2E74FF0670A0E9BF1
:103B9800994205DB23682161D807EAD54B1CE7E782
:103BA8000029CCBF0122C1F102021344E0E72368D7
:103BB8005A0507D42369424631462846B84701309A
:103BC8002BD164E7BAF1650F40F2DC80D4E9120129
:103BD80000220023FCF750FF002833D00123314690
:103BE8002846354AB84701303FF451AFDDE90D3872
:103BF800434502DB2368D8070FD5DDE908233146A2
:103C08002846B84701303FF442AF4FF0000908F1A9
:103C1800FF3804F11A0AC84509DC23689B0700F13C
:103C28000281E0680F9B9842B8BF184631E701232C
:103C3800524631462846B84701303FF428AF09F1CB
:103C48000109E8E70D9B002B38DC012331462846A3
:103C5800194AB84701303FF41AAFDDE90D3959EA7E
:103C6800030302D12368D907D7D5DDE908233146F4
:103C78002846B84701303FF40AAF4FF0000A04F174
:103C88001A0B0D9B5B42534501DC4B4693E701231E
:103C98005A4631462846B84701303FF4F8AE0AF193
:103CA800010AEEE7FFFFEF7FEE630008EA63000812
:103CB800F6630008F2630008FA630008A36DDDF8F4
:103CC80038A05345A8BF5346002B994636DC4FF021
:103CD800000B29EAE97904F11A02A36D0A93A3EB10
:103CE80009035B4531DC0D9B9A453ADC2368DA070A
:103CF80037D40D9BAAEB03090A9BAAEB030399454A
:103D0800A8BF9946B9F1000F33DC4FF0000829EA43
:103D1800E97904F11A0B0D9BAAEB0303A3EB090342
:103D280043457FF77AAF01235A4631462846B847BC
:103D380001303FF4ACAE08F10108ECE742463146E9
:103D48002846B8470130C2D1A1E6012331462846AA
:103D58000A92B84701303FF49AAE0A9A0BF1010B68
:103D6800BBE73146DDE908232846B8470130C0D112
:103D78008DE60A9A4B46314628464244B8470130F8
:103D8800C3D184E6DDF838A0BAF1010F01DCDB0706
:103D980036D50123424631462846B84701303FF41C
:103DA80076AEDDE9082331462846B84701303FF4AE
:103DB8006EAED4E91201002200230AF1FF3AFCF7A3
:103DC8005BFEC0B9534608F1010231462846B847A0
:103DD80001300CD15BE601235A4631462846B847E4
:103DE80001303FF454AE08F10108D045F3DB4B46EF
:103DF80004F15002E0E64FF0000804F11A0BF4E772
:103E080001234246E1E701234A4631462846B8479E
:103E180001303FF43CAE08F10108E3680F995B1AE2
:103E28004345F0DCFDE64FF0000804F11909F4E71A
:103E38002DE9F047164698468A680B69074693426B
:103E4800B8BF1346336091F843200C46DDF8209044
:103E58000AB1013333602368990642BF33680233DD
:103E68003360256815F0060506D104F1190AE368E0
:103E780032689B1AAB422BDC94F843302268003B33
:103E880018BF0123920630D44146384604F1430254
:103E9800C847013023D02368226903F00603042BA6
:103EA80014BF002533684FF0000608BFE56804F129
:103EB8001A0408BFED1A54F8123C08BF25EAE57544
:103EC8009342C4BF9B1AED18B5421AD1002008E0EE
:103ED8000123524641463846C847013003D14FF0C6
:103EE800FF30BDE8F0870135C1E73020E11881F8DF
:103EF80043005A1C94F845102244023382F84310B8
:103F0800C2E70123224641463846C8470130E6D079
:103F18000136D9E72DE9FF470F7E9146782F804675
:103F28000C469A460C9E01F1430207D8622F0AD824
:103F3800002F00F0D180582F00F0B88004F142061D
:103F480084F842703AE0A7F16303152BF6D801A173
:103F580051F823F0B53F0008C93F0008453F000865
:103F6800453F0008453F0008453F0008C93F000895
:103F7800453F0008453F0008453F0008453F000809
:103F8800C7400008F33F000881400008453F00088B
:103F9800453F0008E9400008453F0008F33F000896
:103FA800453F0008453F00088940000833681A1D4E
:103FB8001B68326004F1420684F8423001239CE019
:103FC80033682068191D3160060601D51D6803E0B5
:103FD8004506FBD5B3F90050002D03DA2D236D42B9
:103FE80084F843300A23584811E0216833680806EA
:103FF80053F8045B02D4490648BFADB26F2F336053
:1040080014BF0A2308235048002184F84310666827
:10401800002EA66005DB21682E4321F004012160F3
:104028004BD01646B5FBF3F103FB1157C75D06F8F5
:10403800017D2F46BB420D46F4D9082B0BD12368CE
:10404800DF0708D5236961689942DEBF302306F887
:10405800013C06F1FF36921B22614B462146404641
:10406800CDF800A003AAFFF7E3FE01304AD14FF0D4
:10407800FF3004B0BDE8F087236843F020032360D5
:104088007827324884F84570236831681F0651F84C
:10409800045B02D45F0648BFADB23160D90744BFA4
:1040A80043F0200323601DB11023ADE72648E9E75C
:1040B800236823F020032360F6E71646BDE733683C
:1040C8002568181D616930602E061B6801D51960C6
:1040D80002E06806FBD51980002316462361BCE779
:1040E800336800211A1D32601E686268304600F08D
:1040F800B8FA08B1801B606063682361002384F804
:104108004330AAE73246494640462369D047013042
:10411800ADD023689B0713D4E068039B9842B8BFCF
:104128001846A6E70123324649464046D0470130A3
:104138009DD00135E36803995B1AAB42F2DCEBE7EB
:10414800002504F11906F5E7FC6300080D64000872
:10415800002310B50446C0E90033C0E90433836086
:1041680081814366C2818361194608225C3000F070
:10417800F9F90D4B246263620C4BA3620C4BE362AA
:104188000C4B23630C4B9C4206D003F1680294420B
:1041980002D0D0339C4205D104F15800BDE810404C
:1041A80000F05CBA10BD00BFBD430008DF43000843
:1041B800174400083B440008B8020020024A03499B
:1041C800034800F069B800BF0C000020B15F000888
:1041D8001C00002041680C4B10B59942044601D0E0
:1041E80001F0E2FEA168094B994202D0204601F095
:1041F800DBFEE168064B994204D02046BDE810403A
:1042080001F0D2BE10BD00BFB8020020200300207C
:104218008803002010B50B4B0B4C0C4A20461A6043
:1042280004210022FFF794FF04F16800012209210C
:10423800FFF78EFF04F1D0000222BDE810401221E2
:10424800FFF786BFF0030020B8020020C541000830
:10425800014800F004BA00BFF9030020014800F04B
:10426800FFB900BFF903002010B50446FFF7F0FFBF
:10427800236A1BB1BDE81040FFF7F0BF044B23626F
:10428800044B1B68002BF5D1FFF7C4FFF2E700BF12
:10429800DD410008F00300202DE9F8430746884671
:1042A80014460026D4E90195B9F1010905D5246819
:1042B800002CF7D13046BDE8F883AB89012B07D92C
:1042C800B5F90E30013303D029463846C0470643B6
:1042D8006835E9E70FB407B5064904AB086853F831
:1042E800042B8168019301F0C7FC03B05DF804EB6F
:1042F80004B0704718000020036A70B505460E46E2
:1043080084680BB9FFF7B0FF636EDB0705D4A38998
:10431800980502D4A06D00F0A2F9A389190702D567
:104328002369002B35D12146284600F0C5F880B313
:104338004FF0FF35636EDA0705D4A3899B0502D4D5
:10434800A06D00F08DF9284670BD002B04DAA26933
:104358009A4217DC0A2915D023685A1C2260197062
:10436800A36816F8011F013BA3600029EDD1002BBB
:1043780011DA22460A21284600F05FF80130D7D02A
:104388000A25D7E72246284600F057F80130E7D13A
:10439800CEE7013EE4E723685A1C22600A221A701D
:1043A800EEE70000024B01461868FFF7A5BF00BF03
:1043B8001800002010B50C46B1F90E1000F000F9F5
:1043C8000028ABBF636DA3891B1823F48053ACBFCF
:1043D8006365A38110BD2DE9F0411F468B89054611
:1043E800DB050C46164605D502230022B1F90E104E
:1043F80000F0D4F8A389324623F48053A3812846D9
:104408003B46B4F90E10BDE8F04100F0EBB810B52A
:104418000C46B1F90E1000F0C1F8431CA38915BF72
:10442800606523F4805343F48053A38118BFA381AC
:1044380010BDB1F90E1000F0A1B8F8B50E4614463B
:10444800054618B1036A0BB9FFF70EFFA369A3600D
:10445800A3891A0701D5236943B92146284600F0E4
:104468002BF818B14FF0FF373846F8BD236822699A
:10447800F6B2981A63693746834205DC2146284616
:1044880001F092FD0028EDD1A368013BA3602368E9
:104498005A1C22601E706269431C9A4204D0A38988
:1044A800DB07E1D50A2EDFD12146284601F07CFD45
:1044B8000028D9D0D6E7000038B5294B054618683A
:1044C8000C4618B1036A0BB9FFF7CEFEB4F90C30ED
:1044D800190722D4DA0607D409222A6043F04003D8
:1044E8004FF0FF30A38133E0580712D5616B41B11B
:1044F80004F14403994202D0284600F01DFF00232E
:104508006363A38923F02403A381002363602369E1
:104518002360A38943F00803A38123694BB9A389C6
:1045280003F42073B3F5007F03D02146284601F039
:1045380088FDB4F90C3013F001020AD00022A26001
:1045480062695242A261226942B913F08000C5D162
:1045580038BD990758BF6269A260F4E70020F7E701
:104568001800002003460244934200D1704703F824
:10457800011BF9E7004870475801002038B50023AF
:10458800054D044608462B60FCF75DFF431C02D12D
:104598002B6803B1236038BDF403002038B5044606
:1045A800084611460022054D2A601A46FCF76FFF9F
:1045B800431C02D12B6803B1236038BDF4030020EB
:1045C80038B50446084611460022054D2A601A46A9
:1045D800FCF700FF431C02D12B6803B1236038BDF0
:1045E800F403002038B50446084611460022054D5C
:1045F8002A601A46FCF70BFF431C02D12B6803B153
:10460800236038BDF4030020014B1868704700BFD1
:104618001800002070B500260C4D0D4C641BA4102A
:10462800A64209D101F03AFE00260A4D0A4C641B45
:10463800A410A64205D170BD55F8043B9847013631
:10464800EEE755F8043B98470136F2E7646700083F
:104658006467000864670008686700087047704767
:104668007047034610B5C9B202449342184601D1B7
:10467800002003E0047801338C42F6D110BD2DE907
:10468800F74F03690C690746A3427EDB013CA30090
:1046980000F1140501F11408009305EB840301935C
:1046A80058F8243055F8242001339A42B2FBF3F627
:1046B80008EB84092ED34FF0000AC446AE46D34611
:1046C8005CF8043B98B206FB00A01B0C020C06FB2E
:1046D8000323DEF8002080B292B2121A5A44DEF8A0
:1046E80000004FEA134A9BB2C3EB224303EB10438B
:1046F80092B242EA0342E1454FEA234B4EF8042BBB
:10470800DED2009BEB582BB9019B043B9D421A4615
:104718002FD33C61384601F07FF9002825DB294674
:10472800002058F8042BD1F800C01FFA82FE1FFAA7
:104738008CF3A3EB0E030344120CC2EB234202EBEF
:104748001C429BB243EA0243C1454FEA224041F86A
:10475800043BE6D255F8242005EB840322B9043B38
:104768009D421A460BD33C610136304603B0BDE882
:10477800F08F1268043B002ACBD1013CC6E71268CF
:10478800043B002AEFD1013CEAE70020EEE70000F5
:104798002DE9F04F14461D46C76997B08146CDE90B
:1047A8000645239E7FB9102000F00EFE0246C9F888
:1047B8001C0020B9EF21AC4BAC4801F0BFFCC0E9AC
:1047C80001770760C760D9F81C30196859B15A6871
:1047D800012393404A608B60484600F0EBFE0022BC
:1047E800D9F81C301A602B1EAFBF0023012223F01A
:1047F80000430793A8BF3360DDF81C809C4BB8BF0B
:10480800326033EA080312D142F20F73229A13601E
:10481800C8F31303234300F05E85249BDFF854A2FA
:10482800002B00F060850AF1030300F05ABDDDE9B2
:104838000623CDE90C23DDE90C0100220023FCF757
:104848001BF9074658B10123229A1360249B13B120
:10485800894B249A1360DFF824A200F044BD14ABFE
:10486800019315AB00934846DDE90C2301F084F968
:10487800C8F30A560390002E78D0DDE90C010D9B91
:10488800A6F2FF36C3F3130343F07F5343F44013F8
:104898001297194600227A4BFBF7CEFC6CA3D3E99A
:1048A8000023FBF781FE6CA3D3E90023FBF7C6FCCA
:1048B800044630460D46FBF70DFE69A3D3E90023F5
:1048C800FBF772FE02460B4620462946FBF7B6FC6C
:1048D80004460D46FCF718F9002207460023204637
:1048E8002946FCF7D3F840B13846FBF7F3FD2246DA
:1048F8002B46FCF7C1F800B9013F162F54D8DDE963
:104908000C01604B03EBC703D3E90023FCF7BEF8A7
:1049180000284BD00023013F0F93149B9B1B5A1E6A
:1049280049BFC3F10103002304930023099254BF34
:1049380004930993002F3BDB099B0E973B44099393
:1049480000230A93209B092B65D8052BC4BF043B81
:104958002093209BC8BF0024A3F10203D8BF0124E1
:10496800032B64D8DFE803F05355382CDDE91463D2
:104978001E4406F23243202BC1BFC3F1400308FA9C
:1049880003F806F2124324FA03F3D6BFC3F1200357
:1049980048EA030004FA03F0FBF78CFD0122A1F1B9
:1049A800F873013E129274E70123B5E70F90B4E75C
:1049B800049BDB1B04937B420A9300230E93C1E7FD
:1049C80001230B93219B07EB030B0BF10103012B35
:1049D8000893B8BF012306E001230B93219B002B0A
:1049E80028DD9B46089300210422D9F81C0002F117
:1049F80014059D4226D94160484600F09BFD824639
:104A0800002843D1024640F2AF111F4BD4E60023E1
:104A1800E3E70023D5E7012400230B9420934FF00C
:104A2800FF3B00221223CDF820B02192DBE70123BF
:104A38000B93F4E74FF0010B5B46CDF820B0CDF8AF
:104A480084B0D0E701315200D1E700BFAFF3008056
:104A580061436F63A787D23FB3C8608B288AC63F7C
:104A6800FB799F501344D33F2B640008426400082D
:104A78000000F07F27640008FB630008FA63000861
:104A88000000F83F906500089A640008D9F81C30C7
:104A98001860089B0E2B00F2A180002C00F09E806D
:104AA800002F33DD9C4B07F00F0203EBC203F80520
:104AB800D3E90034CDE910344FEA271416D5DDE9DF
:104AC8000C01964B0326D3E90823FBF797FECDE9A3
:104AD800060104F00F04914D54B9DDE91023DDE916
:104AE8000601FBF78BFECDE9060128E00226F2E776
:104AF800E10708D5DDE91001D5E90023FBF754FDEE
:104B0800CDE91001013664100835E5E700F0AF8003
:104B1800DDE90C017C42804B04F00F0203EBC20379
:104B2800D3E90023FBF740FD02260023CDE9060167
:104B38007A4D2411002C40F08F80002BD3D1DDE971
:104B480006450F9B002B00F0948000222046294642
:104B5800734BFBF79BFF002800F08B80089B002B12
:104B680000F08780BBF1000F34DD20460022294683
:104B78006C4BFBF719FD5C46CDE9060107F1FF38E0
:104B880001363046FBF7A6FCDDE90623FBF70CFDF2
:104B98000022654BFBF752FB0546A1F15076002C2D
:104BA8006AD1DDE906010022604BFBF745FB0246AE
:104BB8000B46CDE906232A463346FBF785FF002836
:104BC80040F09882DDE906012A4606F10043FBF72A
:104BD8005DFF38BBDDE90C34CDE90634159B002BAD
:104BE800C0F257810E2F00F354814B4B03EBC703E0
:104BF800D3E90034CDE90434219B002B80F2E58011
:104C0800089B002B00F3E1800CD1DDE904010022B0
:104C1800464BFBF7C9FCDDE90623FBF74BFF0028F1
:104C280000F0668200242546219B56466FEA030859
:104C380000272146484600F0BDFC002D00F0BD804D
:104C48002FB1AF4203D03946484600F0B3FC29469D
:104C5800484600F0AFFCB0E0E20705D5D5E90023EF
:104C6800FBF7A2FC012301366410083562E702262F
:104C780065E7B846089C84E7274B0B9903EBC40308
:104C880053E902235444002954D000202849FBF753
:104C9800B5FD33462A46FBF7CFFA5646CDE9100153
:104CA800DDE90601FBF730FF0546FBF713FC02467A
:104CB8000B46DDE90601FBF7BFFA02460B46303525
:104CC800CDE90623DDE9102306F8015BFBF7DEFEDC
:104CD800002872D1DDE9062300201149FBF7ACFA60
:104CE800DDE91023FBF7D2FE002840F0B480A6428D
:104CF8003FF470AFDDE9100100220A4BFBF754FCCA
:104D08000022CDE91001DDE90601064BFBF74CFC5A
:104D1800CDE90601C4E700BF906500086865000892
:104D28000000F03F0000244000001C400000144038
:104D38000000E03F31462846FBF736FC5646CDE9F1
:104D480010011394DDE90601FBF7DEFE0546FBF7CB
:104D5800C1FB02460B46DDE90601FBF76DFA024688
:104D68000B46303506F8015BA642CDE906234FF025
:104D7800000224D1DDE91001AE4BFBF75FFA0246D1
:104D88000B46DDE90601FBF79FFE002863D1DDE94C
:104D980010230020A749FBF74FFA02460B46DDE92E
:104DA8000601FBF773FE00283FF414AF139E731E31
:104DB800139316F8013C302BF8D047463BE09E4B46
:104DC800FBF7F2FBCDE90601BCE75646DDE90645EF
:104DD800DDE9042320462946FBF710FDFBF794FE86
:104DE8008046FBF777FBDDE90423FBF7DDFB024692
:104DF8000B4620462946FBF71FFA08F13004089DA8
:104E080006F8014BA6EB0A04A54202460B4633D12D
:104E1800FBF714FADDE9042304460D46FBF754FEBC
:104E2800C0B9DDE9042320462946FBF725FE10B169
:104E380018F0010F0ED14846039900F0BBFB002380
:104E48003370229B01371F60249B002B00F04B829C
:104E58001E6048E2B84633461E4613F8012D392A2B
:104E680006D19A45F8D1302208F101088AF80020C5
:104E78001A7801321A70A0E700226F4BFBF794FBF7
:104E88000022002304460D46FBF7F6FD00289FD0BC
:104E9800D1E70B9A002A00F0EA80209A012A00F351
:104EA800CD80129A002A00F0C18003F233430A9C95
:104EB800049E049A01211A440492099A48461A4405
:104EC800099200F02BFC054666B1099B002B09DD11
:104ED800B342A8BF3346049AF61AD21A0492099A22
:104EE800D31A09930A9B0BB30B9B002B00F0C680C7
:104EF800002C00F0C08029462246484600F0C6FC37
:104F0800039A01460546484600F01EFC0399804670
:104F1800484600F04FFB0A9B1B1B0A9300F0B18028
:104F280041460A9A484600F0B1FC039001214846E0
:104F380000F0F4FB0E9B0446002B00F0D8811A46C3
:104F48000146484600F0A2FC209B0446012B00F3D2
:104F58009F80069B002B40F09780079BC3F31303A9
:104F6800002B40F09380079B23F000431B0D1B058B
:104F780033B1049B01330493099B01330993012343
:104F88000A930E9B002B00F0B881236904EB83037E
:104F9800186900F077FBC0F12000099B184410F055
:104FA8001F0000F08280C0F12003042B73DD049BF6
:104FB800C0F11C0003440493099B0644034409936D
:104FC800049B002B05DD1A464846039900F0B8FCFF
:104FD8000390099B002B05DD21461A46484600F040
:104FE800AFFC04460F9B002B61D02146039800F0CC
:104FF80013FD00285BDA00230A224846039900F0D3
:10500800FBFA0B9B07F1FF380390002B00F0778128
:10501800294600230A22484600F0EEFABBF1000FA9
:1050280005466FDC209B022B49DC6BE0149BC3F127
:1050380036033CE70000E03F00002440089B5C1E6C
:105048000A9BA34209DB1C1B089B002BBFF630AF51
:10505800049B089A9E1A00232BE70A9B0E9AE31AD0
:105068001A440A94049E0024089B0E9221E70A9C85
:10507800049E0B9D28E7DDF80C8051E70A9A0399F6
:1050880050E7CDF80C8051E7002379E7069B77E7D6
:1050980000230A9379E793D0049A1C331A440492A4
:1050A800099A1E441A4409928AE70346F4E7089BC2
:1050B800B846002B20DC9B46209B022B1EDDBBF153
:1050C800000F7FF4B1AD21465B460522484600F04B
:1050D80093FA01460446039800F09EFC00287FF7E7
:1050E800A3AD5646312308F1010806F8013B9FE5B8
:1050F800B846089C2546F4E7DDF820B00B9B002B4A
:1051080000F00181002E05DD29463246484600F0B0
:1051180017FC05460A9B002B5CD04846696800F0DE
:1051280009FA064628B9024640F2EF21804BFFF7FC
:1051380043BB2A6905F10C01023292000C3000F0E1
:10514800EFFF01223146484600F0FAFB2F4605469C
:105158000AF1010304930AEB0B030A93069B03F07D
:1051680001030993049B2146039803F1FF3BFFF7D2
:1051780086FA034639463033069003980B9300F0BD
:105188004BFC2A4608902146484600F061FCC2685C
:1051980006460B9B02BB0146039800F03DFC024605
:1051A8000B9B31464846CDE90B3200F003FA209BB1
:1051B8000C9A049E42EA0301099B19430B9B0DD1EB
:1051C800392B27D0089A002A01DD069B31338BF84A
:1051D80000302EE52846B9E70122E2E708990029C0
:1051E80004DB209801430998014320D1002AEEDD11
:1051F800012203994846049300F0A2FB214603903C
:1052080000F00AFC0028049B02DCE0D1DA07DED5B6
:10521800392BDAD139238BF8003033461E4616F87D
:10522800012C013B392A4ED001321A7001E5002ABF
:1052380003DD392BEED00133C9E7049A0A9902F845
:10524800013C8A4228D000230A220399484600F0EC
:10525800D3F9AF4203904FF000034FF00A023946EA
:10526800484607D100F0C8F907460546049B0133B4
:10527800049377E700F0C0F92946074600230A227D
:10528800484600F0B9F90546F0E7BBF1000FCCBF7E
:105298005E46012600275644012203994846049396
:1052A80000F04EFB2146039000F0B6FB0028B4DC6A
:1052B80002D1049BDB07B0D433461E4613F8012DF8
:1052C800302AFAD0B5E49A45A8D1312308F101086B
:1052D8008AF80030ADE4249BDFF858A01BB10AF12E
:1052E8000803249A1360504617B0BDE8F08F209B3E
:1052F800012B7FF72EAE0E9B0A9301204DE6BBF1E2
:10530800000F7FF7D9AE564621460398FFF7B7F945
:1053180000F1300306F8013BA6EB0A029345B4DD21
:1053280000230A224846039900F066F90390EBE748
:105338009A6400081E64000838B50546002940D064
:1053480051F8043C0C1F002BB8BFE41800F0E6F835
:105358001C4A136833B9636014602846BDE83840B6
:1053680000F0E2B8A34208D9206821188B4201BF97
:1053780019685B6809182160EDE71A465B680BB18C
:10538800A342FAD911685018A0420BD120680144F1
:10539800501883421160E0D118685B6808441060B7
:1053A8005360DAE702D90C232B60D6E7206821186E
:1053B8008B4201BF19685B680918216063605460FB
:1053C800CBE738BD00040020024B0146186800F006
:1053D80025B800BF1800002070B50F4E0C46316884
:1053E800054611B900F08CFE30602146284600F0D1
:1053F80087FE431C03D14FF0FF34204670BDC41C08
:1054080024F00304A042F8D0211A284600F078FEC0
:105418000130F2D1EFE700BFFC0300202DE9F8438B
:10542800CD1C25F0030508350C2D38BF0C25002DA3
:10543800064601DBA94204D90C2333600020BDE8ED
:10544800F883DFF8D48000F069F8D8F800301C46FB
:1054580044BB29463046FFF7BFFF431C044658D1DA
:10546800D8F800402746002F43D1002C4BD02368A2
:105478003946304604EB030900F042FE814542D12B
:10548800216830466D1A2946FFF7A6FF01303AD049
:1054980023682B442360D8F800305A6862BBC8F8E8
:1054A80000700FE02268521B20D40B2A17D961190B
:1054B800A342256018BF5960636808BFC8F8001088
:1054C80062514B60304600F02FF804F10B00231DA9
:1054D80020F00700C21A1CBF1B1AA350AFE762686E
:1054E800A3420CBFC8F800205A60EBE72346646863
:1054F800AEE73C467F68B6E71A465B68A342FBD135
:1055080000235360DEE70C233046336000F00CF8CC
:1055180094E70560D6E700BF000400200148FFF7C4
:105528009EB800BFF80300200148FFF799B800BFF4
:10553800F803002070B5C66904460D4676B91020F8
:10554800FFF742FF0246E06120B96B21174B18486C
:1055580000F0F4FDC0E901660660C660E669F3681C
:1055680083B1E369DB6853F82500B8B9012101FA72
:1055780005F6721D2046920000F0FEFD60B1C0E9FC
:1055880001560EE021220421204600F0F5FDE369D2
:10559800F060DB68002BE4D1002070BD026843F89E
:1055A80025200023C0E90333F7E700BF2B64000878
:1055B800AB64000870B5C66905460C4676B910207C
:1055C800FFF702FF0246E86120B98F21084B09481E
:1055D80000F0B4FDC0E901660660C6603CB1EB6945
:1055E8006268DB6853F82210216043F8224070BDDE
:1055F8002B640008AB6400082DE9F04107460C460F
:105608001E4600200D6901F1140CDCF80030013051
:1056180099B202FB01611E0C0B0C02FB063389B226
:1056280001EB034185424FEA13464CF8041BECDCBE
:105638000EB3A368AB4219DC616838460131FFF745
:1056480079FF804628B90246BA210C4B0C4800F075
:1056580075FD226904F10C01023292000C3000F051
:105668005FFD21463846FFF7A5FF444604EB850356
:1056780001355E6125612046BDE8F0819A64000825
:10568800AB6400080346B0F5803F3ABF030410201E
:105698000020B3F1807F3CBF1B020830B3F1805F6C
:1056A8003CBF1B010430B3F1804F3CBF9B0002306C
:1056B800002B05DB13F0804F00F1010008BF20200C
:1056C80070470368024613F007000BD0D90721D4AE
:1056D800980749BF5B089B08012013605CBF022044
:1056E8001360704799B209B910201B0CD9B209B9D7
:1056F80008301B0A190704BF1B090430990704BFA7
:105708009B080230D90703D45B0800F1010003D0DD
:1057180013607047002070472020704710B50C4672
:105728000121FFF707FF024628B940F24511044B53
:10573800044800F003FD01234461036110BD00BF6C
:105748009A640008AB6400082DE9F04F17460A690F
:105758003B6989469A42A2BF3B460F4699463D6936
:10576800D9F810A0BB68796805EB0A06B34285B082
:10577800B8BF0131FFF7DEFE30B902464FF4B17110
:10578800404B414800F0DAFC00F1140423460022A3
:1057980004EB860E734520D307F1140809F11401B0
:1057A80008EB850501EB8A030293EB1B153B23F0FD
:1057B800030304331537BD4238BF04230193029B0A
:1057C80003918B420CD8002E03DD5EF8043D002BBC
:1057D80055D0066105B0BDE8F08F43F8042BD9E732
:1057E800B1F800A0BAF1000F1FD0C446A1460027A7
:1057F8005CF8042BD9F800301FFA82FB9BB20AFB35
:105808000B333B44D9F80070120C3F0C0AFB0272B0
:1058180002EB13429BB243EA024365454FEA124743
:1058280049F8043BE4D8019BE750039B0431B3F8E3
:105838000290B9F1000F20D04746A4464FF0000A65
:105848002368B7F800B0BCF802209BB209FB0B2212
:10585800524443EA02434CF8043B57F8043B4FEAEE
:10586800134ABCF80030BD4209FB0A3303EB12436C
:105878004FEA134AE5D8019AA35004349FE7013E42
:10588800A1E700BF9A640008AB6400082DE9F8435B
:10589800154612F0030207460E4607D0254C013A7A
:1058A800002354F82220FFF7A7FE0646AD103DD08E
:1058B800FC697CB91020FFF787FD0246F86128B91A
:1058C80040F2B3111C4B1D4800F038FCC0E90144FC
:1058D8000460C460D7F81C80D8F808404CB940F27E
:1058E80071213846FFF71AFF00230446C8F808005C
:1058F80003604FF00009EB070AD5314622463846C7
:10590800FFF722FF804631463846FFF753FE4646EA
:105918006D100BD0206838B9224621463846FFF76B
:1059280013FF2060C0F800900446E4E73046BDE865
:10593800F88300BF5C6500082B640008AB640008AE
:105948002DE9F0470C46074691462369496803EB61
:105958006218A3684FEA621A08F10106B3420BDB2A
:105968003846FFF7E7FD054648B902464FF4EF71A0
:10597800274B284800F0E2FB01315B00EEE70023EB
:1059880000F1140100F110021846534533DB206979
:105998002AEAEA7A04F1140319F01F0901EB8A01D3
:1059A80003EB800C2BD08A460022C9F1200E186820
:1059B80000FA09F010434AF8040B53F8042B9C45ED
:1059C80022FA0EF2F3D8ACEB0403153B23F00303E1
:1059D800043304F11500604588BF0423CA500AB196
:1059E80008F10206013E384621462E61FFF7E2FD26
:1059F8002846BDE8F08742F8040F0133C5E70439AB
:105A080053F8042B9C4541F8042FF9D8EAE700BF66
:105A18009A640008AB64000803460A69006930B557
:105A2800801A0ED11433143103EB820401EB820186
:105A380054F8045D51F8042D954203D005D24FF077
:105A4800FF3030BDA342F3D3FBE70120F9E70000A4
:105A58002DE9F74F89460646114648461446FFF792
:105A6800DBFF051E12D129463046FFF763FD0246CB
:105A780028B940F237213E4B3E4800F05FFB012336
:105A8800C0E90435104603B0BDE8F08FBCBF4B46F3
:105A9800A1463046D9F80410BABF1C460125002596
:105AA800FFF748FD024618B940F24521304BE3E7BD
:105AB80000F1140BD9F8107009F11003C5604FF00C
:105AC800000C09F11405D946266904F1140E05EBFA
