:020000040800F2
:1000000000C0002079050008150500081D0500083E
:10001000250500082D050008350500080000000032
:100020000000000000000000000000003D05000886
:10003000490500080000000055050008610500089A
:10004000C1050008C1050008C1050008C105000878
:10005000C1050008C1050008C1050008C105000868
:10006000C1050008C1050008C1050008C105000858
:10007000C1050008C1050008C1050008C105000848
:10008000C1050008C1050008C1050008C105000838
:10009000C1050008C1050008C1050008C105000828
:1000A000C1050008C1050008C1050008C105000818
:1000B000C1050008C1050008C1050008C105000808
:1000C000C1050008C1050008C1050008C1050008F8
:1000D000C1050008C1050008C1050008C1050008E8
:1000E000C1050008C1050008C1050008C1050008D8
:1000F000C1050008C1050008C1050008C1050008C8
:10010000C1050008C1050008C1050008C1050008B7
:10011000C1050008C1050008C1050008C1050008A7
:10012000C1050008C1050008C1050008C105000897
:1001300000000000000000000000000000000000BF
:1001400000000000000000000000000000000000AF
:10015000000000000000000000000000000000009F
:10016000000000000000000000000000000000008F
:10017000000000000000000000000000000000007F
:10018000000000000000000000000000000000006F
:10019000000000000000000000000000000000005F
:1001A000000000000000000000000000000000004F
:1001B000000000000000000000000000000000003F
:1001C000000000000000000000000000000000002F
:1001D000000000000000000000000000000000001F
:0401E0005FF8E0F1F3
:1001E40010B5054C237833B9044B13B10448AFF36D
:1001F40000800123237010BD0C00002000000000CB
:10020400B018000808B5034B1BB103490348AFF30A
:10021400008008BD0000000010000020B018000895
:10022400034613F8012B002AFBD1181A0138704732
:1002340090B585B000AF00F0C3F900F01FF800F0EE
:1002440083F800F057F80B4B3C460FCB07C42370E0
:100254003B461846FFF7E4FF03469AB239464FF08F
:10026400FF33054801F022F94FF47A7000F00AFADE
:1002740000BFE8E7C81800082800002080B590B047
:1002840000AF07F1180328220021184601F0E2FA12
:100294003B1D00221A605A609A60DA601A610223D8
:1002A400BB610123BB621023FB6200237B6307F164
:1002B4001803184600F09AFC0346002B01D000F006
:1002C400A3F80F237B600023BB600023FB600023A3
:1002D4003B6100237B613B1D0021184600F008FFB1
:1002E4000346002B01D000F08FF800BF4037BD4615
:1002F40080BD000080B500AF114B124A1A60104B4C
:100304004FF4E1325A600E4B00229A600C4B0022EB
:10031400DA600B4B00221A61094B0C225A61084B1C
:1003240000229A61064B0022DA61054801F06EF85A
:100334000346002B01D000F067F800BF80BD00BF6A
:10034400280000200038014080B588B000AF07F1D4
:10035400100300221A605A609A60DA60274B9B6986
:10036400264A43F010039361244B9B6903F0100366
:10037400FB60FB68214B9B69204A43F004039361B3
:100384001E4B9B6903F00403BB60BB681B4B9B695A
:100394001A4A43F008039361184B9B6903F008035E
:1003A4007B607B6800224FF40051154800F006FC86
:1003B40000220821134800F001FC4FF400533B6174
:1003C40001237B610023BB610223FB6107F110035E
:1003D40019460B4800F05EFA08233B6101237B6158
:1003E4000023BB610223FB6107F110031946054892
:1003F40000F050FA00BF2037BD4680BD0010024017
:1004040000100140000C014080B400AF72B600BF80
:1004140000BFFDE780B485B000AF154B9B69144A5B
:1004240043F001039361124B9B6903F00103BB602A
:10043400BB680F4BDB690E4A43F08053D3610C4B0E
:10044400DB6903F080537B607B680A4B5B68FB606D
:10045400FB6823F0E063FB60FB6843F00073FB6020
:10046400044AFB68536000BF1437BD4680BC704724
:10047400001002400000014080B588B000AF7860F1
:1004840007F1100300221A605A609A60DA607B68F0
:100494001B681C4A934231D11B4B9B691A4A43F493
:1004A40080439361184B9B6903F48043FB60FB68B2
:1004B400154B9B69144A43F004039361124B9B69E7
:1004C40003F00403BB60BB684FF400733B61022379
:1004D4007B610323FB6107F1100319460B4800F00D
:1004E400D9F94FF480633B6100237B610023BB6136
:1004F40007F110031946054800F0CCF900BF203776
:10050400BD4680BD00380140001002400008014093
:1005140080B400AF00BFFDE780B400AF00BFFDE7CB
:1005240080B400AF00BFFDE780B400AF00BFFDE7BB
:1005340080B400AF00BFFDE780B400AF00BFBD468C
:1005440080BC704780B400AF00BFBD4680BC70471C
:1005540080B400AF00BFBD4680BC704780B500AF1B
:1005640000F074F800BF80BD80B400AF00BFBD468A
:1005740080BC7047FFF7F8FF0B480C490C4A002376
:1005840002E0D458C4500433C4188C42F9D3094A45
:10059400094C002301E013600432A242FBD301F0B2
:1005A40061F9FFF745FE7047000000200C000020B1
:1005B400141900080C00002074000020FEE700005D
:1005C40080B500AF084B1B68074A43F01003136063
:1005D400032000F02BF90F2000F008F8FFF71AFFB2
:1005E4000023184680BD00BF0020024080B582B0C1
:1005F40000AF7860124B1A68124B1B7819464FF4FF
:100604007A73B3FBF1F3B2FBF3F3184600F035F958
:100614000346002B01D001230EE07B680F2B0AD880
:10062400002279684FF0FF3000F00BF9064A7B682E
:100634001360002300E0012318460837BD4680BD3F
:1006440000000020080000200400002080B400AF57
:10065400054B1B781A46054B1B681344034A136069
:1006640000BFBD4680BC7047080000207000002019
:1006740080B400AF024B1B681846BD4680BC70476F
:100684007000002080B584B000AF7860FFF7F0FF01
:10069400B8607B68FB60FB68B3F1FF3F05D00A4B91
:1006A4001B781A46FB681344FB6000BFFFF7E0FFAA
:1006B4000246BB68D31AFA689A42F7D800BF00BF53
:1006C4001037BD4680BD00BF0800002080B485B04F
:1006D40000AF78607B6803F00703FB600C4BDB68BA
:1006E400BB60BA684FF6FF031340BB60FB681A0295
:1006F400BB68134343F0BF6343F40033BB60044A55
:10070400BB68D36000BF1437BD4680BC704700BFD0
:1007140000ED00E080B400AF044BDB681B0A03F07B
:1007240007031846BD4680BC704700BF00ED00E0DB
:1007340080B483B000AF03463960FB7197F907308A
:10074400002B0ADB3B68DAB20C4997F90730120137
:10075400D2B20B4483F800230AE03B68DAB20849BA
:10076400FB7903F00F03043B1201D2B20B441A7657
:1007740000BF0C37BD4680BC704700BF00E100E0FD
:1007840000ED00E080B489B000AFF860B9607A6031
:10079400FB6803F00703FB61FB69C3F10703042B48
:1007A40028BF0423BB61FB690433062B02D9FB6910
:1007B400033B00E000237B614FF0FF32BB6902FA88
:1007C40003F3DA43BB681A407B699A404FF0FF3168
:1007D4007B6901FA03F3D9437B680B401343184642
:1007E4002437BD4680BC704780B582B000AF7860C6
:1007F4007B68013BB3F1807F01D301230FE00A4AF8
:100804007B68013B53600F214FF0FF30FFF790FFEF
:10081400054B00229A60044B07221A6000231846F5
:100824000837BD4680BD00BF10E000E080B582B04F
:1008340000AF78607868FFF749FF00BF0837BD460E
:1008440080BD80B586B000AF0346B9607A60FB73A3
:1008540000237B61FFF75EFF78617A68B968786985
:10086400FFF790FF024697F90F3011461846FFF73D
:100874005FFF00BF1837BD4680BD80B582B000AFB2
:1008840078607868FFF7B0FF034618460837BD461E
:1008940080BD000080B48BB000AF78603960002365
:1008A4007B6200233B6279E101227B6A02FA03F353
:1008B400FB613B681B68FA691340BB61BA69FB6959
:1008C4009A4240F068813B685B68964A93425ED0E6
:1008D400944A934275D8944A934258D0924A934288
:1008E4006FD8924A934252D0904A934269D8904A20
:1008F40093424CD08E4A934263D88E4A934246D058
:100904008C4A93425DD8122B2AD8122B59D801A2B3
:1009140052F823F0930900086D0900087F090008C4
:10092400C1090008C7090008C7090008C709000869
:10093400C7090008C7090008C7090008C709000853
:10094400C7090008C7090008C7090008C709000843
:10095400C7090008C70900087509000889090008C3
:10096400754A934213D02CE03B68DB683B6229E074
:100974003B68DB6804333B6224E03B68DB68083394
:100984003B621FE03B68DB680C333B621AE03B6868
:100994009B68002B02D104233B6213E03B689B68F5
:1009A400012B05D108233B627B68FA691A6109E0CF
:1009B40008233B627B68FA695A6103E000233B62C7
:1009C40000E000BFBB69FF2B01D87B6801E07B68B6
:1009D40004337B61BB69FF2B02D87B6A9B0002E076
:1009E4007B6A083B9B003B617B691A680F213B696A
:1009F40001FA03F3DB431A40396A3B6901FA03F352
:100A04001A437B691A603B685B6803F08053002BD0
:100A140000F0C180494B9B69484A43F0010393614C
:100A2400464B9B6903F00103BB60BB68444A7B6A85
:100A34009B08023352F82330FB607B6A03F0030304
:100A44009B000F2202FA03F3DB43FA681340FB60B6
:100A54007B683C4A93421FD07B683B4A934219D03F
:100A64007B683A4A934213D07B68394A93420DD04B
:100A74007B68384A934207D07B68374A934201D156
:100A840005230AE0062308E0042306E0032304E028
:100A9400022302E0012300E000237A6A02F0030249
:100AA40092009340FA681343FB6025497B6A9B08D4
:100AB4000233FA6841F823203B685B6803F480132F
:100AC400002B06D0254B9A682449BB6913438B60DD
:100AD40006E0224B9A68BB69DB43204913408B60D4
:100AE4003B685B6803F40013002B06D01B4BDA68E9
:100AF4001A49BB691343CB6006E0184BDA68BB693B
:100B0400DB4316491340CB603B685B6803F4003356
:100B1400002B25D0114B5A681049BB6913434B6015
:100B240025E000BF00003210000031100000221048
:100B340000002110000012100000111000100240EB
:100B44000000014000080140000C01400010014079
:100B54000014014000180140001C01400004014041
:100B6400154B5A68BB69DB43134913404B603B6820
:100B74005B6803F48033002B06D00F4B1A680E49D0
:100B8400BB6913430B6006E00B4B1A68BB69DB437C
:100B9400094913400B607B6A01337B623B681A6826
:100BA4007B6A22FA03F3002B7FF47EAE00BF00BF02
:100BB4002C37BD4680BC70470004014080B483B02C
:100BC40000AF78600B467B8013467B707B78002BEC
:100BD40003D07A887B681A6103E07B881A047B68F7
:100BE4001A6100BF0C37BD4680BC704780B586B023
:100BF40000AF78607B68002B01D1012372E27B682F
:100C04001B6803F00103002B00F08780924B5B68A4
:100C140003F00C03042B0CD08F4B5B6803F00C0324
:100C2400082B12D18C4B5B6803F48033B3F5803FFF
:100C34000BD1894B1B6803F40033002B6CD07B6809
:100C44005B68002B68D101234CE27B685B68B3F5D9
:100C5400803F06D1804B1B687F4A43F48033136086
:100C64002EE07B685B68002B0CD17B4B1B687A4AB7
:100C740023F480331360784B1B68774A23F4802372
:100C840013601DE07B685B68B3F5A02F0CD1724B39
:100C94001B68714A43F4802313606F4B1B686E4AD0
:100CA40043F4803313600BE06B4B1B686A4A23F4F4
:100CB40080331360684B1B68674A23F480231360F6
:100CC4007B685B68002B13D0FFF7D2FC386108E027
:100CD400FFF7CEFC02463B69D31A642B01D90323E8
:100CE40000E25D4B1B6803F40033002BF0D014E0EA
:100CF400FFF7BEFC386108E0FFF7BAFC02463B6927
:100D0400D31A642B01D90323ECE1534B1B6803F47E
:100D14000033002BF0D100E000BF7B681B6803F0B8
:100D24000203002B63D04C4B5B6803F00C03002BD5
:100D34000BD0494B5B6803F00C03082B1CD1464BCA
:100D44005B6803F48033002B16D1434B1B6803F01C
:100D54000203002B05D07B681B69012B01D0012302
:100D6400C0E13D4B1B6823F0F8027B685B69DB0044
:100D7400394913430B603AE07B681B69002B20D090
:100D8400364B01221A60FFF773FC386108E0FFF765
:100D94006FFC02463B69D31A022B01D90323A1E15C
:100DA4002D4B1B6803F00203002BF0D02A4B1B6869
:100DB40023F0F8027B685B69DB00274913430B606F
:100DC40015E0264B00221A60FFF752FC386108E058
:100DD400FFF74EFC02463B69D31A022B01D90323C9
:100DE40080E11D4B1B6803F00203002BF0D17B68EC
:100DF4001B6803F00803002B3AD07B689B69002B27
:100E040019D0174B01221A60FFF732FC386108E051
:100E1400FFF72EFC02463B69D31A022B01D90323A8
:100E240060E10D4B5B6A03F00203002BF0D001205C
:100E340000F0CEFA1CE00A4B00221A60FFF718FCFF
:100E440038610FE0FFF714FC02463B69D31A022B0A
:100E540008D9032346E100BF0010024000004242CB
:100E640080044242924B5B6A03F00203002BE9D1F7
:100E74007B681B6803F00403002B00F0A6800023AA
:100E8400FB758B4BDB6903F08053002B0DD1884B32
:100E9400DB69874A43F08053D361854BDB6903F0F8
:100EA4008053BB60BB680123FB75824B1B6803F452
:100EB4008073002B18D17F4B1B687E4A43F48073E8
:100EC4001360FFF7D5FB386108E0FFF7D1FB02465A
:100ED4003B69D31A642B01D9032303E1754B1B68C7
:100EE40003F48073002BF0D07B68DB68012B06D100
:100EF4006F4B1B6A6E4A43F0010313622DE07B685B
:100F0400DB68002B0CD16A4B1B6A694A23F001038E
:100F14001362674B1B6A664A23F0040313621CE0E6
:100F24007B68DB68052B0CD1614B1B6A604A43F07C
:100F3400040313625E4B1B6A5D4A43F001031362B0
:100F44000BE05B4B1B6A5A4A23F001031362584BB4
:100F54001B6A574A23F0040313627B68DB68002B87
:100F640015D0FFF785FB38610AE0FFF781FB0246E5
:100F74003B69D31A41F28832934201D90323B1E089
:100F84004B4B1B6A03F00203002BEED014E0FFF777
:100F94006FFB38610AE0FFF76BFB02463B69D31A2B
:100FA40041F28832934201D903239BE0404B1B6AF0
:100FB40003F00203002BEED1FB7D012B05D13C4B4A
:100FC400DB693B4A23F08053D3617B68DB69002BE8
:100FD40000F08780364B5B6803F00C03082B61D06C
:100FE4007B68DB69022B46D1334B00221A60FFF782
:100FF4003FFB386108E0FFF73BFB02463B69D31A2D
:10100400022B01D903236DE0294B1B6803F0007305
:10101400002BF0D17B681B6AB3F5803F08D1244BC9
:101024005B6823F400327B689B68214913434B605F
:101034001F4B5B6823F474127B68196A7B685B6AD4
:101044000B431B4913434B601B4B01221A60FFF7F0
:101054000FFB386108E0FFF70BFB02463B69D31A2C
:10106400022B01D903233DE0114B1B6803F00073ED
:10107400002BF0D035E0104B00221A60FFF7F8FA8D
:10108400386108E0FFF7F4FA02463B69D31A022BF1
:1010940001D9032326E0064B1B6803F00073002BE1
:1010A400F0D11EE07B68DB69012B07D1012319E035
:1010B4000010024000700040600042420B4B5B682D
:1010C400FB60FB6803F480327B681B6A9A4206D19A
:1010D400FB6803F470127B685B6A9A4201D00123B7
:1010E40000E0002318461837BD4680BD00100240BA
:1010F40080B584B000AF786039607B68002B01D183
:101104000123D0E06A4B1B6803F007033A689A4254
:1011140010D9674B1B6823F0070265493B681343EA
:101124000B60634B1B6803F007033A689A4201D0D3
:101134000123B8E07B681B6803F00203002B20D076
:101144007B681B6803F00403002B05D0594B5B68D4
:10115400584A43F4E06353607B681B6803F0080358
:10116400002B05D0534B5B68524A43F460535360E1
:10117400504B5B6823F0F0027B689B684D49134336
:101184004B607B681B6803F00103002B40D07B6835
:101194005B68012B07D1474B1B6803F40033002B1A
:1011A40015D101237FE07B685B68022B07D1414B9B
:1011B4001B6803F00073002B09D1012373E03D4B3E
:1011C4001B6803F00203002B01D101236BE0394BB0
:1011D4005B6823F003027B685B68364913434B600A
:1011E400FFF746FAF8600AE0FFF742FA0246FB68A6
:1011F400D31A41F28832934201D9032353E02D4B91
:101204005B6803F00C027B685B689B009A42EBD13D
:10121400274B1B6803F007033A689A4210D2244B09
:101224001B6823F0070222493B6813430B60204BE1
:101234001B6803F007033A689A4201D0012332E0A5
:101244007B681B6803F00403002B08D0194B5B6810
:1012540023F4E0627B68DB68164913434B607B68C8
:101264001B6803F00803002B09D0124B5B6823F4BE
:1012740060527B681B69DB000E4913434B6000F02E
:1012840021F802460B4B5B681B0903F00F030A4964
:10129400CB5C22FA03F3094A1360094B1B68184616
:1012A400FFF7A4F9002318461037BD4680BD00BFE0
:1012B4000020024000100240D8180008000000205E
:1012C4000400002080B487B000AF0023FB6000233B
:1012D400BB6000237B6100237B6000233B611E4BCA
:1012E4005B68FB60FB6803F00C03042B02D0082B43
:1012F40003D027E0194B3B6127E0FB689B0C03F00C
:101304000F03174AD35C7B60FB6803F48033002B24
:1013140010D0114B5B685B0C03F00103114AD35CE2
:10132400BB607B680D4A03FB02F2BB68B2FBF3F3BC
:101334007B6104E07B680C4A02FB03F37B617B69FD
:101344003B6102E0054B3B6100BF3B6918461C371B
:10135400BD4680BC704700BF0010024000127A00F6
:10136400F01800080019000800093D0080B400AF1F
:10137400024B1B681846BD4680BC70470000002025
:1013840080B500AFFFF7F2FF0246054B5B681B0A0E
:1013940003F007030349CB5C22FA03F3184680BD2C
:1013A40000100240E818000880B500AFFFF7DEFF28
:1013B4000246054B5B68DB0A03F007030349CB5C79
:1013C40022FA03F3184680BD00100240E818000812
:1013D40080B485B000AF78600A4B1B680A4AA2FB50
:1013E40003235B0A7A6802FB03F3FB6000BFFB681C
:1013F4005A1EFA60002BF9D100BF00BF1437BD4656
:1014040080BC704700000020D34D621080B582B0CC
:1014140000AF78607B68002B01D1012342E07B6838
:1014240093F84130DBB2002B06D17B68002283F8AD
:1014340040207868FFF720F87B68242283F8412055
:101444007B681B68DA687B681B6822F40052DA60E8
:10145400786800F071F97B681B681A697B681B68FF
:1014640022F490421A617B681B685A697B681B6886
:1014740022F02A025A617B681B68DA687B681B6861
:1014840042F40052DA607B6800225A647B682022AE
:1014940083F841207B68202283F842207B68002265
:1014A4005A63002318460837BD4680BD80B58AB00C
:1014B40002AFF860B9603B601346FB8000237B6198
:1014C400FB6893F84130DBB2202B75D1BB68002B4D
:1014D40002D0FB88002B01D101236EE0FB680022BF
:1014E4005A64FB68212283F84120FFF7C1F8786130
:1014F400FB68FA889A84FB68FA88DA84FB689B683C
:10150400B3F5805F08D1FB681B69002B04D100236D
:10151400FB61BB68BB6103E0BB68FB610023BB618B
:101524002EE03B6800937B6900228021F86800F07C
:1015340048F80346002B05D0FB68202283F841209D
:1015440003233AE0FB69002B0BD1BB691B881A46C5
:10155400FB681B68C2F308025A60BB690233BB61B3
:1015640007E0FB691A78FB681B685A60FB69013362
:10157400FB61FB68DB8C9BB2013B9AB2FB68DA84AB
:10158400FB68DB8C9BB2002BCBD13B6800937B695F
:1015940000224021F86800F014F80346002B05D01F
:1015A400FB68202283F84120032306E0FB68202205
:1015B40083F84120002300E0022318462037BD466B
:1015C40080BD80B586B000AFF860B9603B6013465B
:1015D400FB713BE03B6AB3F1FF3F37D0FFF748F8BC
:1015E40002463B68D31A3A6A9A4202D33B6A002BFA
:1015F40001D103233AE0FB681B68DB6803F00403B2
:10160400002B23D0BB68802B20D0BB68402B1DD07F
:10161400FB681B681B6803F00803082B16D1002322
:101624007B61FB681B681B687B61FB681B685B68EC
:101634007B617B69F86800F01DF8FB6808225A6436
:10164400FB68002283F8402001230FE0FB681B683D
:101654001A68BB681340BA689A420CBF012300237E
:10166400DBB21A46FB799A42B4D0002318461837E5
:10167400BD4680BD80B495B000AF78607B681B68C0
:101684000C337B637B6B53E8003F3B633B6B23F47E
:101694009073FB647B681B680C33FA6C3A64FB63DD
:1016A400F96B3A6C41E80023BB63BB6B002BE5D1BB
:1016B4007B681B6814333B623B6A53E8003FFB6161
:1016C400FB6923F00103BB647B681B681433BA6CA9
:1016D400FA62BB62B96AFA6A41E800237B627B6AF8
:1016E400002BE5D17B681B6B012B19D17B681B6830
:1016F4000C33FB60FB6853E8003FBB60BB6823F01E
:1017040010037B647B681B680C337A6CBA617B6161
:101714007969BA6941E800233B613B69002BE5D153
:101724007B68202283F842207B6800221A6300BF72
:101734005437BD4680BC704780B584B000AF786034
:101744007B681B681B6923F440517B68DA687B68FB
:101754001B680A431A617B689A687B681B691A4391
:101764007B685B691343BB607B681B68DB6823F49D
:10177400B05323F00C037A681268B9680B43D36042
:101784007B681B685B6923F440717B689A697B689A
:101794001B680A435A617B681B682C4A934203D135
:1017A400FFF702FEF86002E0FFF7EAFDF860FA686E
:1017B40013469B0013449A001A447B685B689B00A1
:1017C400B2FBF3F3224AA2FB03235B091901FA6873
:1017D40013469B0013449A001A447B685B689B0081
:1017E400B2FBF3F21A4BA3FB02035B09642000FB78
:1017F40003F3D31A1B013233154AA2FB03235B09FB
:1018040003F0F0031944FA6813469B0013449A004A
:101814001A447B685B689B00B2FBF3F20C4BA3FB9E
:1018240002035B09642000FB03F3D31A1B01323368
:10183400074AA2FB03235B0903F00F027B681B68C2
:101844000A449A6000BF1037BD4680BD003801408D
:101854001F85EB5103460244934200D1704703F8BD
:10186400011BF9E770B500260C4D0D4C641BA41048
:10187400A64209D100F01AF800260A4D0A4C641B4E
:10188400A410A64205D170BD55F8043B9847013613
:10189400EEE755F8043B98470136F2E70C190008C7
:1018A4000C1900080C19000810190008F8B500BF3D
:1018B400F8BC08BC9E467047F8B500BFF8BC08BC2D
:0418C4009E46704785
:1018C800486F6C61204D756E646F0D0A0000000052
:1018D80000000000000000000102030406070809D8
:1018E80000000000010203040203040506070809BA
:0C18F8000A0B0C0D0E0F10100102000076
:0819040020E9FF7F0100000053
:04190C0009020008C4
:04191000E5010008E5
:0C19140000127A0010000000010000002A
:040000050800057971
:00000001FF
