:020000040800F2
:1000000000C00020FD0B0008990B0008A10B0008A0
:10001000A90B0008B10B0008B90B00080000000094
:10002000000000000000000000000000C10B0008FC
:10003000CD0B000800000000D90B0008E50B0008FC
:10004000450C0008450C0008450C0008450C00084C
:10005000450C0008450C0008450C0008450C00083C
:10006000450C0008450C0008450C0008450C00082C
:10007000450C0008450C0008450C0008450C00081C
:10008000450C0008450C0008450C0008450C00080C
:10009000450C0008450C0008450C0008450C0008FC
:1000A000450C0008450C0008450C0008450C0008EC
:1000B000450C0008450C0008450C0008450C0008DC
:1000C000450C0008450C0008450C0008450C0008CC
:1000D000450C0008450C0008450C0008450C0008BC
:1000E000450C0008450C0008450C0008450C0008AC
:1000F000450C0008450C0008450C0008450C00089C
:10010000450C0008450C0008450C0008450C00088B
:10011000450C0008450C0008450C0008450C00087B
:10012000450C0008450C0008450C0008450C00086B
:1001300000000000000000000000000000000000BF
:1001400000000000000000000000000000000000AF
:10015000000000000000000000000000000000009F
:10016000000000000000000000000000000000008F
:10017000000000000000000000000000000000007F
:10018000000000000000000000000000000000006F
:10019000000000000000000000000000000000005F
:1001A000000000000000000000000000000000004F
:1001B000000000000000000000000000000000003F
:1001C000000000000000000000000000000000002F
:1001D000000000000000000000000000000000001F
:0401E0005FF8E0F1F3
:1001E40010B5054C237833B9044B13B10448AFF36D
:1001F40000800123237010BD0C00002000000000CB
:10020400DC32000808B5034B1BB103490348AFF3C4
:10021400008008BD0000000010000020DC3200084F
:1002240080B586B004AF0023FB714FF0FF33029317
:1002340001230193FB1D009301236B22D02103486A
:1002440001F05AF900BF0837BD4680BD28000020E0
:1002540080B500AF00F0F6FC00F0A0F800F078FAEA
:1002640000F0D8F800F004F900F05AF900F0ACF905
:1002740000F00EFA00F042FA0021424802F0B4F90C
:100284000421404802F0B0F93C213F4802F008FB49
:100294003C213E4802F004FBFFF7C2FF3C4802F059
:1002A400F3F8012210213B4800F0CAFF002220216C
:1002B400384800F0C5FF334B1B68C8225A63314BE2
:1002C4001B6800229A634FF4FA6000F01DFD0022BF
:1002D4001021304800F0B4FF012220212D4800F005
:1002E400AFFF284B1B68C8225A63264B1B680022A9
:1002F4009A634FF4FA6000F007FD012201212648B9
:1003040000F09EFF00220221234800F099FF1D4BBC
:100314001B6800225A631B4B1B68C8229A634FF464
:10032400FA6000F0F1FC002201211B4800F088FF74
:1003340001220221184800F083FF124B1B6800229F
:100344005A63104B1B68C8229A634FF4FA6000F09A
:10035400DBFC002230210F4800F072FF0022032151
:100364000D4800F06DFF074B1B6800225A63054BD4
:100374001B6800229A634FF4FA6000F0C5FC00BFCA
:100384008FE700BF0C0100207C000020C400002087
:100394005401002000100140000C014080B590B0D1
:1003A40000AF07F1180328220021184602F068FF65
:1003B4003B1D00221A605A609A60DA601A610223B7
:1003C400BB610123BB621023FB6200237B6307F143
:1003D4001803184601F0F8FB0346002B01D000F087
:1003E4002DFA0F237B600023BB600023FB600023F6
:1003F4003B6100237B613B1D0021184601F066FE32
:100404000346002B01D000F019FA00BF4037BD4667
:1004140080BD000080B500AF124B134A1A60114B27
:10042400124A5A600F4B00229A600E4B0022DA6087
:100434000C4B4FF480421A610A4B00225A61094B5B
:1004440000229A61074B0022DA61064B00221A62ED
:10045400044800F00DFF0346002B01D000F0EEF934
:1004640000BF80BD2800002000540040801A060010
:1004740080B58CB000AF07F10C032422002118468C
:1004840002F0FEFE3B1D00221A605A60224B234AF2
:100494001A60214B00225A601F4B00229A601E4BA7
:1004A4004FF6FF72DA601C4B00221A611A4B0022CD
:1004B4005A61194B00229A610123FB6000233B61BE
:1004C40001237B610023BB610023FB6100233B62AA
:1004D40001237B620023BB620023FB6207F10C0350
:1004E40019460D4802F03AF90346002B01D000F0FA
:1004F400A5F900237B600023BB603B1D1946064819
:1005040002F074FD0346002B01D000F097F900BF00
:100514003037BD4680BD00BF7C000020002C014068
:1005240080B58CB000AF07F10C03242200211846DB
:1005340002F0A6FE3B1D00221A605A60214B4FF0C8
:1005440080421A601F4B00225A601E4B00229A60A0
:100554001C4B4FF6FF72DA601A4B00221A61194BDA
:1005640000229A610123FB6000233B6101237B612C
:100574000023BB610023FB6100233B6201237B62F8
:100584000023BB620023FB6207F10C0319460D48EC
:1005940002F0E4F80346002B01D000F04FF90023E9
:1005A4007B600023BB603B1D1946064802F01EFD1C
:1005B4000346002B01D000F041F900BF3037BD469F
:1005C40080BD00BFC400002080B58AB000AF07F131
:1005D400200300221A605A603B1D00221A605A60F0
:1005E4009A60DA601A615A619A61274B274A1A6045
:1005F400254B00225A60244B00229A60224B40F281
:100604008F12DA60204B00221A611F4B00229A617C
:100614001D4801F099FF0346002B01D000F00EF9AC
:1006240000233B6200237B6207F12003194616482E
:1006340002F0DCFC0346002B01D000F0FFF860233D
:100644007B600023BB600023FB6000237B613B1DB8
:10065400002219460C4802F0B1F90346002B01D0E0
:1006640000F0ECF83B1D04221946074802F0A6F9F5
:100674000346002B01D000F0E1F8034800F00CFA27
:1006840000BF2837BD4680BD0C0100200008004093
:1006940080B582B000AF3B4600221A605A60154B09
:1006A400154A1A60134B4F225A60124B00229A606B
:1006B400104B40F2F312DA600E4B00229A610D489F
:1006C40001F092FE0346002B01D000F0B7F800239E
:1006D4003B6000237B603B461946064802F086FCDB
:1006E4000346002B01D000F0A9F800BF0837BD462F
:1006F40080BD00BF540100200010004080B500AF51
:10070400114B124A1A60104B4FF4E1325A600E4BEF
:1007140000229A600C4B0022DA600B4B00221A6113
:10072400094B0C225A61084B00229A61064B0022A5
:10073400DA61054802F0C6FC0346002B01D000F044
:100744007DF800BF80BD00BF9C0100200048004030
:1007540080B58AB000AF07F1140300221A605A6012
:100764009A60DA60314B9B69304A43F0010393612C
:100774002E4B9B6903F001033B613B692C4B5B6887
:100784007B627B6A23F0E0637B62294A7B6A536065
:10079400264B9B69254A43F004039361234B9B69D1
:1007A40003F00403FB60FB68204B9B691F4A43F082
:1007B400100393611D4B9B6903F01003BB60BB687E
:1007C4001A4B9B69194A43F008039361174B9B69C1
:1007D40003F008037B607B6800223021154800F099
:1007E4002FFD00220321144800F02AFD30237B61F1
:1007F4000123BB610023FB6102233B6207F1140365
:1008040019460C4800F088FB03237B610123BB617C
:100814000023FB6102233B6207F1140319460648D7
:1008240000F07AFB00BF2837BD4680BD00100240AF
:100834000000014000100140000C014080B400AFF2
:1008440072B600BF00BFFDE780B485B000AF154BA2
:100854009B69144A43F001039361124B9B6903F0B3
:100864000103BB60BB680F4BDB690E4A43F0805346
:10087400D3610C4BDB6903F080537B607B680A4BCC
:100884005B68FB60FB6823F0E063FB60FB6843F09C
:100894008063FB60044AFB68536000BF1437BD46A5
:1008A40080BC7047001002400000014080B58AB04F
:1008B40000AF786007F1140300221A605A609A604E
:1008C400DA607B681B681D4A934232D11C4B9B69DA
:1008D4001B4A43F008039361194B9B6903F0080317
:1008E4003B613B694FF440737B611223BB6103237B
:1008F4003B6207F114031946124800F00DFB124B3A
:100904005B687B627B6A43F0E0637B627B6A43F0F3
:1009140002037B620C4A7B6A5360094BDB69084A19
:1009240043F40013D361064BDB6903F40013FB604B
:10093400FB6800BF2837BD4680BD00BF005400409F
:1009440000100240000C01400000014080B58AB054
:1009540000AF786007F1180300221A605A609A60A9
:10096400DA607B681B682B4A934225D12A4B9B692A
:10097400294A43F400639361274B9B6903F40063A2
:100984007B617B69244B9B69234A43F00403936195
:10099400214B9B6903F004033B613B694FF44073B3
:1009A400BB610023FB6100233B6207F11803194676
:1009B4001A4800F0B1FA28E07B681B68B3F1804F55
:1009C40023D1154BDB69144A43F00103D361124B65
:1009D400DB6903F00103FB60FB680F4B9B690E4A64
:1009E40043F0040393610C4B9B6903F00403BB6065
:1009F400BB680323BB610023FB6100233B6207F157
:100A040018031946054800F087FA00BF2837BD4689
:100A140080BD00BF002C01400010024000080140CE
:100A240080B485B000AF78607B681B68094A934244
:100A34000BD1094BDB69084A43F00403D361064B2D
:100A4400DB6903F00403FB60FB6800BF1437BD4699
:100A540080BC7047000800400010024080B485B09C
:100A640000AF78607B681B68094A93420BD1094B3D
:100A7400DB69084A43F01003D361064BDB6903F0DA
:100A84001003FB60FB6800BF1437BD4680BC704791
:100A9400001000400010024080B588B000AF7860BC
:100AA40007F1100300221A605A609A60DA607B68CA
:100AB4001B680F4A934217D10E4B9B690D4A43F0B2
:100AC400080393610B4B9B6903F00803FB60FB680D
:100AD400C0233B6102237B610223FB6107F1100306
:100AE4001946054800F018FA00BF2037BD4680BDFE
:100AF4000008004000100240000C014080B588B09E
:100B040000AF786007F1100300221A605A609A60FF
:100B1400DA607B681B681C4A934231D11B4BDB694A
:100B24001A4A43F48023D361184BDB6903F480230E
:100B3400FB60FB68154B9B69144A43F008039361FF
:100B4400124B9B6903F00803BB60BB684FF48063DE
:100B54003B6102237B610323FB6107F11003194608
:100B64000B4800F0D9F94FF400633B6100237B612B
:100B74000023BB6107F110031946054800F0CCF9C6
:100B840000BF2037BD4680BD004800400010024031
:100B9400000C014080B400AF00BFFDE780B400AF9B
:100BA40000BFFDE780B400AF00BFFDE780B400AF35
:100BB40000BFFDE780B400AF00BFFDE780B400AF25
:100BC40000BFBD4680BC704780B400AF00BFBD46C7
:100BD40080BC704780B400AF00BFBD4680BC704786
:100BE40080B500AF00F074F800BF80BD80B400AFE2
:100BF40000BFBD4680BC7047FFF7F8FF0B480C49A7
:100C04000C4A002302E0D458C4500433C4188C4264
:100C1400F9D3094A094C002301E013600432A242CB
:100C2400FBD302F035FBFFF713FB704700000020F5
:100C34000C000020283300080C000020E8010020EC
:100C4400FEE7000080B500AF084B1B68074A43F07D
:100C540010031360032000F02BF90F2000F008F8B4
:100C6400FFF7F2FD0023184680BD00BF00200240BC
:100C740080B582B000AF7860124B1A68124B1B78B3
:100C840019464FF47A73B3FBF1F3B2FBF3F318464E
:100C940000F035F90346002B01D001230EE07B68F8
:100CA4000F2B0AD8002279684FF0FF3000F00BF9BF
:100CB400064A7B681360002300E0012318460837C6
:100CC400BD4680BD00000020080000200400002074
:100CD40080B400AF054B1B781A46054B1B681344C0
:100CE400034A136000BFBD4680BC70470800002063
:100CF400E401002080B400AF024B1B681846BD46D7
:100D040080BC7047E401002080B584B000AF7860F7
:100D1400FFF7F0FFB8607B68FB60FB68B3F1FF3F4F
:100D240005D00A4B1B781A46FB681344FB6000BFCE
:100D3400FFF7E0FF0246BB68D31AFA689A42F7D875
:100D440000BF00BF1037BD4680BD00BF08000020B3
:100D540080B485B000AF78607B6803F00703FB6064
:100D64000C4BDB68BB60BA684FF6FF031340BB60F3
:100D7400FB681A02BB68134343F0BF6343F40033B8
:100D8400BB60044ABB68D36000BF1437BD4680BC57
:100D9400704700BF00ED00E080B400AF044BDB6897
:100DA4001B0A03F007031846BD4680BC704700BF0A
:100DB40000ED00E080B483B000AF03463960FB71FE
:100DC40097F90730002B0ADB3B68DAB20C4997F934
:100DD40007301201D2B20B4483F800230AE03B68C7
:100DE400DAB20849FB7903F00F03043B1201D2B2D3
:100DF4000B441A7600BF0C37BD4680BC704700BF59
:100E040000E100E000ED00E080B489B000AFF860DC
:100E1400B9607A60FB6803F00703FB61FB69C3F107
:100E24000703042B28BF0423BB61FB690433062B8F
:100E340002D9FB69033B00E000237B614FF0FF32E2
:100E4400BB6902FA03F3DA43BB681A407B699A4030
:100E54004FF0FF317B6901FA03F3D9437B680B4000
:100E6400134318462437BD4680BC704780B582B012
:100E740000AF78607B68013BB3F1807F01D301232D
:100E84000FE00A4A7B68013B53600F214FF0FF30AB
:100E9400FFF790FF054B00229A60044B07221A606B
:100EA400002318460837BD4680BD00BF10E000E0AF
:100EB40080B582B000AF78607868FFF749FF00BF63
:100EC4000837BD4680BD80B586B000AF0346B96023
:100ED4007A60FB7300237B61FFF75EFF78617A68B9
:100EE400B9687869FFF790FF024697F90F30114609
:100EF4001846FFF75FFF00BF1837BD4680BD80B5B9
:100F040082B000AF78607868FFF7B0FF03461846F8
:100F14000837BD4680BD000080B48BB000AF786058
:100F2400396000237B6200233B6279E101227B6A02
:100F340002FA03F3FB613B681B68FA691340BB6167
:100F4400BA69FB699A4240F068813B685B68964ADB
:100F540093425ED0944A934275D8944A934258D0AF
:100F6400924A93426FD8924A934252D0904A934203
:100F740069D8904A93424CD08E4A934263D88E4AA1
:100F8400934246D08C4A93425DD8122B2AD8122B16
:100F940059D801A252F823F017100008F10F0008E5
:100FA40003100008451000084B1000084B100008FF
:100FB4004B1000084B1000084B1000084B100008A1
:100FC4004B1000084B1000084B1000084B10000891
:100FD4004B1000084B1000084B100008F90F0008D4
:100FE4000D100008754A934213D02CE03B68DB686F
:100FF4003B6229E03B68DB6804333B6224E03B68E6
:10100400DB6808333B621FE03B68DB680C333B6200
:101014001AE03B689B68002B02D104233B6213E077
:101024003B689B68012B05D108233B627B68FA6906
:101034001A6109E008233B627B68FA695A6103E09C
:1010440000233B6200E000BFBB69FF2B01D87B6833
:1010540001E07B6804337B61BB69FF2B02D87B6AA8
:101064009B0002E07B6A083B9B003B617B691A683A
:101074000F213B6901FA03F3DB431A40396A3B69E8
:1010840001FA03F31A437B691A603B685B6803F057
:101094008053002B00F0C180494B9B69484A43F0C0
:1010A40001039361464B9B6903F00103BB60BB687A
:1010B400444A7B6A9B08023352F82330FB607B6A04
:1010C40003F003039B000F2202FA03F3DB43FA68E5
:1010D4001340FB607B683C4A93421FD07B683B4AC9
:1010E400934219D07B683A4A934213D07B68394AB9
:1010F40093420DD07B68384A934207D07B68374AC5
:10110400934201D105230AE0062308E0042306E004
:10111400032304E0022302E0012300E000237A6AAF
:1011240002F0030292009340FA681343FB602549DE
:101134007B6A9B080233FA6841F823203B685B68AA
:1011440003F48013002B06D0254B9A682449BB690D
:1011540013438B6006E0224B9A68BB69DB4320494A
:1011640013408B603B685B6803F40013002B06D0CC
:101174001B4BDA681A49BB691343CB6006E0184B72
:10118400DA68BB69DB4316491340CB603B685B6894
:1011940003F40033002B25D0114B5A681049BB6966
:1011A40013434B6025E000BF0000321000003110F3
:1011B4000000221000002110000012100000111085
:1011C400001002400000014000080140000C0140F2
:1011D400001001400014014000180140001C0140AF
:1011E40000040140154B5A68BB69DB4313491340A3
:1011F4004B603B685B6803F48033002B06D00F4BD5
:101204001A680E49BB6913430B6006E00B4B1A685E
:10121400BB69DB43094913400B607B6A01337B6282
:101224003B681A687B6A22FA03F3002B7FF47EAED4
:1012340000BF00BF2C37BD4680BC7047000401408E
:1012440080B483B000AF78600B467B8013467B701C
:101254007B78002B03D07A887B681A6103E07B8853
:101264001A047B681A6100BF0C37BD4680BC704706
:1012740080B584B000AF78607B68002B01D1012376
:101284002BE17B6893F83D30DBB2002B06D17B6801
:10129400002283F83C207868FFF708FB7B6824224F
:1012A40083F83D207B681B681A687B681B6822F002
:1012B40001021A607B681B681A687B681B6842F429
:1012C40000421A607B681B681A687B681B6822F4FA
:1012D40000421A6001F042F8F8607B685B68814A5A
:1012E400934207D8FB68804A934294BF01230023AA
:1012F400DBB206E0FB687D4A934294BF01230023DE
:10130400DBB2002B01D00123E7E0FB68784AA2FBA3
:1013140003239B0CBB607B681B685B6823F03F0165
:101324007B681B68BA680A435A607B681B681B6A3F
:1013340023F03F017B685B686A4A934202D8BB682A
:10134400013309E0BB684FF4967202FB03F3694A68
:10135400A2FB03239B0901337A6812680B431362CF
:101364007B681B68DB6923F44F4222F0FF027B6831
:101374005B685C498B4219D8FB68591E7B685B68C3
:101384005B00B1FBF3F3591C40F6FC730B40002BDC
:101394000AD0FB68591E7B685B685B00B1FBF3F302
:1013A4000133C3F30B0351E004234FE07B689B68D4
:1013B400002B11D1FB68581E7B6859680B465B00F3
:1013C4000B44B0FBF3F30133C3F30B03002B0CBF4B
:1013D40001230023DBB212E0FB68581E7B685968C6
:1013E4000B469B000B4499000B44B0FBF3F3013311
:1013F400C3F30B03002B0CBF01230023DBB2002B30
:1014040001D0012322E07B689B68002B0ED1FB688E
:10141400581E7B6859680B465B000B44B0FBF3F322
:101424000133C3F30B0343F400430FE0FB68581E7E
:101434007B6859680B469B000B4499000B44B0FB36
:10144400F3F30133C3F30B0343F4404379680968AE
:101454001343CB617B681B681B6823F0C0017B6866
:10146400DA697B681B6A1A437B681B680A431A6043
:101474007B681B689B6823F4034323F0FF037A68AB
:1014840011697A68D26811437A6812680B439360D1
:101494007B681B68DB6823F0FF017B685A697B6803
:1014A4009B691A437B681B680A43DA607B681B6884
:1014B4001A687B681B6842F001021A607B6800228C
:1014C4001A647B68202283F83D207B6800221A631B
:1014D4007B68002283F83E20002318461037BD465F
:1014E40080BD00BFA08601007F841E00FF083D0070
:1014F40083DE1B43D34D621080B588B002AFF86021
:10150400084611461A4603467B810B463B81134627
:10151400FB80FFF7EFFB7861FB6893F83D30DBB2AB
:10152400202B40F0D9807B690093192301226D4957
:10153400F86800F071F90346002B01D00223CCE0D7
:10154400FB6893F83C30012B01D10223C5E0FB6812
:10155400012283F83C20FB681B681B6803F001032D
:10156400012B07D0FB681B681A68FB681B6842F0F4
:1015740001021A60FB681B681A68FB681B6822F486
:1015840000621A60FB68212283F83D20FB68402238
:1015940083F83E20FB6800221A64FB683A6A5A62A8
:1015A400FB68BA8C5A85FB685B8D9AB2FB681A8516
:1015B400FB684D4ADA62F8883A8979897B69019334
:1015C400BB6A00930346F86800F090F80346002BCA
:1015D40052D0012381E07A69B96AF86800F036FADA
:1015E4000346002B0DD0FB681B6C042B07D1FB6852
:1015F4001B681A68FB681B6842F400721A600123B6
:101604006BE0FB685B6A1A78FB681B681A61FB680D
:101614005B6A5A1CFB685A62FB681B8D013B9AB2D9
:10162400FB681A85FB685B8D9BB2013B9AB2FB6831
:101634005A85FB681B685B6903F00403042B1BD108
:10164400FB681B8D002B17D0FB685B6A1A78FB685C
:101654001B681A61FB685B6A5A1CFB685A62FB6868
:101664001B8D013B9AB2FB681A85FB685B8D9BB2AC
:10167400013B9AB2FB685A85FB681B8D002BAAD1EB
:101684007A69B96AF86800F029FA0346002B0DD08C
:10169400FB681B6C042B07D1FB681B681A68FB688A
:1016A4001B6842F400721A60012316E0FB681B6891
:1016B4001A68FB681B6842F400721A60FB682022F7
:1016C40083F83D20FB68002283F83E20FB6800225B
:1016D40083F83C20002300E0022318461837BD4657
:1016E40080BD00BF020010000000FFFF80B588B07D
:1016F40002AFF860084611461A4603467B810B4642
:101704003B811346FB80FB681B681A68FB681B68F7
:1017140042F480721A607B6A00933B6A00224FF0A5
:101724000111F86800F078F80346002B0DD0FB682F
:101734001B681B6803F48073B3F5807F03D1FB68D7
:101744004FF400721A6403235FE07B89DBB21A460C
:10175400FB681B6802F0FE021A617B6A3A6A2D4933
:10176400F86800F0D3F80346002B01D001234CE0C5
:1017740000237B61FB681B685B697B61FB681B68FA
:101784009B697B617B697A6A396AF86800F05EF963
:101794000346002B0DD0FB681B6C042B07D1FB68A0
:1017A4001B681A68FB681B6842F400721A60012304
:1017B4002BE0FB88012B05D13B89DAB2FB681B685F
:1017C4001A6121E03B891B0A9BB2DAB2FB681B68F1
:1017D4001A617A6A396AF86800F038F90346002B0E
:1017E4000DD0FB681B6C042B07D1FB681B681A68BF
:1017F400FB681B6842F400721A60012305E03B8910
:10180400DAB2FB681B681A61002318461837BD4614
:1018140080BD00BF0200010080B584B000AFF86055
:10182400B9603B601346FB7148E03B68B3F1FF3F8E
:1018340044D0FFF75FFA0246BB69D31A3A689A426A
:1018440002D33B68002B39D1BB681B0CDBB2012BE4
:101854000DD1FB681B685B69DA43BB6813409BB21C
:10186400002B0CBF01230023DBB21A460CE0FB68FB
:101874001B689B69DA43BB6813409BB2002B0CBF07
:1018840001230023DBB21A46FB799A4216D1FB6886
:1018940000221A63FB68202283F83D20FB680022A3
:1018A40083F83E20FB681B6C43F02002FB681A643B
:1018B400FB68002283F83C20012323E0BB681B0C57
:1018C400DBB2012B0DD1FB681B685B69DA43BB6893
:1018D40013409BB2002B0CBF01230023DBB21A463A
:1018E4000CE0FB681B689B69DA43BB6813409BB23E
:1018F400002B0CBF01230023DBB21A46FB799A426A
:1019040093D0002318461037BD4680BD80B584B0FF
:1019140000AFF860B9607A603B6071E0FB681B68F7
:101924005B6903F48063B3F5806F23D1FB681B68A4
:101934001A68FB681B6842F400721A60FB681B6833
:101944006FF480625A61FB6800221A63FB682022EC
:1019540083F83D20FB68002283F83E20FB681B6C63
:1019640043F00402FB681A64FB68002283F83C20FD
:10197400012367E07B68B3F1FF3F41D0FFF7BAF979
:1019840002463B68D31A7A689A4202D37B68002BDA
:1019940036D1BB681B0CDBB2012B0CD1FB681B6876
:1019A4005B69DA43BB6813409BB2002B14BF01236D
:1019B4000023DBB20BE0FB681B689B69DA43BB685E
:1019C40013409BB2002B14BF01230023DBB2002B76
:1019D40016D0FB6800221A63FB68202283F83D209E
:1019E400FB68002283F83E20FB681B6C43F0200256
:1019F400FB681A64FB68002283F83C20012321E081
:101A0400BB681B0CDBB2012B0CD1FB681B685B6948
:101A1400DA43BB6813409BB2002B14BF012300239D
:101A2400DBB20BE0FB681B689B69DA43BB681340BD
:101A34009BB2002B14BF01230023DBB2002B7FF4E5
:101A44006DAF002318461037BD4680BD80B584B005
:101A540000AFF860B9607A6034E0F86800F086F8A6
:101A64000346002B01D0012334E0BB68B3F1FF3FF0
:101A740028D0FFF73FF902467B68D31ABA689A4226
:101A840002D3BB68002B1DD1FB681B685B6903F0A4
:101A94008003802B16D0FB6800221A63FB68202287
:101AA40083F83D20FB68002283F83E20FB681B6C12
:101AB40043F02002FB681A64FB68002283F83C2090
:101AC400012307E0FB681B685B6903F08003802B3C
:101AD400C3D1002318461037BD4680BD80B584B0FD
:101AE40000AFF860B9607A6034E0F86800F03EF85E
:101AF4000346002B01D0012334E0BB68B3F1FF3F60
:101B040028D0FFF7F7F802467B68D31ABA689A42DE
:101B140002D3BB68002B1DD1FB681B685B6903F013
:101B24000403042B16D0FB6800221A63FB682022EE
:101B340083F83D20FB68002283F83E20FB681B6C81
:101B440043F02002FB681A64FB68002283F83C20FF
:101B5400012307E0FB681B685B6903F00403042BA3
:101B6400C3D1002318461037BD4680BD80B483B06E
:101B740000AF78607B681B685B6903F48063B3F52E
:101B8400806F1BD17B681B686FF480625A617B682D
:101B940000221A637B68202283F83D207B680022A0
:101BA40083F83E207B681B6C43F004027B681A6454
:101BB4007B68002283F83C20012300E000231846C0
:101BC4000C37BD4680BC704780B586B000AF7860E6
:101BD4007B68002B01D1012372E27B681B6803F050
:101BE4000103002B00F08780924B5B6803F00C0329
:101BF400042B0CD08F4B5B6803F00C03082B12D121
:101C04008C4B5B6803F48033B3F5803F0BD1894B75
:101C14001B6803F40033002B6CD07B685B68002BDB
:101C240068D101234CE27B685B68B3F5803F06D141
:101C3400804B1B687F4A43F4803313602EE07B683B
:101C44005B68002B0CD17B4B1B687A4A23F48033EE
:101C54001360784B1B68774A23F4802313601DE0DC
:101C64007B685B68B3F5A02F0CD1724B1B68714A7B
:101C740043F4802313606F4B1B686E4A43F4803334
:101C840013600BE06B4B1B686A4A23F480331360C8
:101C9400684B1B68674A23F4802313607B685B6886
:101CA400002B13D0FFF726F8386108E0FFF722F87D
:101CB40002463B69D31A642B01D9032300E25D4B2E
:101CC4001B6803F40033002BF0D014E0FFF712F884
:101CD400386108E0FFF70EF802463B69D31A642B1B
:101CE40001D90323ECE1534B1B6803F40033002BAD
:101CF400F0D100E000BF7B681B6803F00203002BF7
:101D040063D04C4B5B6803F00C03002B0BD0494BA6
:101D14005B6803F00C03082B1CD1464B5B6803F48F
:101D24008033002B16D1434B1B6803F00203002BB6
:101D340005D07B681B69012B01D00123C0E13D4B19
:101D44001B6823F0F8027B685B69DB0039491343A5
:101D54000B603AE07B681B69002B20D0364B0122D4
:101D64001A60FEF7C7FF386108E0FEF7C3FF0246BA
:101D74003B69D31A022B01D90323A1E12D4B1B6824
:101D840003F00203002BF0D02A4B1B6823F0F80267
:101D94007B685B69DB00274913430B6015E0264B26
:101DA40000221A60FEF7A6FF386108E0FEF7A2FFE2
:101DB40002463B69D31A022B01D9032380E11D4B50
:101DC4001B6803F00203002BF0D17B681B6803F04F
:101DD4000803002B3AD07B689B69002B19D0174B62
:101DE40001221A60FEF786FF386108E0FEF782FFE1
:101DF40002463B69D31A022B01D9032360E10D4B40
:101E04005B6A03F00203002BF0D0012000F0CEFA4D
:101E14001CE00A4B00221A60FEF76CFF38610FE0E9
:101E2400FEF768FF02463B69D31A022B08D9032345
:101E340046E100BF001002400000424280044242DA
:101E4400924B5B6A03F00203002BE9D17B681B68A9
:101E540003F00403002B00F0A6800023FB758B4BDA
:101E6400DB6903F08053002B0DD1884BDB69874A73
:101E740043F08053D361854BDB6903F08053BB602F
:101E8400BB680123FB75824B1B6803F48073002B32
:101E940018D17F4B1B687E4A43F480731360FEF7AE
:101EA40029FF386108E0FEF725FF02463B69D31A93
:101EB400642B01D9032303E1754B1B6803F480737E
:101EC400002BF0D07B68DB68012B06D16F4B1B6ABB
:101ED4006E4A43F0010313622DE07B68DB68002B3C
:101EE4000CD16A4B1B6A694A23F001031362674BE6
:101EF4001B6A664A23F0040313621CE07B68DB68F8
:101F0400052B0CD1614B1B6A604A43F00403136236
:101F14005E4B1B6A5D4A43F0010313620BE05B4BAB
:101F24001B6A5A4A23F001031362584B1B6A574A2F
:101F340023F0040313627B68DB68002B15D0FEF7E3
:101F4400D9FE38610AE0FEF7D5FE02463B69D31A92
:101F540041F28832934201D90323B1E04B4B1B6A0F
:101F640003F00203002BEED014E0FEF7C3FE386149
:101F74000AE0FEF7BFFE02463B69D31A41F28832FB
:101F8400934201D903239BE0404B1B6A03F00203F5
:101F9400002BEED1FB7D012B05D13C4BDB693B4A89
:101FA40023F08053D3617B68DB69002B00F08780CA
:101FB400364B5B6803F00C03082B61D07B68DB694C
:101FC400022B46D1334B00221A60FEF793FE386190
:101FD40008E0FEF78FFE02463B69D31A022B01D9B3
:101FE40003236DE0294B1B6803F00073002BF0D131
:101FF4007B681B6AB3F5803F08D1244B5B6823F4EC
:1020040000327B689B68214913434B601F4B5B681C
:1020140023F474127B68196A7B685B6A0B431B495F
:1020240013434B601B4B01221A60FEF763FE3861B9
:1020340008E0FEF75FFE02463B69D31A022B01D982
:1020440003233DE0114B1B6803F00073002BF0D019
:1020540035E0104B00221A60FEF74CFE386108E0B0
:10206400FEF748FE02463B69D31A022B01D903232B
:1020740026E0064B1B6803F00073002BF0D11EE032
:102084007B68DB69012B07D1012319E000100240B2
:1020940000700040600042420B4B5B68FB60FB68D1
:1020A40003F480327B681B6A9A4206D1FB6803F40E
:1020B40070127B685B6A9A4201D0012300E000231E
:1020C40018461837BD4680BD0010024080B584B064
:1020D40000AF786039607B68002B01D10123D0E028
:1020E4006A4B1B6803F007033A689A4210D9674B9E
:1020F4001B6823F0070265493B6813430B60634B7D
:102104001B6803F007033A689A4201D00123B8E040
:102114007B681B6803F00203002B20D07B681B68DC
:1021240003F00403002B05D0594B5B68584A43F471
:10213400E06353607B681B6803F00803002B05D041
:10214400534B5B68524A43F460535360504B5B6893
:1021540023F0F0027B689B684D4913434B607B6816
:102164001B6803F00103002B40D07B685B68012BE4
:1021740007D1474B1B6803F40033002B15D101230F
:102184007FE07B685B68022B07D1414B1B6803F03F
:102194000073002B09D1012373E03D4B1B6803F04E
:1021A4000203002B01D101236BE0394B5B6823F060
:1021B40003027B685B68364913434B60FEF79AFD64
:1021C400F8600AE0FEF796FD0246FB68D31A41F276
:1021D4008832934201D9032353E02D4B5B6803F00B
:1021E4000C027B685B689B009A42EBD1274B1B680F
:1021F40003F007033A689A4210D2244B1B6823F079
:10220400070222493B6813430B60204B1B6803F011
:1022140007033A689A4201D0012332E07B681B68C5
:1022240003F00403002B08D0194B5B6823F4E0622D
:102234007B68DB68164913434B607B681B6803F0BB
:102244000803002B09D0124B5B6823F460527B68AF
:102254001B69DB000E4913434B6000F021F8024672
:102264000B4B5B681B0903F00F030A49CB5C22FA92
:1022740003F3094A1360094B1B681846FEF7F8FC80
:10228400002318461037BD4680BD00BF0020024021
:1022940000100240F4320008000000200400002076
:1022A40080B487B000AF0023FB600023BB60002331
:1022B4007B6100237B6000233B611E4B5B68FB60FA
:1022C400FB6803F00C03042B02D0082B03D027E097
:1022D400194B3B6127E0FB689B0C03F00F03174A83
:1022E400D35C7B60FB6803F48033002B10D0114B6C
:1022F4005B685B0C03F00103114AD35CBB607B6831
:102304000D4A03FB02F2BB68B2FBF3F37B6104E00A
:102314007B680C4A02FB03F37B617B693B6102E04F
:10232400054B3B6100BF3B6918461C37BD4680BC6A
:10233400704700BF0010024000127A000C330008FE
:102344001C33000800093D0080B400AF024B1B6839
:102354001846BD4680BC70470000002080B500AF21
:10236400FFF7F2FF0246054B5B681B0A03F0070305
:102374000349CB5C22FA03F3184680BD00100240E7
:102384000433000880B500AFFFF7DEFF0246054BBB
:102394005B68DB0A03F007030349CB5C22FA03F30F
:1023A400184680BD001002400433000880B485B094
:1023B40000AF78600A4B1B680A4AA2FB03235B0A3E
:1023C4007A6802FB03F3FB6000BFFB685A1EFA60E5
:1023D400002BF9D100BF00BF1437BD4680BC704745
:1023E40000000020D34D621080B582B000AF786049
:1023F4007B68002B01D1012341E07B6893F83D30D9
:10240400DBB2002B06D17B68002283F83C2078687D
:10241400FEF724FB7B68022283F83D207B681A6860
:102424007B6804331946104600F08AFB7B6801225E
:1024340083F846207B68012283F83E207B680122D2
:1024440083F83F207B68012283F840207B680122C7
:1024540083F841207B68012283F842207B680122B3
:1024640083F843207B68012283F844207B6801229F
:1024740083F845207B68012283F83D200023184619
:102484000837BD4680BD000080B485B000AF7860D9
:102494007B6893F83D30DBB2012B01D0012344E08B
:1024A4007B68022283F83D207B681B68DA687B68BE
:1024B4001B6842F00102DA607B681B681D4A934284
:1024C40018D07B681B681C4A934213D07B681B6836
:1024D400B3F1804F0ED07B681B68184A934209D031
:1024E4007B681B68164A934204D07B681B68154AB4
:1024F400934211D17B681B689B6803F00703FB6060
:10250400FB68062B10D07B681B681A687B681B6805
:1025140042F001021A6007E07B681B681A687B6856
:102524001B6842F001021A60002318461437BD46A6
:1025340080BC7047002C014000340140000400407E
:1025440000080040000C004080B582B000AF786005
:102554007B68002B01D1012341E07B6893F83D3077
:10256400DBB2002B06D17B68002283F83C2078681C
:10257400FEF756FA7B68022283F83D207B681A68CE
:102584007B6804331946104600F0DAFA7B680122AE
:1025940083F846207B68012283F83E207B68012271
:1025A40083F83F207B68012283F840207B68012266
:1025B40083F841207B68012283F842207B68012252
:1025C40083F843207B68012283F844207B6801223E
:1025D40083F845207B68012283F83D2000231846B8
:1025E4000837BD4680BD000080B584B000AF786078
:1025F40039603B68002B09D17B6893F83E30DBB22D
:10260400012B14BF01230023DBB222E03B68042B1F
:1026140009D17B6893F83F30DBB2012B14BF01234F
:102624000023DBB215E03B68082B09D17B6893F8E3
:102634004030DBB2012B14BF01230023DBB208E0DE
:102644007B6893F84130DBB2012B14BF01230023D4
:10265400DBB2002B01D0012372E03B68002B04D1D4
:102664007B68022283F83E2013E03B68042B04D1EC
:102674007B68022283F83F200BE03B68082B04D1DF
:102684007B68022283F8402003E07B68022283F8FF
:1026940041207B681B6801223968184600F082FCDF
:1026A4007B681B68284A934204D07B681B68274ACE
:1026B400934201D1012300E00023002B07D07B6863
:1026C4001B685A6C7B681B6842F400425A647B683E
:1026D4001B681D4A934218D07B681B681B4A9342AF
:1026E40013D07B681B68B3F1804F0ED07B681B68E6
:1026F400174A934209D07B681B68164A934204D058
:102704007B681B68144A934211D17B681B689B68E1
:1027140003F00703FB60FB68062B10D07B681B6883
:102724001A687B681B6842F001021A6007E07B6844
:102734001B681A687B681B6842F001021A60002358
:1027440018461037BD4680BD002C014000340140BE
:102754000004004000080040000C004080B586B032
:1027640000AF786039607B68002B01D1012393E0CE
:102774007B6893F83D30DBB2002B06D17B680022E6
:1027840083F83C207868FEF7E1F87B68022283F83E
:102794003D207B681B689B687A68126823F4804339
:1027A40023F0070393607B681A687B680433194637
:1027B400104600F0C5F97B681B689B687B617B68E9
:1027C4001B689B693B617B681B681B6AFB603B68F9
:1027D4001B687A6913437B613B6923F4407323F0DC
:1027E40003033B613B689A683B689B691B02134384
:1027F4003A6913433B613B6923F4406323F00C03C0
:102804003B613B6923F4704323F0F0033B613B6875
:10281400DA683B68DB691B0213433A6913433B6183
:102824003B681B691A013B681B6A1B0313433A6923
:1028340013433B61FB6823F02203FB603B685A6847
:102844003B685B691B011343FA681343FB607B68B5
:102854001B687A699A607B681B683A699A617B682D
:102864001B68FA681A627B68012283F846207B6839
:10287400012283F83E207B68012283F83F207B6895
:10288400012283F842207B68012283F843207B687D
:10289400012283F83D20002318461837BD4680BD29
:1028A40080B584B000AF786039607B6893F83E30BF
:1028B400FB737B6893F83F30BB737B6893F84230BB
:1028C4007B737B6893F843303B733B68002B10D1D8
:1028D400FB7B012B02D17B7B012B01D0012369E01F
:1028E4007B68022283F83E207B68022283F8422020
:1028F40031E03B68042B10D1BB7B012B02D13B7B25
:10290400012B01D0012355E07B68022283F83F208C
:102914007B68022283F843201DE0FB7B012B08D156
:10292400BB7B012B05D17B7B012B02D13B7B012B94
:1029340001D001233EE07B68022283F83E207B68BD
:10294400022283F83F207B68022283F842207B68BE
:10295400022283F843203B68002B03D03B68042BFE
:1029640008D00FE07B681B6801220021184600F0A4
:1029740019FB16E07B681B6801220421184600F04D
:1029840011FB0EE07B681B6801220021184600F051
:1029940009FB7B681B6801220421184600F002FB36
:1029A40000BF7B681B681A687B681B6842F00102E1
:1029B4001A60002318461037BD4680BD80B586B026
:1029C40000AFF860B9607A600023FB75FB6893F888
:1029D4003C30012B01D10223AEE0FB68012283F8D5
:1029E4003C207B680C2B00F29F8001A252F823F05C
:1029F400292A00082D2B00082D2B00082D2B000858
:102A0400692A00082D2B00082D2B00082D2B000807
:102A1400AB2A00082D2B00082D2B00082D2B0008B5
:102A2400EB2A0008FB681B68B968184600F00EF929
:102A3400FB681B689A69FB681B6842F008029A618C
:102A4400FB681B689A69FB681B6822F004029A61A0
:102A5400FB681B689969BB681A69FB681B680A43B1
:102A64009A6164E0FB681B68B968184600F05EF977
:102A7400FB681B689A69FB681B6842F400629A61F0
:102A8400FB681B689A69FB681B6822F480629A6180
:102A9400FB681B689969BB681B691A02FB681B68A1
:102AA4000A439A6143E0FB681B68B968184600F062
:102AB400B1F9FB681B68DA69FB681B6842F008021D
:102AC400DA61FB681B68DA69FB681B6822F00402A0
:102AD400DA61FB681B68D969BB681A69FB681B6803
:102AE4000A43DA6123E0FB681B68B968184600F002
:102AF40005FAFB681B68DA69FB681B6842F400622C
:102B0400DA61FB681B68DA69FB681B6822F480627F
:102B1400DA61FB681B68D969BB681B691A02FB6828
:102B24001B680A43DA6102E00123FB7500BFFB68FE
:102B3400002283F83C20FB7D18461837BD4680BD33
:102B440080B485B000AF786039607B681B68FB6037
:102B54007B68394A934213D07B68384A93420FD03A
:102B64007B68B3F1804F0BD07B68354A934207D022
:102B74007B68344A934203D07B68334A934208D13A
:102B8400FB6823F07003FB603B685B68FA681343DF
:102B9400FB607B68284A934213D07B68274A9342A0
:102BA4000FD07B68B3F1804F0BD07B68244A9342EB
:102BB40007D07B68234A934203D07B68224A93421E
:102BC40008D1FB6823F44073FB603B68DB68FA6858
:102BD4001343FB60FB6823F080023B685B6913438B
:102BE400FB607B68FA681A603B689A687B68DA6203
:102BF4003B681A687B689A627B680F4A934203D0E9
:102C04007B680E4A934203D13B681A697B681A6356
:102C14007B6801225A617B681B6903F00103002B66
:102C240005D07B681B6923F001027B681A6100BF31
:102C34001437BD4680BC7047002C0140003401406D
:102C44000004004000080040000C004080B487B03D
:102C540000AF786039607B681B6A7B617B681B6AA4
:102C640023F001027B681A627B685B683B617B68C6
:102C74009B69FB60FB6823F07003FB60FB6823F037
:102C84000303FB603B681B68FA681343FB607B69C2
:102C940023F002037B613B689B687A6913437B6181
:102CA4007B68204A934203D07B681F4A93420CD12D
:102CB4007B6923F008037B613B68DB687A69134313
:102CC4007B617B6923F004037B617B68154A934233
:102CD40003D07B68144A934211D13B6923F4807377
:102CE4003B613B6923F400733B613B685B693A6970
:102CF40013433B613B689B693A6913433B617B68BF
:102D04003A695A607B68FA689A613B685A687B68DA
:102D14005A637B687A691A6200BF1C37BD4680BC5F
:102D2400704700BF002C01400034014080B487B0DC
:102D340000AF786039607B681B6A7B617B681B6AC3
:102D440023F010027B681A627B685B683B617B68D6
:102D54009B69FB60FB6823F4E043FB60FB6823F49E
:102D64004073FB603B681B681B02FA681343FB60FB
:102D74007B6923F020037B613B689B681B017A69B4
:102D840013437B617B68214A934203D07B68204ACA
:102D940093420DD17B6923F080037B613B68DB6840
:102DA4001B017A6913437B617B6923F040037B61D8
:102DB4007B68164A934203D07B68154A934213D129
:102DC4003B6923F480633B613B6923F400633B610B
:102DD4003B685B699B003A6913433B613B689B69B1
:102DE4009B003A6913433B617B683A695A607B688C
:102DF400FA689A613B685A687B689A637B687A6967
:102E04001A6200BF1C37BD4680BC7047002C0140CD
:102E14000034014080B487B000AF786039607B68CB
:102E24001B6A7B617B681B6A23F480727B681A626D
:102E34007B685B683B617B68DB69FB60FB6823F054
:102E44007003FB60FB6823F00303FB603B681B68B3
:102E5400FA681343FB607B6923F400737B613B686E
:102E64009B681B027A6913437B617B68214A934206
:102E740003D07B68204A93420DD17B6923F400631D
:102E84007B613B68DB681B027A6913437B617B6966
:102E940023F480637B617B68164A934203D07B688A
:102EA400154A934213D13B6923F480533B613B6938
:102EB40023F400533B613B685B691B013A6913438C
:102EC4003B613B689B691B013A6913433B617B6827
:102ED4003A695A607B68FA68DA613B685A687B68C9
:102EE400DA637B687A691A6200BF1C37BD4680BC0E
:102EF400704700BF002C01400034014080B487B00B
:102F040000AF786039607B681B6A3B617B681B6A31
:102F140023F480527B681A627B685B687B617B6800
:102F2400DB69FB60FB6823F4E043FB60FB6823F48C
:102F34004073FB603B681B681B02FA681343FB6029
:102F44003B6923F400533B613B689B681B033A696C
:102F540013433B617B68114A934203D07B68104A58
:102F6400934209D17B6923F480437B613B685B69AD
:102F74009B017A6913437B617B687A695A607B6839
:102F8400FA68DA613B685A687B681A647B683A6954
:102F94001A6200BF1C37BD4680BC7047002C01403C
:102FA4000034014080B487B000AFF860B9607A6043
:102FB400BB6803F01F03012202FA03F37B61FB6881
:102FC4001A6A7B69DB431A40FB681A62FB681A6A57
:102FD400BB6803F01F03796801FA03F31A43FB6823
:102FE4001A6200BF1C37BD4680BC704780B485B0F0
:102FF40000AF786039607B6893F83C30012B01D1D5
:10300400022350E07B68012283F83C207B68022283
:1030140083F83D207B681B685B68FB607B681B68EA
:103024009B68BB60FB6823F07003FB603B681B6814
:10303400FA681343FB607B681B68FA685A607B6814
:103044001B681B4A934218D07B681B68194A934239
:1030540013D07B681B68B3F1804F0ED07B681B686C
:10306400154A934209D07B681B68144A934204D0E2
:103074007B681B68124A93420CD1BB6823F080031F
:10308400BB603B685B68BA681343BB607B681B68C2
:10309400BA689A607B68012283F83D207B6800222D
:1030A40083F83C20002318461437BD4680BC704783
:1030B400002C01400034014000040040000800409E
:1030C400000C004080B582B000AF78607B68002BB4
:1030D40001D1012342E07B6893F84130DBB2002B3D
:1030E40006D17B68002283F840207868FDF706FD4E
:1030F4007B68242283F841207B681B68DA687B683C
:103104001B6822F40052DA60786800F02BF87B68C0
:103114001B681A697B681B6822F490421A617B68F9
:103124001B685A697B681B6822F02A025A617B6813
:103134001B68DA687B681B6842F40052DA607B68BB
:1031440000225A647B68202283F841207B68202275
:1031540083F842207B6800225A630023184608370C
:10316400BD4680BD80B584B000AF78607B681B68C5
:103174001B6923F440517B68DA687B681B680A4347
:103184001A617B689A687B681B691A437B685B6970
:103194001343BB607B681B68DB6823F4B05323F0E4
:1031A4000C037A681268B9680B43D3607B681B68A8
:1031B4005B6923F440717B689A697B681B680A43E6
:1031C4005A617B681B682C4A934203D1FFF7DAF8F3
:1031D400F86002E0FFF7C2F8F860FA6813469B0053
:1031E40013449A001A447B685B689B00B2FBF3F3B8
:1031F400224AA2FB03235B091901FA6813469B00C8
:1032040013449A001A447B685B689B00B2FBF3F298
:103214001A4BA3FB02035B09642000FB03F3D31ADC
:103224001B013233154AA2FB03235B0903F0F003AD
:103234001944FA6813469B0013449A001A447B68A5
:103244005B689B00B2FBF3F20C4BA3FB02035B092C
:10325400642000FB03F3D31A1B013233074AA2FB99
:1032640003235B0903F00F027B681B680A449A601E
:1032740000BF1037BD4680BD003801401F85EB51AB
:1032840003460244934200D1704703F8011BF9E757
:1032940070B500260C4D0D4C641BA410A64209D138
:1032A40000F01AF800260A4D0A4C641BA410A6422A
:1032B40005D170BD55F8043B98470136EEE755F843
:1032C400043B98470136F2E7203300082033000816
:1032D4002033000824330008F8B500BFF8BC08BC4C
:1032E4009E467047F8B500BFF8BC08BC9E467047C0
:1032F40000000000000000000102030406070809A2
:103304000000000001020304020304050607080983
:0C3314000A0B0C0D0E0F1010010200003F
:043320000902000896
:04332400E5010008B7
:0C33280000127A001000000001000000FC
:0400000508000BFDE7
:00000001FF
