:020000040800F2
:1000000000C000200D0D00083D0C0008450C000844
:100010004D0C0008550C00085D0C000800000000A5
:10002000000000000000000000000000650C000857
:10003000710C0008000000007D0C0008890C00080D
:10004000550D0008550D0008550D0008550D000808
:10005000550D0008550D0008550D0008550D0008F8
:10006000550D0008550D0008550D0008550D0008E8
:10007000550D0008550D0008550D0008550D0008D8
:10008000550D0008550D0008550D0008550D0008C8
:10009000550D0008550D0008550D0008550D0008B8
:1000A000550D0008550D0008550D0008550D0008A8
:1000B000550D0008550D0008550D0008550D000898
:1000C000550D0008550D0008550D0008550D000888
:1000D000550D0008550D0008550D0008550D000878
:1000E000550D0008550D0008550D0008550D000868
:1000F000550D0008550D0008550D0008550D000858
:10010000550D0008550D0008550D0008550D000847
:10011000550D0008550D0008550D0008550D000837
:10012000550D0008550D0008550D0008550D000827
:1001300000000000000000000000000000000000BF
:1001400000000000000000000000000000000000AF
:10015000000000000000000000000000000000009F
:10016000000000000000000000000000000000008F
:10017000000000000000000000000000000000007F
:10018000000000000000000000000000000000006F
:10019000000000000000000000000000000000005F
:1001A000000000000000000000000000000000004F
:1001B000000000000000000000000000000000003F
:1001C000000000000000000000000000000000002F
:1001D000000000000000000000000000000000001F
:0401E0005FF8E0F1F3
:1001E40010B5054C237833B9044B13B10448AFF36D
:1001F40000800123237010BD5C000020000000007B
:10020400A845000808B5034B1BB103490348AFF3E5
:10021400008008BD0000000060000020A845000820
:1002240080B400AF0B4B5B6A1BB21A460A4B1A60D0
:100234004FF080435B6A1BB21A46084B1A60054BA9
:1002440000225A624FF0804300225A6200BFBD462A
:1002540080BC7047002C01408002002084020020F2
:1002640080B586B004AF0023FB714FF0FF330293D7
:1002740001230193FB1D009301236B22D02103482A
:1002840001F0C2F900BF0837BD4680BD78000020E8
:1002940080B588B004AF4FF0FF3302930E2301936F
:1002A4003B46009301233B22D021214801F0A6FACA
:1002B4003B781BB21B021AB27B781BB213431AB2EF
:1002C4001C4B1A80BB781BB21B021AB2FB781BB200
:1002D40013431AB2184B1A803B791BB21B021AB291
:1002E4007B791BB213431AB2144B1A803B7A1BB2AC
:1002F4001B021AB27B7A1BB213431AB2104B1A8038
:10030400BB7A1BB21B021AB2FB7A1BB213431AB29A
:100314000C4B1A803B7B1BB21B021AB27B7B1BB2B9
:1003240013431AB2084B1A8000BF1037BD4680BD74
:100334007800002034020020360200203802002019
:100344003A0200203C0200203E020020F0B58BB0AF
:1003540008AF00F0FFFC00F073F800F04BFA00F077
:10036400ABF800F0D7F800F02DF900F07FF900F0B9
:10037400E1F900F015FA3C21234802F018FE3C2173
:10038400224802F014FEFFF76BFF214802F0BEFC86
:10039400FFF77EFFFFF744FF322000F03DFD1D4BC9
:1003A400B3F900309C461C4BB3F9003019461B4B83
:1003B400B3F9003018461A4BB3F900301C46194BF8
:1003C400B3F900301D46184BB3F900301E46174BE5
:1003D4001B68174A126806920593049603950294C3
:1003E400019000916346134A4021134803F016FC20
:1003F40078607B689AB24FF0FF330F490F4803F0DF
:1004040039FA00BFC4E700BFCC000020140100206B
:10041400A40100203402002036020020380200200B
:100424003A0200203C0200203E020020800200200C
:1004340084020020C045000840020020EC01002096
:1004440080B590B000AF07F11803282200211846A8
:1004540003F01AFC3B1D00221A605A609A60DA60AD
:100464001A610223BB610123BB621023FB620023D8
:100474007B6307F11803184601F0E8FF0346002BDD
:1004840001D000F02DFA0F237B600023BB60002312
:10049400FB6000233B6100237B613B1D0021184668
:1004A40002F056FA0346002B01D000F019FA00BFFF
:1004B4004037BD4680BD000080B500AF124B134AE3
:1004C4001A60114B124A5A600F4B00229A600E4B6D
:1004D4000022DA600C4B4FF480421A610A4B00226E
:1004E4005A61094B00229A61074B0022DA61064BDC
:1004F40000221A62044800F043FF0346002B01D097
:1005040000F0EEF900BF80BD7800002000540040E8
:10051400801A060080B58CB000AF07F10C032422CA
:100524000021184603F0B0FB3B1D00221A605A60FC
:10053400224B234A1A60214B00225A601F4B00228F
:100544009A601E4B4FF6FF72DA601C4B00221A6150
:100554001A4B00225A61194B00229A610123FB6055
:1005640000233B6101237B610023BB610023FB610A
:1005740000233B6201237B620023BB620023FB62F6
:1005840007F10C0319460D4802F06FFC0346002BDB
:1005940001D000F0A5F900237B600023BB603B1D64
:1005A4001946064803F0AAF80346002B01D000F0D0
:1005B40097F900BF3037BD4680BD00BFCC00002096
:1005C400002C014080B58CB000AF07F10C0324224D
:1005D4000021184603F058FB3B1D00221A605A60A4
:1005E400214B4FF080421A601F4B00225A601E4B71
:1005F40000229A601C4B4FF6FF72DA601A4B0022FD
:100604001A61194B00229A610123FB6000233B61AC
:1006140001237B610023BB610023FB6100233B6258
:1006240001237B620023BB620023FB6207F10C03FE
:1006340019460D4802F019FC0346002B01D000F0C6
:100644004FF900237B600023BB603B1D194606481D
:1006540003F054F80346002B01D000F041F900BF29
:100664003037BD4680BD00BF1401002080B58AB07C
:1006740000AF07F1200300221A605A603B1D0022DC
:100684001A605A609A60DA601A615A619A61274B5B
:10069400274A1A60254B00225A60244B00229A6094
:1006A400224B40F28F12DA60204B00221A611F4B5A
:1006B40000229A611D4802F089FB0346002B01D0F9
:1006C40000F00EF900233B6200237B6207F1200354
:1006D4001946164803F012F80346002B01D000F027
:1006E400FFF860237B600023BB600023FB600023D2
:1006F4007B613B1D002219460C4802F0E7FC0346CF
:10070400002B01D000F0ECF83B1D042219460748E9
:1007140002F0DCFC0346002B01D000F0E1F80348B2
:1007240000F00CFA00BF2837BD4680BD5C010020F4
:100734000008004080B582B000AF3B4600221A603A
:100744005A60154B154A1A60134B4F225A60124BCC
:1007540000229A60104B40F2F312DA600E4B002232
:100764009A610D4802F082FA0346002B01D000F092
:10077400B7F800233B6000237B603B4619460648DC
:1007840002F0BCFF0346002B01D000F0A9F800BF23
:100794000837BD4680BD00BFA40100200010004002
:1007A40080B500AF114B124A1A60104B4FF4E1327E
:1007B4005A600E4B00229A600C4B0022DA600B4BFD
:1007C40000221A61094B0C225A61084B00229A61DB
:1007D400064B0022DA61054802F0FCFF0346002BB9
:1007E40001D000F07DF800BF80BD00BFEC01002007
:1007F4000048004080B58AB000AF07F1140300221E
:100804001A605A609A60DA60314B9B69304A43F04F
:10081400010393612E4B9B6903F001033B613B6928
:100824002C4B5B687B627B6A23F0E0637B62294A22
:100834007B6A5360264B9B69254A43F0040393610A
:10084400234B9B6903F00403FB60FB68204B9B690B
:100854001F4A43F0100393611D4B9B6903F010037F
:10086400BB60BB681A4B9B69194A43F00803936148
:10087400174B9B6903F008037B607B6800223021DF
:10088400154800F065FD00220321144800F060FDC6
:1008940030237B610123BB610023FB6102233B62A4
:1008A40007F1140319460C4800F0BEFB03237B61D7
:1008B4000123BB610023FB6102233B6207F11403A4
:1008C4001946064800F0B0FB00BF2837BD4680BD7E
:1008D400001002400000014000100140000C0140E3
:1008E40080B400AF72B600BF00BFFDE780B485B02E
:1008F40000AF154B9B69144A43F001039361124BFB
:100904009B6903F00103BB60BB680F4BDB690E4AB4
:1009140043F08053D3610C4BDB6903F080537B605D
:100924007B680A4B5B68FB60FB6823F0E063FB6059
:10093400FB6843F08063FB60044AFB68536000BFBC
:100944001437BD4680BC70470010024000000140CF
:1009540080B58AB000AF786007F1140300221A60F2
:100964005A609A60DA607B681B681D4A934232D1F0
:100974001C4B9B691B4A43F008039361194B9B6909
:1009840003F008033B613B694FF440737B6112231E
:10099400BB6103233B6207F114031946124800F0BC
:1009A40043FB124B5B687B627B6A43F0E0637B62D0
:1009B4007B6A43F002037B620C4A7B6A5360094BF7
:1009C400DB69084A43F40013D361064BDB6903F483
:1009D4000013FB60FB6800BF2837BD4680BD00BF25
:1009E4000054004000100240000C0140000001408F
:1009F40080B58AB000AF786007F1180300221A604E
:100A04005A609A60DA607B681B682B4A934225D14E
:100A14002A4B9B69294A43F400639361274B9B69E2
:100A240003F400637B617B69244B9B69234A43F095
:100A340004039361214B9B6903F004033B613B690D
:100A44004FF44073BB610023FB6100233B6207F159
:100A5400180319461A4800F0E7FA28E07B681B6877
:100A6400B3F1804F23D1154BDB69144A43F00103E2
:100A7400D361124BDB6903F00103FB60FB680F4B8E
:100A84009B690E4A43F0040393610C4B9B6903F08A
:100A94000403BB60BB680323BB610023FB61002329
:100AA4003B6207F118031946054800F0BDFA00BF80
:100AB4002837BD4680BD00BF002C01400010024015
:100AC4000008014080B485B000AF78607B681B6883
:100AD400094A93420BD1094BDB69084A43F00403EA
:100AE400D361064BDB6903F00403FB60FB6800BFC2
:100AF4001437BD4680BC7047000800400010024017
:100B040080B485B000AF78607B681B68094A934263
:100B14000BD1094BDB69084A43F01003D361064B40
:100B2400DB6903F01003FB60FB6800BF1437BD46AC
:100B340080BC7047001000400010024080B588B0AF
:100B440000AF786007F1100300221A605A609A60BF
:100B5400DA607B681B680F4A934217D10E4B9B697E
:100B64000D4A43F0080393610B4B9B6903F00803A0
:100B7400FB60FB68C0233B6102237B610223FB61B2
:100B840007F110031946054800F04EFA00BF20375C
:100B9400BD4680BD0008004000100240000C01402A
:100BA40080B588B000AF786007F1100300221A60A6
:100BB4005A609A60DA607B681B681C4A934231D1A0
:100BC4001B4BDB691A4A43F48023D361184BDB695E
:100BD40003F48023FB60FB68154B9B69144A43F0C4
:100BE40008039361124B9B6903F00803BB60BB6865
:100BF4004FF480633B6102237B610323FB6107F1B4
:100C0400100319460B4800F00FFA4FF400633B61E0
:100C140000237B610023BB6107F1100319460548DB
:100C240000F002FA00BF2037BD4680BD00480040F6
:100C340000100240000C014080B400AF00BFFDE78B
:100C440080B400AF00BFFDE780B400AF00BFFDE794
:100C540080B400AF00BFFDE780B400AF00BFFDE784
:100C640080B400AF00BFBD4680BC704780B400AF05
:100C740000BFBD4680BC704780B400AF00BFBD4616
:100C840080BC704780B500AF00F0AAF800BF80BDFB
:100C940080B586B000AF7860144A154BD31A7B61D7
:100CA4007B693B61134B1B68002B02D1114B124A29
:100CB4001A60104B1A687B6813443A699A4207D247
:100CC40002F0EAFF03460C221A604FF0FF3309E0FA
:100CD400084B1B68FB60074B1A687B681344054A82
:100CE4001360FB6818461837BD4680BD00C000205D
:100CF4000004000088020020D803002080B400AF64
:100D040000BFBD4680BC7047FFF7F8FF0B480C4995
:100D14000C4A002302E0D458C4500433C4188C4253
:100D2400F9D3094A094C002301E013600432A242BA
:100D3400FBD302F0B7FFFFF709FB70470000002068
:100D44005C000020604600085C000020D8030020FE
:100D5400FEE7000080B500AF084B1B68074A43F06C
:100D640010031360032000F02BF90F2000F008F8A3
:100D7400FFF7BCFD0023184680BD00BF00200240E1
:100D840080B582B000AF7860124B1A68124B1B78A2
:100D940019464FF47A73B3FBF1F3B2FBF3F318463D
:100DA40000F035F90346002B01D001230EE07B68E7
:100DB4000F2B0AD8002279684FF0FF3000F00BF9AE
:100DC400064A7B681360002300E0012318460837B5
:100DD400BD4680BD00000020080000200400002063
:100DE40080B400AF054B1B781A46054B1B681344AF
:100DF400034A136000BFBD4680BC70470800002052
:100E04008C02002080B400AF024B1B681846BD461C
:100E140080BC70478C02002080B584B000AF78603D
:100E2400FFF7F0FFB8607B68FB60FB68B3F1FF3F3E
:100E340005D00A4B1B781A46FB681344FB6000BFBD
:100E4400FFF7E0FF0246BB68D31AFA689A42F7D864
:100E540000BF00BF1037BD4680BD00BF08000020A2
:100E640080B485B000AF78607B6803F00703FB6053
:100E74000C4BDB68BB60BA684FF6FF031340BB60E2
:100E8400FB681A02BB68134343F0BF6343F40033A7
:100E9400BB60044ABB68D36000BF1437BD4680BC46
:100EA400704700BF00ED00E080B400AF044BDB6886
:100EB4001B0A03F007031846BD4680BC704700BFF9
:100EC40000ED00E080B483B000AF03463960FB71ED
:100ED40097F90730002B0ADB3B68DAB20C4997F923
:100EE40007301201D2B20B4483F800230AE03B68B6
:100EF400DAB20849FB7903F00F03043B1201D2B2C2
:100F04000B441A7600BF0C37BD4680BC704700BF47
:100F140000E100E000ED00E080B489B000AFF860CB
:100F2400B9607A60FB6803F00703FB61FB69C3F1F6
:100F34000703042B28BF0423BB61FB690433062B7E
:100F440002D9FB69033B00E000237B614FF0FF32D1
:100F5400BB6902FA03F3DA43BB681A407B699A401F
:100F64004FF0FF317B6901FA03F3D9437B680B40EF
:100F7400134318462437BD4680BC704780B582B001
:100F840000AF78607B68013BB3F1807F01D301231C
:100F94000FE00A4A7B68013B53600F214FF0FF309A
:100FA400FFF790FF054B00229A60044B07221A605A
:100FB400002318460837BD4680BD00BF10E000E09E
:100FC40080B582B000AF78607868FFF749FF00BF52
:100FD4000837BD4680BD80B586B000AF0346B96012
:100FE4007A60FB7300237B61FFF75EFF78617A68A8
:100FF400B9687869FFF790FF024697F90F301146F8
:101004001846FFF75FFF00BF1837BD4680BD80B5A7
:1010140082B000AF78607868FFF7B0FF03461846E7
:101024000837BD4680BD000080B48BB000AF786047
:10103400396000237B6200233B6279E101227B6AF1
:1010440002FA03F3FB613B681B68FA691340BB6156
:10105400BA69FB699A4240F068813B685B68964ACA
:1010640093425ED0944A934275D8944A934258D09E
:10107400924A93426FD8924A934252D0904A9342F2
:1010840069D8904A93424CD08E4A934263D88E4A90
:10109400934246D08C4A93425DD8122B2AD8122B05
:1010A40059D801A252F823F02711000801110008B1
:1010B40013110008551100085B1100085B110008AA
:1010C4005B1100085B1100085B1100085B1100084C
:1010D4005B1100085B1100085B1100085B1100083C
:1010E4005B1100085B1100085B110008091100087E
:1010F4001D110008754A934213D02CE03B68DB684D
:101104003B6229E03B68DB6804333B6224E03B68D4
:10111400DB6808333B621FE03B68DB680C333B62EF
:101124001AE03B689B68002B02D104233B6213E066
:101134003B689B68012B05D108233B627B68FA69F5
:101144001A6109E008233B627B68FA695A6103E08B
:1011540000233B6200E000BFBB69FF2B01D87B6822
:1011640001E07B6804337B61BB69FF2B02D87B6A97
:101174009B0002E07B6A083B9B003B617B691A6829
:101184000F213B6901FA03F3DB431A40396A3B69D7
:1011940001FA03F31A437B691A603B685B6803F046
:1011A4008053002B00F0C180494B9B69484A43F0AF
:1011B40001039361464B9B6903F00103BB60BB6869
:1011C400444A7B6A9B08023352F82330FB607B6AF3
:1011D40003F003039B000F2202FA03F3DB43FA68D4
:1011E4001340FB607B683C4A93421FD07B683B4AB8
:1011F400934219D07B683A4A934213D07B68394AA8
:1012040093420DD07B68384A934207D07B68374AB3
:10121400934201D105230AE0062308E0042306E0F3
:10122400032304E0022302E0012300E000237A6A9E
:1012340002F0030292009340FA681343FB602549CD
:101244007B6A9B080233FA6841F823203B685B6899
:1012540003F48013002B06D0254B9A682449BB69FC
:1012640013438B6006E0224B9A68BB69DB43204939
:1012740013408B603B685B6803F40013002B06D0BB
:101284001B4BDA681A49BB691343CB6006E0184B61
:10129400DA68BB69DB4316491340CB603B685B6883
:1012A40003F40033002B25D0114B5A681049BB6955
:1012B40013434B6025E000BF0000321000003110E2
:1012C4000000221000002110000012100000111074
:1012D400001002400000014000080140000C0140E1
:1012E400001001400014014000180140001C01409E
:1012F40000040140154B5A68BB69DB431349134092
:101304004B603B685B6803F48033002B06D00F4BC3
:101314001A680E49BB6913430B6006E00B4B1A684D
:10132400BB69DB43094913400B607B6A01337B6271
:101334003B681A687B6A22FA03F3002B7FF47EAEC3
:1013440000BF00BF2C37BD4680BC7047000401407D
:1013540080B483B000AF78600B467B8013467B700B
:101364007B78002B03D07A887B681A6103E07B8842
:101374001A047B681A6100BF0C37BD4680BC7047F5
:1013840080B584B000AF78607B68002B01D1012365
:101394002BE17B6893F83D30DBB2002B06D17B68F0
:1013A400002283F83C207868FFF7D2FA7B68242275
:1013B40083F83D207B681B681A687B681B6822F0F1
:1013C40001021A607B681B681A687B681B6842F418
:1013D40000421A607B681B681A687B681B6822F4E9
:1013E40000421A6001F0FCFBF8607B685B68814A8C
:1013F400934207D8FB68804A934294BF0123002399
:10140400DBB206E0FB687D4A934294BF01230023CC
:10141400DBB2002B01D00123E7E0FB68784AA2FB92
:1014240003239B0CBB607B681B685B6823F03F0154
:101434007B681B68BA680A435A607B681B681B6A2E
:1014440023F03F017B685B686A4A934202D8BB6819
:10145400013309E0BB684FF4967202FB03F3694A57
:10146400A2FB03239B0901337A6812680B431362BE
:101474007B681B68DB6923F44F4222F0FF027B6820
:101484005B685C498B4219D8FB68591E7B685B68B2
:101494005B00B1FBF3F3591C40F6FC730B40002BCB
:1014A4000AD0FB68591E7B685B685B00B1FBF3F3F1
:1014B4000133C3F30B0351E004234FE07B689B68C3
:1014C400002B11D1FB68581E7B6859680B465B00E2
:1014D4000B44B0FBF3F30133C3F30B03002B0CBF3A
:1014E40001230023DBB212E0FB68581E7B685968B5
:1014F4000B469B000B4499000B44B0FBF3F3013300
:10150400C3F30B03002B0CBF01230023DBB2002B1E
:1015140001D0012322E07B689B68002B0ED1FB687D
:10152400581E7B6859680B465B000B44B0FBF3F311
:101534000133C3F30B0343F400430FE0FB68581E6D
:101544007B6859680B469B000B4499000B44B0FB25
:10155400F3F30133C3F30B0343F44043796809689D
:101564001343CB617B681B681B6823F0C0017B6855
:10157400DA697B681B6A1A437B681B680A431A6032
:101584007B681B689B6823F4034323F0FF037A689A
:1015940011697A68D26811437A6812680B439360C0
:1015A4007B681B68DB6823F0FF017B685A697B68F2
:1015B4009B691A437B681B680A43DA607B681B6873
:1015C4001A687B681B6842F001021A607B6800227B
:1015D4001A647B68202283F83D207B6800221A630A
:1015E4007B68002283F83E20002318461037BD464E
:1015F40080BD00BFA08601007F841E00FF083D005F
:1016040083DE1B43D34D621080B588B002AFF8600F
:10161400084611461A4603467B810B463B81134616
:10162400FB80FFF7EFFB7861FB6893F83D30DBB29A
:10163400202B40F0D9807B690093192301226D4946
:10164400F86800F0CDFC0346002B01D00223CCE067
:10165400FB6893F83C30012B01D10223C5E0FB6801
:10166400012283F83C20FB681B681B6803F001031C
:10167400012B07D0FB681B681A68FB681B6842F0E3
:1016840001021A60FB681B681A68FB681B6822F475
:1016940000621A60FB68212283F83D20FB68402227
:1016A40083F83E20FB6800221A64FB683A6A5A6297
:1016B400FB68BA8C5A85FB685B8D9AB2FB681A8505
:1016C400FB684D4ADA62F8883A8979897B69019323
:1016D400BB6A00930346F86800F004FB0346002B42
:1016E40052D0012381E07A69B96AF86800F092FD6A
:1016F4000346002B0DD0FB681B6C042B07D1FB6841
:101704001B681A68FB681B6842F400721A600123A4
:101714006BE0FB685B6A1A78FB681B681A61FB68FC
:101724005B6A5A1CFB685A62FB681B8D013B9AB2C8
:10173400FB681A85FB685B8D9BB2013B9AB2FB6820
:101744005A85FB681B685B6903F00403042B1BD1F7
:10175400FB681B8D002B17D0FB685B6A1A78FB684B
:101764001B681A61FB685B6A5A1CFB685A62FB6857
:101774001B8D013B9AB2FB681A85FB685B8D9BB29B
:10178400013B9AB2FB685A85FB681B8D002BAAD1DA
:101794007A69B96AF86800F085FD0346002B0DD01C
:1017A400FB681B6C042B07D1FB681B681A68FB6879
:1017B4001B6842F400721A60012316E0FB681B6880
:1017C4001A68FB681B6842F400721A60FB682022E6
:1017D40083F83D20FB68002283F83E20FB6800224A
:1017E40083F83C20002300E0022318461837BD4646
:1017F40080BD00BF020010000000FFFF80B58CB068
:1018040002AFF860084611461A4603467B810B4630
:101814003B811346FB8000233B62FFF7F3FA7862B7
:10182400FB6893F83D30DBB2202B40F050827B6A9A
:101834000093192301228249F86800F0D1FB034682
:10184400002B01D0022343E2FB6893F83C30012BC8
:1018540001D102233CE2FB68012283F83C20FB68AF
:101864001B681B6803F00103012B07D0FB681B688E
:101874001A68FB681B6842F001021A60FB681B6867
:101884001A68FB681B6822F400621A60FB68222253
:1018940083F83D20FB68402283F83E20FB68002249
:1018A4001A64FB683A6B5A62FB68BA8E5A85FB6805
:1018B4005B8D9AB2FB681A85FB68624ADA62F88823
:1018C4003A8979897B6A0193BB6B00930346F86874
:1018D40000F09EFA0346002B01D00123F8E1FB68D7
:1018E4001B8D002B13D10023FB61FB681B685B6914
:1018F400FB61FB681B689B69FB61FB69FB681B68F8
:101904001A68FB681B6842F400721A60CCE1FB6839
:101914001B8D012B1ED1FB681B681A68FB681B68B2
:1019240022F480621A6072B600BF0023BB61FB68B8
:101934001B685B69BB61FB681B689B69BB61BB6916
:10194400FB681B681A68FB681B6842F400721A6023
:1019540062B635E0FB681B8D022B1ED1FB681B6849
:101964001A68FB681B6842F400621A6072B600BF12
:1019740000237B61FB681B685B697B61FB681B68F8
:101984009B697B617B69FB681B681A68FB681B6841
:1019940022F480621A6062B612E0FB681B681A685F
:1019A400FB681B6842F480621A6000233B61FB6899
:1019B4001B685B693B61FB681B689B693B613B6916
:1019C40072E1FB681B8D032B00F21F81FB681B8DEA
:1019D400012B23D17A6AB96BF86800F0ABFC03469B
:1019E400002B01D0012373E1FB681B681A69FB68B3
:1019F4005B6AD2B21A70FB685B6A5A1CFB685A6253
:101A0400FB681B8D013B9AB2FB681A85FB685B8DF2
:101A14009BB2013B9AB2FB685A8545E1FB681B8D7A
:101A2400022B52D17B6A0093BB6B00220649F868F3
:101A340000F0D6FA0346002B08D0012348E100BF8A
:101A4400020010000000FFFF0400010072B600BF96
:101A5400FB681B681A68FB681B6842F400721A6012
:101A6400FB681B681A69FB685B6AD2B21A70FB6870
:101A74005B6A5A1CFB685A62FB681B8D013B9AB275
:101A8400FB681A85FB685B8D9BB2013B9AB2FB68CD
:101A94005A8562B600BFFB681B681A69FB685B6AFB
:101AA400D2B21A70FB685B6A5A1CFB685A62FB6804
:101AB4001B8D013B9AB2FB681A85FB685B8D9BB258
:101AC400013B9AB2FB685A85EEE07B6A0093BB6BDC
:101AD40000228149F86800F083FA0346002B01D004
:101AE4000123F5E0FB681B681A68FB681B6822F495
:101AF40080621A6072B600BFFB681B681A69FB68D3
:101B04005B6AD2B21A70FB685B6A5A1CFB685A6241
:101B1400FB681B8D013B9AB2FB681A85FB685B8DE1
:101B24009BB2013B9AB2FB685A856C4B1B68DB087D
:101B34006B4AA2FB03231A0A13469B001344DA00E0
:101B4400D31A3B623B6A013B3B623B6A002B18D1D0
:101B5400FB6800221A63FB68202283F83D20FB689F
:101B6400002283F83E20FB681B6C43F02002FB68D4
:101B74001A6462B600BFFB68002283F83C2001238C
:101B8400A6E0FB681B685B6903F00403042BD9D14E
:101B9400FB681B681A68FB681B6842F400721A60D1
:101BA400FB681B681A69FB685B6AD2B21A70FB682F
:101BB4005B6A5A1CFB685A62FB681B8D013B9AB234
:101BC400FB681A85FB685B8D9BB2013B9AB2FB688C
:101BD4005A8562B600BFFB681B681A69FB685B6ABA
:101BE400D2B21A70FB685B6A5A1CFB685A62FB68C3
:101BF4001B8D013B9AB2FB681A85FB685B8D9BB217
:101C0400013B9AB2FB685A854EE07A6AB96BF86870
:101C140000F090FB0346002B01D0012358E0FB6841
:101C24001B681A69FB685B6AD2B21A70FB685B6A4C
:101C34005A1CFB685A62FB681B8D013B9AB2FB6815
:101C44001A85FB685B8D9BB2013B9AB2FB685A858F
:101C5400FB681B685B6903F00403042B24D1FB6855
:101C64001B8D032B07D1FB681B681A68FB681B6874
:101C740022F480621A60FB681B681A69FB685B6A5D
:101C8400D2B21A70FB685B6A5A1CFB685A62FB6822
:101C94001B8D013B9AB2FB681A85FB685B8D9BB276
:101CA400013B9AB2FB685A85FB681B8D002B7FF4BD
:101CB40088AEFB68202283F83D20FB68002283F86D
:101CC4003E20FB68002283F83C20002300E002232E
:101CD40018462837BD4680BD0400010000000020DE
:101CE40089B5F81480B588B002AFF860084611468B
:101CF4001A4603467B810B463B811346FB80FB68F7
:101D04001B681A68FB681B6842F480721A607B6A5D
:101D140000933B6A00224FF00111F86800F060F96B
:101D24000346002B0DD0FB681B681B6803F480730B
:101D3400B3F5807F03D1FB684FF400721A64032368
:101D44005FE07B89DBB21A46FB681B6802F0FE0287
:101D54001A617B6A3A6A2D49F86800F0BBF90346B8
:101D6400002B01D001234CE000237B61FB681B683E
:101D74005B697B61FB681B689B697B617B697A6A31
:101D8400396AF86800F046FA0346002B0DD0FB6868
:101D94001B6C042B07D1FB681B681A68FB681B6863
:101DA40042F400721A6001232BE0FB88012B05D159
:101DB4003B89DAB2FB681B681A6121E03B891B0A84
:101DC4009BB2DAB2FB681B681A617A6A396AF868EE
:101DD40000F020FA0346002B0DD0FB681B6C042B8B
:101DE40007D1FB681B681A68FB681B6842F4007221
:101DF4001A60012305E03B89DAB2FB681B681A61AB
:101E0400002318461837BD4680BD00BF02000100FC
:101E140080B588B002AFF860084611461A460346FA
:101E24007B810B463B811346FB80FB681B681A6869
:101E3400FB681B6842F480621A60FB681B681A68BE
:101E4400FB681B6842F480721A607B6A00933B6AE9
:101E540000224FF00111F86800F0C2F80346002B8D
:101E64000DD0FB681B681B6803F48073B3F5807F97
:101E740003D1FB684FF400721A640323AAE07B8940
:101E8400DBB21A46FB681B6802F0FE021A617B6A29
:101E94003A6A5249F86800F01DF90346002B01D054
:101EA400012397E000237B61FB681B685B697B610E
:101EB400FB681B689B697B617B697A6A396AF8688D
:101EC40000F0A8F90346002B0DD0FB681B6C042B13
:101ED40007D1FB681B681A68FB681B6842F4007230
:101EE4001A60012376E0FB88012B05D13B89DAB225
:101EF400FB681B681A6121E03B891B0A9BB2DAB2BA
:101F0400FB681B681A617A6A396AF86800F082F91A
:101F14000346002B0DD0FB681B6C042B07D1FB6818
:101F24001B681A68FB681B6842F400721A6001237C
:101F340050E03B89DAB2FB681B681A617A6A396A35
:101F4400F86800F067F90346002B0DD0FB681B6CA2
:101F5400042B07D1FB681B681A68FB681B6842F4F2
:101F640000721A60012335E0FB681B681A68FB687D
:101F74001B6842F480721A607B6A00933B6A0022F9
:101F84004FF00111F86800F02BF80346002B0DD038
:101F9400FB681B681B6803F48073B3F5807F03D16F
:101FA400FB684FF400721A64032313E07B89DBB2ED
:101FB40043F00103DAB2FB681B681A617B6A3A6A70
:101FC4000649F86800F086F80346002B01D0012387
:101FD40000E0002318461837BD4680BD020001000A
:101FE40080B584B000AFF860B9603B601346FB7104
:101FF40048E03B68B3F1FF3F44D0FEF703FF0246DD
:10200400BB69D31A3A689A4202D33B68002B39D190
:10201400BB681B0CDBB2012B0DD1FB681B685B6931
:10202400DA43BB6813409BB2002B0CBF012300238F
:10203400DBB21A460CE0FB681B689B69DA43BB6899
:1020440013409BB2002B0CBF01230023DBB21A46C2
:10205400FB799A4216D1FB6800221A63FB6820229E
:1020640083F83D20FB68002283F83E20FB681B6C4C
:1020740043F02002FB681A64FB68002283F83C20CA
:10208400012323E0BB681B0CDBB2012B0DD1FB68E1
:102094001B685B69DA43BB6813409BB2002B0CBF1F
:1020A40001230023DBB21A460CE0FB681B689B6922
:1020B400DA43BB6813409BB2002B0CBF01230023FF
:1020C400DBB21A46FB799A4293D0002318461037A4
:1020D400BD4680BD80B584B000AFF860B9607A6059
:1020E4003B6071E0FB681B685B6903F48063B3F5D4
:1020F400806F23D1FB681B681A68FB681B6842F475
:1021040000721A60FB681B686FF480625A61FB6896
:1021140000221A63FB68202283F83D20FB6800221A
:1021240083F83E20FB681B6C43F00402FB681A64CE
:10213400FB68002283F83C20012367E07B68B3F14D
:10214400FF3F41D0FEF75EFE02463B68D31A7A6831
:102154009A4202D37B68002B36D1BB681B0CDBB2DE
:10216400012B0CD1FB681B685B69DA43BB68134025
:102174009BB2002B14BF01230023DBB20BE0FB68EE
:102184001B689B69DA43BB6813409BB2002B14BFE6
:1021940001230023DBB2002B16D0FB6800221A6354
:1021A400FB68202283F83D20FB68002283F83E2050
:1021B400FB681B6C43F02002FB681A64FB68002276
:1021C40083F83C20012321E0BB681B0CDBB2012B0C
:1021D4000CD1FB681B685B69DA43BB6813409BB294
:1021E400002B14BF01230023DBB20BE0FB681B6848
:1021F4009B69DA43BB6813409BB2002B14BF0123D5
:102204000023DBB2002B7FF46DAF00231846103798
:10221400BD4680BD80B584B000AFF860B9607A6017
:1022240034E0F86800F0E3F80346002B01D0012302
:1022340034E0BB68B3F1FF3F28D0FEF7E3FD02466C
:102244007B68D31ABA689A4202D3BB68002B1DD1AB
:10225400FB681B685B6903F08003802B16D0FB6866
:1022640000221A63FB68202283F83D20FB680022C9
:1022740083F83E20FB681B6C43F02002FB681A6461
:10228400FB68002283F83C20012307E0FB681B68FD
:102294005B6903F08003802BC3D1002318461037F9
:1022A400BD4680BD80B584B000AFF860B9607A6087
:1022B40034E0F86800F09BF80346002B01D00123BA
:1022C40034E0BB68B3F1FF3F28D0FEF79BFD024624
:1022D4007B68D31ABA689A4202D3BB68002B1DD11B
:1022E400FB681B685B6903F00403042B16D0FB68CE
:1022F40000221A63FB68202283F83D20FB68002239
:1023040083F83E20FB681B6C43F02002FB681A64D0
:10231400FB68002283F83C20012307E0FB681B686C
:102324005B6903F00403042BC3D100231846103760
:10233400BD4680BD80B584B000AFF860B9607A60F6
:1023440049E0FB681B685B6903F01003102B19D18B
:10235400FB681B686FF010025A61FB6800221A6365
:10236400FB68202283F83D20FB68002283F83E208E
:10237400FB681A6CFB681A64FB68002283F83C2033
:10238400012330E0FEF73EFD02467B68D31ABA68AB
:102394009A4202D3BB68002B1DD1FB681B685B69A2
:1023A40003F04003402B16D0FB6800221A63FB683D
:1023B400202283F83D20FB68002283F83E20FB683E
:1023C4001B6C43F02002FB681A64FB68002283F84C
:1023D4003C20012307E0FB681B685B6903F04003B2
:1023E400402BAED1002318461037BD4680BD80B4C3
:1023F40083B000AF78607B681B685B6903F480631B
:10240400B3F5806F1BD17B681B686FF480625A61DF
:102414007B6800221A637B68202283F83D207B6856
:10242400002283F83E207B681B6C43F004027B6827
:102434001A647B68002283F83C20012300E0002317
:1024440018460C37BD4680BC7047000080B586B086
:1024540000AF78607B68002B01D1012372E27B68B6
:102464001B6803F00103002B00F08780924B5B682C
:1024740003F00C03042B0CD08F4B5B6803F00C03AC
:10248400082B12D18C4B5B6803F48033B3F5803F87
:102494000BD1894B1B6803F40033002B6CD07B6891
:1024A4005B68002B68D101234CE27B685B68B3F561
:1024B400803F06D1804B1B687F4A43F4803313600E
:1024C4002EE07B685B68002B0CD17B4B1B687A4A3F
:1024D40023F480331360784B1B68774A23F48023FA
:1024E40013601DE07B685B68B3F5A02F0CD1724BC1
:1024F4001B68714A43F4802313606F4B1B686E4A58
:1025040043F4803313600BE06B4B1B686A4A23F47B
:1025140080331360684B1B68674A23F4802313607D
:102524007B685B68002B13D0FEF76CFC386108E015
:10253400FEF768FC02463B69D31A642B01D90323D6
:1025440000E25D4B1B6803F40033002BF0D014E071
:10255400FEF758FC386108E0FEF754FC02463B697C
:10256400D31A642B01D90323ECE1534B1B6803F406
:102574000033002BF0D100E000BF7B681B6803F040
:102584000203002B63D04C4B5B6803F00C03002B5D
:102594000BD0494B5B6803F00C03082B1CD1464B52
:1025A4005B6803F48033002B16D1434B1B6803F0A4
:1025B4000203002B05D07B681B69012B01D001238A
:1025C400C0E13D4B1B6823F0F8027B685B69DB00CC
:1025D400394913430B603AE07B681B69002B20D018
:1025E400364B01221A60FEF70DFC386108E0FEF755
:1025F40009FC02463B69D31A022B01D90323A1E14A
:102604002D4B1B6803F00203002BF0D02A4B1B68F0
:1026140023F0F8027B685B69DB00274913430B60F6
:1026240015E0264B00221A60FEF7ECFB386108E047
:10263400FEF7E8FB02463B69D31A022B01D90323B8
:1026440080E11D4B1B6803F00203002BF0D17B6873
:102654001B6803F00803002B3AD07B689B69002BAE
:1026640019D0174B01221A60FEF7CCFB386108E041
:10267400FEF7C8FB02463B69D31A022B01D9032398
:1026840060E10D4B5B6A03F00203002BF0D00120E4
:1026940000F0CEFA1CE00A4B00221A60FEF7B2FBEF
:1026A40038610FE0FEF7AEFB02463B69D31A022BFA
:1026B40008D9032346E100BF001002400000424253
:1026C40080044242924B5B6A03F00203002BE9D17F
:1026D4007B681B6803F00403002B00F0A680002332
:1026E400FB758B4BDB6903F08053002B0DD1884BBA
:1026F400DB69874A43F08053D361854BDB6903F080
:102704008053BB60BB680123FB75824B1B6803F4D9
:102714008073002B18D17F4B1B687E4A43F480736F
:102724001360FEF76FFB386108E0FEF76BFB0246AF
:102734003B69D31A642B01D9032303E1754B1B684E
:1027440003F48073002BF0D07B68DB68012B06D187
:102754006F4B1B6A6E4A43F0010313622DE07B68E2
:10276400DB68002B0CD16A4B1B6A694A23F0010316
:102774001362674B1B6A664A23F0040313621CE06E
:102784007B68DB68052B0CD1614B1B6A604A43F004
:10279400040313625E4B1B6A5D4A43F00103136238
:1027A4000BE05B4B1B6A5A4A23F001031362584B3C
:1027B4001B6A574A23F0040313627B68DB68002B0F
:1027C40015D0FEF71FFB38610AE0FEF71BFB02463B
:1027D4003B69D31A41F28832934201D90323B1E011
:1027E4004B4B1B6A03F00203002BEED014E0FEF700
:1027F40009FB38610AE0FEF705FB02463B69D31A80
:1028040041F28832934201D903239BE0404B1B6A77
:1028140003F00203002BEED1FB7D012B05D13C4BD1
:10282400DB693B4A23F08053D3617B68DB69002B6F
:1028340000F08780364B5B6803F00C03082B61D0F3
:102844007B68DB69022B46D1334B00221A60FEF70A
:10285400D9FA386108E0FEF7D5FA02463B69D31A83
:10286400022B01D903236DE0294B1B6803F000738D
:10287400002BF0D17B681B6AB3F5803F08D1244B51
:102884005B6823F400327B689B68214913434B60E7
:102894001F4B5B6823F474127B68196A7B685B6A5C
:1028A4000B431B4913434B601B4B01221A60FEF779
:1028B400A9FA386108E0FEF7A5FA02463B69D31A83
:1028C400022B01D903233DE0114B1B6803F0007375
:1028D400002BF0D035E0104B00221A60FEF792FA7C
:1028E400386108E0FEF78EFA02463B69D31A022BE0
:1028F40001D9032326E0064B1B6803F00073002B69
:10290400F0D11EE07B68DB69012B07D1012319E0BC
:102914000010024000700040600042420B4B5B68B4
:10292400FB60FB6803F480327B681B6A9A4206D121
:10293400FB6803F470127B685B6A9A4201D001233E
:1029440000E0002318461837BD4680BD0010024041
:1029540080B584B000AF786039607B68002B01D10A
:102964000123D0E06A4B1B6803F007033A689A42DC
:1029740010D9674B1B6823F0070265493B68134372
:102984000B60634B1B6803F007033A689A4201D05B
:102994000123B8E07B681B6803F00203002B20D0FE
:1029A4007B681B6803F00403002B05D0594B5B685C
:1029B400584A43F4E06353607B681B6803F00803E0
:1029C400002B05D0534B5B68524A43F46053536069
:1029D400504B5B6823F0F0027B689B684D491343BE
:1029E4004B607B681B6803F00103002B40D07B68BD
:1029F4005B68012B07D1474B1B6803F40033002BA2
:102A040015D101237FE07B685B68022B07D1414B22
:102A14001B6803F00073002B09D1012373E03D4BC5
:102A24001B6803F00203002B01D101236BE0394B37
:102A34005B6823F003027B685B68364913434B6091
:102A4400FEF7E0F9F8600AE0FEF7DCF90246FB68FD
:102A5400D31A41F28832934201D9032353E02D4B18
:102A64005B6803F00C027B685B689B009A42EBD1C5
:102A7400274B1B6803F007033A689A4210D2244B91
:102A84001B6823F0070222493B6813430B60204B69
:102A94001B6803F007033A689A4201D0012332E02D
:102AA4007B681B6803F00403002B08D0194B5B6898
:102AB40023F4E0627B68DB68164913434B607B6850
:102AC4001B6803F00803002B09D0124B5B6823F446
:102AD40060527B681B69DB000E4913434B6000F0B6
:102AE40021F802460B4B5B681B0903F00F030A49EC
:102AF400CB5C22FA03F3094A1360094B1B6818469E
:102B0400FEF73EF9002318461037BD4680BD00BFCE
:102B14000020024000100240F84500080000002098
:102B24000400002080B487B000AF0023FB600023C2
:102B3400BB6000237B6100237B6000233B611E4B51
:102B44005B68FB60FB6803F00C03042B02D0082BCA
:102B540003D027E0194B3B6127E0FB689B0C03F093
:102B64000F03174AD35C7B60FB6803F48033002BAC
:102B740010D0114B5B685B0C03F00103114AD35C6A
:102B8400BB607B680D4A03FB02F2BB68B2FBF3F344
:102B94007B6104E07B680C4A02FB03F37B617B6985
:102BA4003B6102E0054B3B6100BF3B6918461C37A3
:102BB400BD4680BC704700BF0010024000127A007E
:102BC400104600082046000800093D0080B400AF0C
:102BD400024B1B681846BD4680BC704700000020AD
:102BE40080B500AFFFF7F2FF0246054B5B681B0A96
:102BF40003F007030349CB5C22FA03F3184680BDB4
:102C0400001002400846000880B500AFFFF7DEFF61
:102C14000246054B5B68DB0A03F007030349CB5C00
:102C240022FA03F3184680BD00100240084600084B
:102C340080B485B000AF78600A4B1B680A4AA2FBD7
:102C440003235B0A7A6802FB03F3FB6000BFFB68A3
:102C54005A1EFA60002BF9D100BF00BF1437BD46DD
:102C640080BC704700000020D34D621080B582B054
:102C740000AF78607B68002B01D1012341E07B68C1
:102C840093F83D30DBB2002B06D17B68002283F839
:102C94003C207868FDF734FF7B68022283F83D20EE
:102CA4007B681A687B6804331946104600F0D0FA32
:102CB4007B68012283F846207B68012283F83E204A
:102CC4007B68012283F83F207B68012283F840203F
:102CD4007B68012283F841207B68012283F842202B
:102CE4007B68012283F843207B68012283F8442017
:102CF4007B68012283F845207B68012283F83D200C
:102D0400002318460837BD4680BD000080B485B056
:102D140000AF78607B6893F83D30DBB2012B01D0C3
:102D2400012344E07B68022283F83D207B681B6812
:102D3400DA687B681B6842F00102DA607B681B6812
:102D44001D4A934218D07B681B681C4A934213D0D7
:102D54007B681B68B3F1804F0ED07B681B68184AF0
:102D6400934209D07B681B68164A934204D07B685F
:102D74001B68154A934211D17B681B689B6803F05A
:102D84000703FB60FB68062B10D07B681B681A687E
:102D94007B681B6842F001021A6007E07B681B68CD
:102DA4001A687B681B6842F001021A600023184607
:102DB4001437BD4680BC7047002C014000340140EC
:102DC4000004004000080040000C004080B582B0C0
:102DD40000AF78607B68002B01D1012341E07B6860
:102DE40093F83D30DBB2002B06D17B68002283F8D8
:102DF4003C207868FDF766FE7B68022283F83D205C
:102E04007B681A687B6804331946104600F020FA80
:102E14007B68012283F846207B68012283F83E20E8
:102E24007B68012283F83F207B68012283F84020DD
:102E34007B68012283F841207B68012283F84220C9
:102E44007B68012283F843207B68012283F84420B5
:102E54007B68012283F845207B68012283F83D20AA
:102E6400002318460837BD4680BD80B586B000AF44
:102E7400786039607B68002B01D1012393E07B6883
:102E840093F83D30DBB2002B06D17B68002283F837
:102E94003C207868FDF7ACFD7B68022283F83D2076
:102EA4007B681B689B687A68126823F4804323F06C
:102EB400070393607B681A687B68043319461046DD
:102EC40000F0C6F97B681B689B687B617B681B68A4
:102ED4009B693B617B681B681B6AFB603B681B68E2
:102EE4007A6913437B613B6923F4407323F0030342
:102EF4003B613B689A683B689B691B0213433A69D0
:102F040013433B613B6923F4406323F00C033B61AF
:102F14003B6923F4704323F0F0033B613B68DA68B8
:102F24003B68DB691B0213433A6913433B613B680B
:102F34001B691A013B681B6A1B0313433A69134359
:102F44003B61FB6823F02203FB603B685A683B68E3
:102F54005B691B011343FA681343FB607B681B68BE
:102F64007A699A607B681B683A699A617B681B6816
:102F7400FA681A627B68012283F846207B68012282
:102F840083F83E207B68012283F83F207B6801227E
:102F940083F842207B68012283F843207B68012266
:102FA40083F83D20002318461837BD4680BD80B500
:102FB40084B000AF786039607B6893F83E30FB736F
:102FC4007B6893F83F30BB737B6893F842307B7324
:102FD4007B6893F843303B733B68002B10D1FB7B39
:102FE400012B02D17B7B012B01D0012369E07B689B
:102FF400022283F83E207B68022283F8422031E0DB
:103004003B68042B10D1BB7B012B02D13B7B012BF2
:1030140001D0012355E07B68022283F83F207B68BE
:10302400022283F843201DE0FB7B012B08D1BB7BEC
:10303400012B05D17B7B012B02D13B7B012B01D0E2
:1030440001233EE07B68022283F83E207B68022253
:1030540083F83F207B68022283F842207B680222A7
:1030640083F843203B68002B03D03B68042B08D033
:103074000FE07B681B6801220021184600F01AFB50
:1030840016E07B681B6801220421184600F012FB3D
:103094000EE07B681B6801220021184600F00AFB41
:1030A4007B681B6801220421184600F003FB00BF63
:1030B4007B681B681A687B681B6842F001021A600F
:1030C400002318461037BD4680BD000080B586B089
:1030D40000AFF860B9607A600023FB75FB6893F871
:1030E4003C30012B01D10223AEE0FB68012283F8BE
:1030F4003C207B680C2B00F29F8001A252F823F045
:10310400393100083D3200083D3200083D320008E4
:10311400793100083D3200083D3200083D32000894
:10312400BB3100083D3200083D3200083D32000842
:10313400FB310008FB681B68B968184600F00EF9FB
:10314400FB681B689A69FB681B6842F008029A6175
:10315400FB681B689A69FB681B6822F004029A6189
:10316400FB681B689969BB681A69FB681B680A439A
:103174009A6164E0FB681B68B968184600F05EF960
:10318400FB681B689A69FB681B6842F400629A61D9
:10319400FB681B689A69FB681B6822F480629A6169
:1031A400FB681B689969BB681B691A02FB681B688A
:1031B4000A439A6143E0FB681B68B968184600F04B
:1031C400B1F9FB681B68DA69FB681B6842F0080206
:1031D400DA61FB681B68DA69FB681B6822F0040289
:1031E400DA61FB681B68D969BB681A69FB681B68EC
:1031F4000A43DA6123E0FB681B68B968184600F0EB
:1032040005FAFB681B68DA69FB681B6842F4006214
:10321400DA61FB681B68DA69FB681B6822F4806268
:10322400DA61FB681B68D969BB681B691A02FB6811
:103234001B680A43DA6102E00123FB7500BFFB68E7
:10324400002283F83C20FB7D18461837BD4680BD1C
:1032540080B485B000AF786039607B681B68FB6020
:103264007B68394A934213D07B68384A93420FD023
:103274007B68B3F1804F0BD07B68354A934207D00B
:103284007B68344A934203D07B68334A934208D123
:10329400FB6823F07003FB603B685B68FA681343C8
:1032A400FB607B68284A934213D07B68274A934289
:1032B4000FD07B68B3F1804F0BD07B68244A9342D4
:1032C40007D07B68234A934203D07B68224A934207
:1032D40008D1FB6823F44073FB603B68DB68FA6841
:1032E4001343FB60FB6823F080023B685B69134374
:1032F400FB607B68FA681A603B689A687B68DA62EC
:103304003B681A687B689A627B680F4A934203D0D1
:103314007B680E4A934203D13B681A697B681A633F
:103324007B6801225A617B681B6903F00103002B4F
:1033340005D07B681B6923F001027B681A6100BF1A
:103344001437BD4680BC7047002C01400034014056
:103354000004004000080040000C004080B487B026
:1033640000AF786039607B681B6A7B617B681B6A8D
:1033740023F001027B681A627B685B683B617B68AF
:103384009B69FB60FB6823F07003FB60FB6823F020
:103394000303FB603B681B68FA681343FB607B69AB
:1033A40023F002037B613B689B687A6913437B616A
:1033B4007B68204A934203D07B681F4A93420CD116
:1033C4007B6923F008037B613B68DB687A691343FC
:1033D4007B617B6923F004037B617B68154A93421C
:1033E40003D07B68144A934211D13B6923F4807360
:1033F4003B613B6923F400733B613B685B693A6959
:1034040013433B613B689B693A6913433B617B68A7
:103414003A695A607B68FA689A613B685A687B68C3
:103424005A637B687A691A6200BF1C37BD4680BC48
:10343400704700BF002C01400034014080B487B0C5
:1034440000AF786039607B681B6A7B617B681B6AAC
:1034540023F010027B681A627B685B683B617B68BF
:103464009B69FB60FB6823F4E043FB60FB6823F487
:103474004073FB603B681B681B02FA681343FB60E4
:103484007B6923F020037B613B689B681B017A699D
:1034940013437B617B68214A934203D07B68204AB3
:1034A40093420DD17B6923F080037B613B68DB6829
:1034B4001B017A6913437B617B6923F040037B61C1
:1034C4007B68164A934203D07B68154A934213D112
:1034D4003B6923F480633B613B6923F400633B61F4
:1034E4003B685B699B003A6913433B613B689B699A
:1034F4009B003A6913433B617B683A695A607B6875
:10350400FA689A613B685A687B689A637B687A694F
:103514001A6200BF1C37BD4680BC7047002C0140B6
:103524000034014080B487B000AF786039607B68B4
:103534001B6A7B617B681B6A23F480727B681A6256
:103544007B685B683B617B68DB69FB60FB6823F03D
:103554007003FB60FB6823F00303FB603B681B689C
:10356400FA681343FB607B6923F400737B613B6857
:103574009B681B027A6913437B617B68214A9342EF
:1035840003D07B68204A93420DD17B6923F4006306
:103594007B613B68DB681B027A6913437B617B694F
:1035A40023F480637B617B68164A934203D07B6873
:1035B400154A934213D13B6923F480533B613B6921
:1035C40023F400533B613B685B691B013A69134375
:1035D4003B613B689B691B013A6913433B617B6810
:1035E4003A695A607B68FA68DA613B685A687B68B2
:1035F400DA637B687A691A6200BF1C37BD4680BCF7
:10360400704700BF002C01400034014080B487B0F3
:1036140000AF786039607B681B6A3B617B681B6A1A
:1036240023F480527B681A627B685B687B617B68E9
:10363400DB69FB60FB6823F4E043FB60FB6823F475
:103644004073FB603B681B681B02FA681343FB6012
:103654003B6923F400533B613B689B681B033A6955
:1036640013433B617B68114A934203D07B68104A41
:10367400934209D17B6923F480437B613B685B6996
:103684009B017A6913437B617B687A695A607B6822
:10369400FA68DA613B685A687B681A647B683A693D
:1036A4001A6200BF1C37BD4680BC7047002C014025
:1036B4000034014080B487B000AFF860B9607A602C
:1036C400BB6803F01F03012202FA03F37B61FB686A
:1036D4001A6A7B69DB431A40FB681A62FB681A6A40
:1036E400BB6803F01F03796801FA03F31A43FB680C
:1036F4001A6200BF1C37BD4680BC704780B485B0D9
:1037040000AF786039607B6893F83C30012B01D1BD
:10371400022350E07B68012283F83C207B6802226C
:1037240083F83D207B681B685B68FB607B681B68D3
:103734009B68BB60FB6823F07003FB603B681B68FD
:10374400FA681343FB607B681B68FA685A607B68FD
:103754001B681B4A934218D07B681B68194A934222
:1037640013D07B681B68B3F1804F0ED07B681B6855
:10377400154A934209D07B681B68144A934204D0CB
:103784007B681B68124A93420CD1BB6823F0800308
:10379400BB603B685B68BA681343BB607B681B68AB
:1037A400BA689A607B68012283F83D207B68002216
:1037B40083F83C20002318461437BD4680BC70476C
:1037C400002C014000340140000400400008004087
:1037D400000C004080B582B000AF78607B68002B9D
:1037E40001D1012342E07B6893F84130DBB2002B26
:1037F40006D17B68002283F840207868FDF7D0F971
:103804007B68242283F841207B681B68DA687B6824
:103814001B6822F40052DA60786800F071F97B6862
:103824001B681A697B681B6822F490421A617B68E2
:103834001B685A697B681B6822F02A025A617B68FC
:103844001B68DA687B681B6842F40052DA607B68A4
:1038540000225A647B68202283F841207B6820225E
:1038640083F842207B6800225A63002318460837F5
:10387400BD4680BD80B58AB002AFF860B9603B60D8
:103884001346FB8000237B61FB6893F84130DBB275
:10389400202B75D1BB68002B02D0FB88002B01D1F3
:1038A40001236EE0FB6800225A64FB68212283F83E
:1038B4004120FDF7A7FA7861FB68FA889A84FB68CF
:1038C400FA88DA84FB689B68B3F5805F08D1FB68EB
:1038D4001B69002B04D10023FB61BB68BB6103E0BF
:1038E400BB68FB610023BB612EE03B6800937B69EE
:1038F40000228021F86800F048F80346002B05D028
:10390400FB68202283F8412003233AE0FB69002B63
:103914000BD1BB691B881A46FB681B68C2F30802FB
:103924005A60BB690233BB6107E0FB691A78FB6824
:103934001B685A60FB690133FB61FB68DB8C9BB23B
:10394400013B9AB2FB68DA84FB68DB8C9BB2002BE8
:10395400CBD13B6800937B6900224021F86800F0DA
:1039640014F80346002B05D0FB68202283F841207D
:10397400032306E0FB68202283F84120002300E0B3
:10398400022318462037BD4680BD80B586B000AFFF
:10399400F860B9603B601346FB713BE03B6AB3F1EE
:1039A400FF3F37D0FDF72EFA02463B68D31A3A6A36
:1039B4009A4202D33B6A002B01D103233AE0FB680D
:1039C4001B68DB6803F00403002B23D0BB68802B47
:1039D40020D0BB68402B1DD0FB681B681B6803F01C
:1039E4000803082B16D100237B61FB681B681B6846
:1039F4007B61FB681B685B687B617B69F86800F02E
:103A04001DF8FB6808225A64FB68002283F84020F2
:103A140001230FE0FB681B681A68BB681340BA688F
:103A24009A420CBF01230023DBB21A46FB799A4267
:103A3400B4D0002318461837BD4680BD80B495B075
:103A440000AF78607B681B680C337B637B6B53E847
:103A5400003F3B633B6B23F49073FB647B681B6800
:103A64000C33FA6C3A64FB63F96B3A6C41E800235B
:103A7400BB63BB6B002BE5D17B681B6814333B62D3
:103A84003B6A53E8003FFB61FB6923F00103BB641D
:103A94007B681B681433BA6CFA62BB62B96AFA6A4F
:103AA40041E800237B627B6A002BE5D17B681B6BBA
:103AB400012B19D17B681B680C33FB60FB6853E84E
:103AC400003FBB60BB6823F010037B647B681B680A
:103AD4000C337A6CBA617B617969BA6941E8002375
:103AE4003B613B69002BE5D17B68202283F84220AF
:103AF4007B6800221A6300BF5437BD4680BC704700
:103B040080B584B000AF78607B681B681B6923F4C0
:103B140040517B68DA687B681B680A431A617B68DA
:103B24009A687B681B691A437B685B691343BB60B3
:103B34007B681B68DB6823F4B05323F00C037A68BA
:103B44001268B9680B43D3607B681B685B6923F414
:103B540040717B689A697B681B680A435A617B6879
:103B64001B682C4A934203D1FFF74EF8F86002E039
:103B7400FFF736F8F860FA6813469B0013449A007E
:103B84001A447B685B689B00B2FBF3F3224AA2FBF6
:103B940003235B091901FA6813469B0013449A0036
:103BA4001A447B685B689B00B2FBF3F21A4BA3FBDD
:103BB40002035B09642000FB03F3D31A1B013233B5
:103BC400154AA2FB03235B0903F0F0031944FA68C6
:103BD40013469B0013449A001A447B685B689B005D
:103BE400B2FBF3F20C4BA3FB02035B09642000FB62
:103BF40003F3D31A1B013233074AA2FB03235B09E5
:103C040003F00F027B681B680A449A6000BF1037F8
:103C1400BD4680BD003801401F85EB510CB430B562
:103C2400184B0C1E1D689DB008DA8B234FF0FF3033
:103C34002B601DB0BDE8304002B070474FF40273F2
:103C4400ADF814304FF000031B930CBF234604F16E
:103C5400FF33049307934FF6FF7302900690ADF879
:103C64001630284621AB209A02A9019300F092F95C
:103C7400431CBCBF8B232B60002CDAD00022029B98
:103C84001A70D6E70C00002003460244934200D188
:103C9400704703F8011BF9E7014B1868704700BF30
:103CA4000C00002070B500260C4D0D4C641BA410B4
:103CB400A64209D100F076FC00260A4D0A4C641B8A
:103CC400A410A64205D170BD55F8043B98470136AF
:103CD400EEE755F8043B98470136F2E758460008EA
:103CE40058460008584600085C460008704770476C
:103CF40038B50546002940D051F8043C0C1F002B70
:103D0400B8BFE41800F0DEF81C4A136833B96360E6
:103D140014602846BDE8384000F0DAB8A34208D958
:103D2400206821188B4201BF19685B68091821605B
:103D3400EDE71A465B680BB1A342FAD91168501833
:103D4400A0420BD120680144501883421160E0D195
:103D540018685B68084410605360DAE702D90C23E2
:103D64002B60D6E7206821188B4201BF19685B6875
:103D74000918216063605460CBE738BDD403002088
:103D840070B50F4E0C463168054611B900F0A8FB1A
:103D940030602146284600F0A3FB431C03D14FF0BA
:103DA400FF34204670BDC41C24F00304A042F8D0A4
:103DB400211A284600F094FB0130F2D1EFE700BF4E
:103DC400D00300202DE9F843CD1C25F00305083568
:103DD4000C2D38BF0C25002D064601DBA94204D961
:103DE4000C2333600020BDE8F883DFF8D48000F0B2
:103DF40069F8D8F800301C4644BB29463046FFF722
:103E0400BFFF431C044658D1D8F800402746002F72
:103E140043D1002C4BD023683946304604EB0309C8
:103E240000F05EFB814542D1216830466D1A294677
:103E3400FFF7A6FF01303AD023682B442360D8F85B
:103E440000305A6862BBC8F800700FE02268521B49
:103E540020D40B2A17D96119A342256018BF5960D1
:103E6400636808BFC8F8001062514B60304600F028
:103E74002FF804F10B00231D20F00700C21A1CBF09
:103E84001B1AA350AFE76268A3420CBFC8F8002016
:103E94005A60EBE723466468AEE73C467F68B6E7C2
:103EA4001A465B68A342FBD100235360DEE70C2370
:103EB4003046336000F00CF894E70560D6E700BFA5
:103EC400D40300200148FFF711BF00BFCC0300203A
:103ED4000148FFF70CBF00BFCC0300202DE9F047D9
:103EE4001F468E688246BE420C4690460B682DD80B
:103EF400B1F90C2012F4906F26D06569096905EBBD
:103F04004505A3EB010905EBD5757B1C4B446D10EE
:103F14009D4238BF1D46530527D52946FFF752FF5A
:103F2400064660B34A46216900F0F8FAA38923F4EF
:103F3400906343F08003A38126614E4426603E468D
:103F44006561A5EB0905A560BE4200D93E4632462F
:103F54004146206800F0AAFA0020A3689B1BA360D6
:103F6400236833442360BDE8F0872A4600F0E4FA6E
:103F740006460028E0D150462169FFF7B9FE0C231C
:103F8400CAF80030A3894FF0FF3043F04003A38107
:103F9400E9E700002DE9F04F98468B8907461B0698
:103FA4000D4614469DB010D50B6973B94021FFF737
:103FB40009FF2860286130B90C233B604FF0FF30C3
:103FC4001DB0BDE8F08F40236B61002309932023CB
:103FD4008DF8293030234FF00109CDF80C80DFF83B
:103FE40098818DF82A3023469A4613F8012B0AB19A
:103FF400252AF9D1BAEB040B0BD05B46224629469D
:104004003846FFF76BFF013000F0A780099A5A4445
:1040140009929AF80030002B00F09F8000234FF0A3
:10402400FF32CDE905230AF1010A049307938DF8C1
:1040340053301A935446052214F8011B4E4800F0DD
:104044005FFA049AD8B9D00644BF20238DF85330C0
:10405400110744BF2B238DF853309AF800302A2BD4
:1040640015D0544600204FF00A0C079A214611F847
:10407400013B303B092B4BD9B0B1079214E0A0EBC4
:10408400080309FA03F31343A2460493D2E7039BFC
:10409400191D1B680391002BBBBF5B4242F0020257
:1040A40007930793B8BF049223782E2B0AD1637821
:1040B4002A2B32D1039B02341A1D1B68039243EA54
:1040C400E3730593DFF8B4A003225046217800F08F
:1040D40017FA38B14022049BA0EB0A008240134334
:1040E4000134049314F8011B062225488DF8281086
:1040F40000F006FA002836D0224B1BBB039B073383
:1041040023F0070308330393099B334409936AE7B5
:104114000C4601200CFB0232A8E700234FF00A0CE6
:10412400194601340593204610F8012B303A092A28
:1041340003D9002BC6D00591C4E7044601230CFB28
:104144000121F0E703AB00932A4638460E4B04A93D
:10415400AFF30080421C0646D6D1AB895B063FF51F
:104164002DAF09982CE703AB00932A463846064B3B
:1041740004A900F07DF8EDE722460008284600086F
:104184002C46000800000000E13E00082DE9F0473D
:10419400164698468A680B6907469342B8BF134689
:1041A400336091F843200C46DDF820900AB10133C6
:1041B40033602368990642BF33680233336025684D
:1041C40015F0060506D104F1190AE36832689B1A52
:1041D400AB422BDC94F843302268003B18BF012328
:1041E400920630D44146384604F14302C8470130B0
:1041F40023D02368226903F00603042B14BF00258F
:1042040033684FF0000608BFE56804F11A0408BFDC
:10421400ED1A54F8123C08BF25EAE5759342C4BF71
:104224009B1AED18B5421AD1002008E0012352462A
:1042340041463846C847013003D14FF0FF30BDE84E
:10424400F0870135C1E73020E11881F843005A1C9A
:1042540094F845102244023382F84310C2E7012344
:10426400224641463846C8470130E6D00136D9E7F0
:104274002DE9FF470F7E9146782F80460C469A46DB
:104284000C9E01F1430207D8622F0AD8002F00F0D8
:10429400D180582F00F0B88004F1420684F84270AF
:1042A4003AE0A7F16303152BF6D801A151F823F0E6
:1042B4000D430008214300089D4200089D42000868
:1042C4009D4200089D420008214300089D420008C9
:1042D4009D4200089D4200089D4200081F440008BA
:1042E4004B430008D94300089D4200089D42000842
:1042F400414400089D4200084B4300089D420008C9
:104304009D420008E143000833681A1D1B683260AF
:1043140004F1420684F8423001239CE033682068AB
:10432400191D3160060601D51D6803E04506FBD55D
:10433400B3F90050002D03DA2D236D4284F8433085
:104344000A23584811E021683368080653F8045BCF
:1043540002D4490648BFADB26F2F336014BF0A239D
:1043640008235048002184F843106668002EA66094
:1043740005DB21682E4321F0040121604BD0164651
:10438400B5FBF3F103FB1157C75D06F8017D2F461A
:10439400BB420D46F4D9082B0BD12368DF0708D59F
:1043A400236961689942DEBF302306F8013C06F1B7
:1043B400FF36921B22614B4621464046CDF800A0B1
:1043C40003AAFFF7E3FE01304AD14FF0FF3004B0F7
:1043D400BDE8F087236843F0200323607827324840
:1043E40084F84570236831681F0651F8045B02D4D1
:1043F4005F0648BFADB23160D90744BF43F0200324
:1044040023601DB11023ADE72648E9E7236823F0B4
:1044140020032360F6E71646BDE733682568181DB8
:10442400616930602E061B6801D5196002E06806D8
:10443400FBD51980002316462361BCE733680021AD
:104444001A1D32601E686268304600F059F808B1DF
:10445400801B606063682361002384F84330AAE70B
:104464003246494640462369D0470130ADD02368DF
:104474009B0713D4E068039B9842B8BF1846A6E78D
:104484000123324649464046D04701309DD001358C
:10449400E36803995B1AAB42F2DCEBE7002504F115
:1044A4001906F5E73346000844460008884210B56B
:1044B40001EB020402D98442234607D8431EA142D9
:1044C40008D011F8012B03F8012FF8E70146024444
:1044D4008A4200D110BD13F8014D02F8014DF7E7EF
:1044E40038B50023054D044608462B60FCF7D0FB85
:1044F400431C02D12B6803B1236038BDC8030020DC
:10450400034610B5C9B202449342184601D10020B3
:1045140003E0047801338C42F6D110BD0A44914281
:1045240000F1FF3300D1704710B511F8014B9142EF
:1045340003F8014FF9D110BD2DE9F04107461446A7
:104544000D4621B91146BDE8F041FFF73BBC2AB93D
:10455400FFF7CEFB25462846BDE8F08100F01AF8A7
:104564008442064602D8B4EB500FF4D821463846AC
:10457400FFF728FC804608B94546ECE7B4422246DA
:10458400294628BF3246FFF7C9FF29463846FFF7B8
:10459400AFFBF1E751F8043C181F002BBCBF0B58CC
:1045A400C0187047F8B500BFF8BC08BC9E467047F9
:0C45B400F8B500BFF8BC08BC9E4670477C
:1045C00061783A25642061793A256420617A3A2538
:1045D000642067783A25642067793A256420677AF1
:1045E0003A256420656E63313A256C6420656E63FC
:1045F000323A256C640D0A00000000000000000043
:104600000102030406070809000000000102030478
:1046100002030405060708090A0B0C0D0E0F101003
:104620000102232D302B2000686C4C006566674525
:10463000464700303132333435363738394142431A
:1046400044454600303132333435363738396162CB
:084650006364656600000000D0
:04465800090200084B
:04465C00E50100086C
:1046600000127A001000000001000000100000207D
:104670000000000090020020F802002060030020EB
:10468000000000000000000000000000000000002A
:10469000000000000000000000000000000000001A
:1046A000000000000000000000000000000000000A
:0C46B000000000000000000000000000FE
:0400000508000D0DD5
:00000001FF
