:020000040800F2
:1000000000C00020F90800081D06000825060008A9
:100010002D060008350600083D0600080000000017
:10002000000000000000000000000000450600087D
:1000300051060008000000005D060008690600087F
:100040004109000841090008410900084109000868
:100050004109000841090008410900084109000858
:100060004109000841090008410900084109000848
:100070004109000841090008410900084109000838
:100080004109000841090008410900084109000828
:100090004109000841090008410900084109000818
:1000A0004109000841090008410900084109000808
:1000B00041090008410900084109000841090008F8
:1000C00041090008410900084109000841090008E8
:1000D00041090008410900084109000841090008D8
:1000E00041090008410900084109000841090008C8
:1000F00041090008410900084109000841090008B8
:1001000041090008410900084109000841090008A7
:100110004109000841090008410900084109000897
:100120004109000841090008410900084109000887
:1001300000000000000000000000000000000000BF
:1001400000000000000000000000000000000000AF
:10015000000000000000000000000000000000009F
:10016000000000000000000000000000000000008F
:10017000000000000000000000000000000000007F
:10018000000000000000000000000000000000006F
:10019000000000000000000000000000000000005F
:1001A000000000000000000000000000000000004F
:1001B000000000000000000000000000000000003F
:1001C000000000000000000000000000000000002F
:1001D000000000000000000000000000000000001F
:0401E0005FF8E0F1F3
:1001E40010B5054C237833B9044B13B10448AFF36D
:1001F40000800123237010BD68000020000000006F
:10020400C034000808B5034B1BB103490348AFF3DE
:10021400008008BD000000006C000020C03400080D
:1002240080B582B000AF7860391D4FF0FF330122F2
:10023400034802F037F87B6818460837BD4680BD8E
:100244008400002080B500AF00F07AFB00F020F8B5
:1002540000F0D6F800F082F800F056F8094801F0F2
:1002640095FA00F0C5FA0346074A1360064B1B686B
:100274001946064802F0ACFAC82000F0C3FB00BFE0
:10028400EFE700BFCC00002014010020D8340008A0
:1002940080B590B000AF07F118032822002118465A
:1002A40002F0EBFA3B1D00221A605A609A60DA6091
:1002B4001A610223BB610123BB621023FB6200238A
:1002C4007B6307F11803184600F050FE0346002B29
:1002D40001D000F0E1F80F237B600023BB60002312
:1002E400FB6000233B6100237B613B1D002118461A
:1002F40001F0BEF80346002B01D000F0CDF800BF9A
:100304004037BD4680BD000080B500AF114B124A96
:100314001A60104B4FF4E1325A600E4B00229A607F
:100324000C4B0022DA600B4B00221A61094B0C22A1
:100334005A61084B00229A61064B0022DA61054893
:1003440001F060FF0346002B01D000F0A5F800BFC8
:1003540080BD00BF840000200038014080B586B015
:1003640000AF07F1100300221A605A603B460022D6
:100374001A605A609A60DA60204B4FF080421A602B
:100384001E4B07225A601D4B00229A601B4B4FF6EE
:10039400FF72DA60194B00221A61184B00229A612D
:1003A400164801F04BFA0346002B01D000F074F814
:1003B40000233B6100237B6107F1100319460F48BA
:1003C40001F0B4FE0346002B01D000F065F80023D1
:1003D4003B6001237B600023BB600023FB603B4642
:1003E40004221946054801F041FC0346002B01D0C4
:1003F40000F052F800BF1837BD4680BDCC00002085
:1004040080B586B000AF07F1080300221A605A6075
:100414009A60DA601E4B9B691D4A43F004039361A2
:100424001B4B9B6903F004037B607B680022012162
:10043400184800F083FD0123BB600123FB60002307
:100444003B6102237B6107F108031946114800F060
:10045400E1FB4FF40073BB600223FB6003237B6169
:1004640007F1080319460B4800F0D4FB4FF48063EE
:10047400BB600023FB6000233B6107F108031946BE
:10048400044800F0C7FB00BF1837BD4680BD00BF5D
:10049400001002400008014080B400AF72B600BFF3
:1004A40000BFFDE780B485B000AF154B9B69144ACB
:1004B40043F001039361124B9B6903F00103BB609A
:1004C400BB680F4BDB690E4A43F08053D3610C4B7E
:1004D400DB6903F080537B607B680A4B5B68FB60DD
:1004E400FB6823F0E063FB60FB6843F08063FB6020
:1004F400044AFB68536000BF1437BD4680BC704794
:10050400001002400000014080B588B000AF786060
:1005140007F1100300221A605A609A60DA607B685F
:100524001B68B3F1804F23D1134BDB69124A43F0AC
:100534000103D361104BDB6903F00103FB60FB682B
:100544000D4B9B690C4A43F0040393610A4B9B696E
:1005540003F00403BB60BB6802233B6100237B619F
:100564000023BB6107F110031946044800F052FB55
:1005740000BF2037BD4680BD001002400008014086
:1005840080B588B000AF786007F1100300221A60CC
:100594005A609A60DA607B681B681C4A934231D1C6
:1005A4001B4B9B691A4A43F480439361184B9B6924
:1005B40003F48043FB60FB68154B9B69144A43F0CA
:1005C40004039361124B9B6903F00403BB60BB6893
:1005D4004FF400733B6102237B610323FB6107F14A
:1005E400100319460B4800F015FB4FF480633B6180
:1005F40000237B610023BB6107F110031946054802
:1006040000F008FB00BF2037BD4680BD0038014024
:10061400001002400008014080B400AF00BFFDE7B5
:1006240080B400AF00BFFDE780B400AF00BFFDE7BA
:1006340080B400AF00BFFDE780B400AF00BFFDE7AA
:1006440080B400AF00BFBD4680BC704780B400AF2B
:1006540000BFBD4680BC704780B400AF00BFBD463C
:1006640080BC704780B500AF00F0B0F900BF80BD1A
:1006740080B586B000AFF860B9607A6000237B6112
:100684000AE0AFF300800146BB685A1CBA60CAB2E4
:100694001A707B6901337B617A697B689A42F0DB6B
:1006A4007B6818461837BD4680BD80B586B000AF5C
:1006B400F860B9607A6000237B6109E0BB685A1C6A
:1006C400BA601B781846FFF7ABFD7B6901337B6189
:1006D4007A697B689A42F1DB7B6818461837BD4615
:1006E40080BD80B483B000AF78604FF0FF3318460C
:1006F4000C37BD4680BC704780B483B000AF7860CF
:1007040039603B684FF400525A60002318460C3796
:10071400BD4680BC704780B483B000AF78600123CD
:1007240018460C37BD4680BC704780B485B000AF16
:10073400F860B9607A60002318461437BD4680BC5F
:100744007047000080B586B000AF7860144A154B3E
:10075400D31A7B617B693B61134B1B68002B02D16D
:10076400114B124A1A60104B1A687B6813443A6999
:100774009A4207D202F0D0F803460C221A604FF0D6
:10078400FF3309E0084B1B68FB60074B1A687B6862
:100794001344054A1360FB6818461837BD4680BDEC
:1007A40000C0002000040000180100208002002086
:1007B40080B400AF00BFBD4680BC704780B485B034
:1007C40000AF7860094B1B685B6AFB6000BF074B96
:1007D4001B685A6AFB68D31A7A689A42F7D800BF32
:1007E40000BF1437BD4680BC704700BFCC0000205A
:1007F40080B586B000AF384B00221A70374B002208
:100804001A70374B00221A60364B00221A603B1DC7
:1008140000221A605A609A60DA6000237B60012328
:10082400BB600023FB6000233B613B1D042219468F
:100834002D4801F01BFA04212B4801F04FF82A4BF4
:100844001B68DA68284B1B6842F00102DA60012257
:100854000121264800F072FB0F20FFF7AFFF0022B2
:100864000121224800F06AFB00F0C2F8786114E02C
:1008740000F0BEF802467B69D31A3C2B0DD9042143
:10088400194801F045F9184B1B68DA68164B1B68C8
:1008940022F00102DA60002319E00F4B1B78DBB26F
:1008A400002BE5D00421104801F032F90E4B1B68EF
:1008B400DA680D4B1B6822F00102DA60094B1A68F2
:1008C40013461B0113440A4AA2FB03239B0918463F
:1008D4001837BD4680BD00BF280100201C01002040
:1008E4002001002024010020CC0000200008014049
:1008F400D34D6210FFF75CFF0B480C490C4A0023F0
:1009040002E0D458C4500433C4188C42F9D3094AC1
:10091400094C002301E013600432A242FBD302F02D
:1009240001F8FFF78FFC70470000002068000020EA
:1009340054350008680000207C020020FEE7000017
:1009440080B500AF084B1B68074A43F010031360DF
:10095400032000F02BF90F2000F008F8FFF7A2FDA8
:100964000023184680BD00BF0020024080B582B03D
:1009740000AF7860124B1A68124B1B7819464FF47B
:100984007A73B3FBF1F3B2FBF3F3184600F035F9D5
:100994000346002B01D001230EE07B680F2B0AD8FD
:1009A400002279684FF0FF3000F00BF9064A7B68AB
:1009B4001360002300E0012318460837BD4680BDBC
:1009C40000000020080000200400002080B400AFD4
:1009D400054B1B781A46054B1B681344034A1360E6
:1009E40000BFBD4680BC7047080000202C010020D9
:1009F40080B400AF024B1B681846BD4680BC7047EC
:100A04002C01002080B584B000AF7860FFF7F0FFC0
:100A1400B8607B68FB60FB68B3F1FF3F05D00A4B0D
:100A24001B781A46FB681344FB6000BFFFF7E0FF26
:100A34000246BB68D31AFA689A42F7D800BF00BFCF
:100A44001037BD4680BD00BF0800002080B485B0CB
:100A540000AF78607B6803F00703FB600C4BDB6836
:100A6400BB60BA684FF6FF031340BB60FB681A0211
:100A7400BB68134343F0BF6343F40033BB60044AD1
:100A8400BB68D36000BF1437BD4680BC704700BF4D
:100A940000ED00E080B400AF044BDB681B0A03F0F8
:100AA40007031846BD4680BC704700BF00ED00E058
:100AB40080B483B000AF03463960FB7197F9073007
:100AC400002B0ADB3B68DAB20C4997F907301201B4
:100AD400D2B20B4483F800230AE03B68DAB2084937
:100AE400FB7903F00F03043B1201D2B20B441A76D4
:100AF40000BF0C37BD4680BC704700BF00E100E07A
:100B040000ED00E080B489B000AFF860B9607A60AD
:100B1400FB6803F00703FB61FB69C3F10703042BC4
:100B240028BF0423BB61FB690433062B02D9FB698C
:100B3400033B00E000237B614FF0FF32BB6902FA04
:100B440003F3DA43BB681A407B699A404FF0FF31E4
:100B54007B6901FA03F3D9437B680B4013431846BE
:100B64002437BD4680BC704780B582B000AF786042
:100B74007B68013BB3F1807F01D301230FE00A4A74
:100B84007B68013B53600F214FF0FF30FFF790FF6C
:100B9400054B00229A60044B07221A600023184672
:100BA4000837BD4680BD00BF10E000E080B582B0CC
:100BB40000AF78607868FFF749FF00BF0837BD468B
:100BC40080BD80B586B000AF0346B9607A60FB7320
:100BD40000237B61FFF75EFF78617A68B968786902
:100BE400FFF790FF024697F90F3011461846FFF7BA
:100BF4005FFF00BF1837BD4680BD80B582B000AF2F
:100C040078607868FFF7B0FF034618460837BD469A
:100C140080BD000080B48BB000AF786039600023E1
:100C24007B6200233B6279E101227B6A02FA03F3CF
:100C3400FB613B681B68FA691340BB61BA69FB69D5
:100C44009A4240F068813B685B68964A93425ED062
:100C5400944A934275D8944A934258D0924A934204
:100C64006FD8924A934252D0904A934269D8904A9C
:100C740093424CD08E4A934263D88E4A934246D0D4
:100C84008C4A93425DD8122B2AD8122B59D801A230
:100C940052F823F0130D0008ED0C0008FF0C0008B7
:100CA400410D0008470D0008470D0008470D0008D6
:100CB400470D0008470D0008470D0008470D0008C0
:100CC400470D0008470D0008470D0008470D0008B0
:100CD400470D0008470D0008F50C0008090D000831
:100CE400754A934213D02CE03B68DB683B6229E0F1
:100CF4003B68DB6804333B6224E03B68DB68083311
:100D04003B621FE03B68DB680C333B621AE03B68E4
:100D14009B68002B02D104233B6213E03B689B6871
:100D2400012B05D108233B627B68FA691A6109E04B
:100D340008233B627B68FA695A6103E000233B6243
:100D440000E000BFBB69FF2B01D87B6801E07B6832
:100D540004337B61BB69FF2B02D87B6A9B0002E0F2
:100D64007B6A083B9B003B617B691A680F213B69E6
:100D740001FA03F3DB431A40396A3B6901FA03F3CE
:100D84001A437B691A603B685B6803F08053002B4D
:100D940000F0C180494B9B69484A43F001039361C9
:100DA400464B9B6903F00103BB60BB68444A7B6A02
:100DB4009B08023352F82330FB607B6A03F0030381
:100DC4009B000F2202FA03F3DB43FA681340FB6033
:100DD4007B683C4A93421FD07B683B4A934219D0BC
:100DE4007B683A4A934213D07B68394A93420DD0C8
:100DF4007B68384A934207D07B68374A934201D1D3
:100E040005230AE0062308E0042306E0032304E0A4
:100E1400022302E0012300E000237A6A02F00302C5
:100E240092009340FA681343FB6025497B6A9B0850
:100E34000233FA6841F823203B685B6803F48013AB
:100E4400002B06D0254B9A682449BB6913438B6059
:100E540006E0224B9A68BB69DB43204913408B6050
:100E64003B685B6803F40013002B06D01B4BDA6865
:100E74001A49BB691343CB6006E0184BDA68BB69B7
:100E8400DB4316491340CB603B685B6803F40033D3
:100E9400002B25D0114B5A681049BB6913434B6092
:100EA40025E000BF000032100000311000002210C5
:100EB4000000211000001210000011100010024068
:100EC4000000014000080140000C014000100140F6
:100ED4000014014000180140001C014000040140BE
:100EE400154B5A68BB69DB43134913404B603B689D
:100EF4005B6803F48033002B06D00F4B1A680E494D
:100F0400BB6913430B6006E00B4B1A68BB69DB43F8
:100F1400094913400B607B6A01337B623B681A68A2
:100F24007B6A22FA03F3002B7FF47EAE00BF00BF7E
:100F34002C37BD4680BC70470004014080B483B0A8
:100F440000AF78600B467B8013467B707B78002B68
:100F540003D07A887B681A6103E07B881A047B6873
:100F64001A6100BF0C37BD4680BC704780B586B09F
:100F740000AF78607B68002B01D1012372E27B68AB
:100F84001B6803F00103002B00F08780924B5B6821
:100F940003F00C03042B0CD08F4B5B6803F00C03A1
:100FA400082B12D18C4B5B6803F48033B3F5803F7C
:100FB4000BD1894B1B6803F40033002B6CD07B6886
:100FC4005B68002B68D101234CE27B685B68B3F556
:100FD400803F06D1804B1B687F4A43F48033136003
:100FE4002EE07B685B68002B0CD17B4B1B687A4A34
:100FF40023F480331360784B1B68774A23F48023EF
:1010040013601DE07B685B68B3F5A02F0CD1724BB5
:101014001B68714A43F4802313606F4B1B686E4A4C
:1010240043F4803313600BE06B4B1B686A4A23F470
:1010340080331360684B1B68674A23F48023136072
:101044007B685B68002B13D0FFF7D2FC386108E0A3
:10105400FFF7CEFC02463B69D31A642B01D9032364
:1010640000E25D4B1B6803F40033002BF0D014E066
:10107400FFF7BEFC386108E0FFF7BAFC02463B69A3
:10108400D31A642B01D90323ECE1534B1B6803F4FB
:101094000033002BF0D100E000BF7B681B6803F035
:1010A4000203002B63D04C4B5B6803F00C03002B52
:1010B4000BD0494B5B6803F00C03082B1CD1464B47
:1010C4005B6803F48033002B16D1434B1B6803F099
:1010D4000203002B05D07B681B69012B01D001237F
:1010E400C0E13D4B1B6823F0F8027B685B69DB00C1
:1010F400394913430B603AE07B681B69002B20D00D
:10110400364B01221A60FFF773FC386108E0FFF7E1
:101114006FFC02463B69D31A022B01D90323A1E1D8
:101124002D4B1B6803F00203002BF0D02A4B1B68E5
:1011340023F0F8027B685B69DB00274913430B60EB
:1011440015E0264B00221A60FFF752FC386108E0D4
:10115400FFF74EFC02463B69D31A022B01D9032345
:1011640080E11D4B1B6803F00203002BF0D17B6868
:101174001B6803F00803002B3AD07B689B69002BA3
:1011840019D0174B01221A60FFF732FC386108E0CE
:10119400FFF72EFC02463B69D31A022B01D9032325
:1011A40060E10D4B5B6A03F00203002BF0D00120D9
:1011B40000F0CEFA1CE00A4B00221A60FFF718FC7C
:1011C40038610FE0FFF714FC02463B69D31A022B87
:1011D40008D9032346E100BF001002400000424248
:1011E40080044242924B5B6A03F00203002BE9D174
:1011F4007B681B6803F00403002B00F0A680002327
:10120400FB758B4BDB6903F08053002B0DD1884BAE
:10121400DB69874A43F08053D361854BDB6903F074
:101224008053BB60BB680123FB75824B1B6803F4CE
:101234008073002B18D17F4B1B687E4A43F4807364
:101244001360FFF7D5FB386108E0FFF7D1FB0246D6
:101254003B69D31A642B01D9032303E1754B1B6843
:1012640003F48073002BF0D07B68DB68012B06D17C
:101274006F4B1B6A6E4A43F0010313622DE07B68D7
:10128400DB68002B0CD16A4B1B6A694A23F001030B
:101294001362674B1B6A664A23F0040313621CE063
:1012A4007B68DB68052B0CD1614B1B6A604A43F0F9
:1012B400040313625E4B1B6A5D4A43F0010313622D
:1012C4000BE05B4B1B6A5A4A23F001031362584B31
:1012D4001B6A574A23F0040313627B68DB68002B04
:1012E40015D0FFF785FB38610AE0FFF781FB024662
:1012F4003B69D31A41F28832934201D90323B1E006
:101304004B4B1B6A03F00203002BEED014E0FFF7F3
:101314006FFB38610AE0FFF76BFB02463B69D31AA7
:1013240041F28832934201D903239BE0404B1B6A6C
:1013340003F00203002BEED1FB7D012B05D13C4BC6
:10134400DB693B4A23F08053D3617B68DB69002B64
:1013540000F08780364B5B6803F00C03082B61D0E8
:101364007B68DB69022B46D1334B00221A60FFF7FE
:101374003FFB386108E0FFF73BFB02463B69D31AA9
:10138400022B01D903236DE0294B1B6803F0007382
:10139400002BF0D17B681B6AB3F5803F08D1244B46
:1013A4005B6823F400327B689B68214913434B60DC
:1013B4001F4B5B6823F474127B68196A7B685B6A51
:1013C4000B431B4913434B601B4B01221A60FFF76D
:1013D4000FFB386108E0FFF70BFB02463B69D31AA9
:1013E400022B01D903233DE0114B1B6803F000736A
:1013F400002BF0D035E0104B00221A60FFF7F8FA0A
:10140400386108E0FFF7F4FA02463B69D31A022B6D
:1014140001D9032326E0064B1B6803F00073002B5D
:10142400F0D11EE07B68DB69012B07D1012319E0B1
:101434000010024000700040600042420B4B5B68A9
:10144400FB60FB6803F480327B681B6A9A4206D116
:10145400FB6803F470127B685B6A9A4201D0012333
:1014640000E0002318461837BD4680BD0010024036
:1014740080B584B000AF786039607B68002B01D1FF
:101484000123D0E06A4B1B6803F007033A689A42D1
:1014940010D9674B1B6823F0070265493B68134367
:1014A4000B60634B1B6803F007033A689A4201D050
:1014B4000123B8E07B681B6803F00203002B20D0F3
:1014C4007B681B6803F00403002B05D0594B5B6851
:1014D400584A43F4E06353607B681B6803F00803D5
:1014E400002B05D0534B5B68524A43F4605353605E
:1014F400504B5B6823F0F0027B689B684D491343B3
:101504004B607B681B6803F00103002B40D07B68B1
:101514005B68012B07D1474B1B6803F40033002B96
:1015240015D101237FE07B685B68022B07D1414B17
:101534001B6803F00073002B09D1012373E03D4BBA
:101544001B6803F00203002B01D101236BE0394B2C
:101554005B6823F003027B685B68364913434B6086
:10156400FFF746FAF8600AE0FFF742FA0246FB6822
:10157400D31A41F28832934201D9032353E02D4B0D
:101584005B6803F00C027B685B689B009A42EBD1BA
:10159400274B1B6803F007033A689A4210D2244B86
:1015A4001B6823F0070222493B6813430B60204B5E
:1015B4001B6803F007033A689A4201D0012332E022
:1015C4007B681B6803F00403002B08D0194B5B688D
:1015D40023F4E0627B68DB68164913434B607B6845
:1015E4001B6803F00803002B09D0124B5B6823F43B
:1015F40060527B681B69DB000E4913434B6000F0AB
:1016040021F802460B4B5B681B0903F00F030A49E0
:10161400CB5C22FA03F3094A1360094B1B68184692
:10162400FFF7A4F9002318461037BD4680BD00BF5C
:101634000020024000100240EC34000800000020AA
:101644000400002080B487B000AF0023FB600023B7
:10165400BB6000237B6100237B6000233B611E4B46
:101664005B68FB60FB6803F00C03042B02D0082BBF
:1016740003D027E0194B3B6127E0FB689B0C03F088
:101684000F03174AD35C7B60FB6803F48033002BA1
:1016940010D0114B5B685B0C03F00103114AD35C5F
:1016A400BB607B680D4A03FB02F2BB68B2FBF3F339
:1016B4007B6104E07B680C4A02FB03F37B617B697A
:1016C4003B6102E0054B3B6100BF3B6918461C3798
:1016D400BD4680BC704700BF0010024000127A0073
:1016E400043500081435000800093D0080B400AF3B
:1016F400024B1B681846BD4680BC704700000020A2
:1017040080B500AFFFF7F2FF0246054B5B681B0A8A
:1017140003F007030349CB5C22FA03F3184680BDA8
:1017240000100240FC34000880B500AFFFF7DEFF74
:101734000246054B5B68DB0A03F007030349CB5CF5
:1017440022FA03F3184680BD00100240FC3400085E
:1017540080B485B000AF78600A4B1B680A4AA2FBCC
:1017640003235B0A7A6802FB03F3FB6000BFFB6898
:101774005A1EFA60002BF9D100BF00BF1437BD46D2
:1017840080BC704700000020D34D621080B485B047
:1017940000AF78607B6893F83D30DBB2012B01D059
:1017A40001233CE07B68022283F83D207B681B68B0
:1017B4001D4A934218D07B681B681C4A934213D07D
:1017C4007B681B68B3F1804F0ED07B681B68184A96
:1017D400934209D07B681B68164A934204D07B6805
:1017E4001B68154A934211D17B681B689B6803F000
:1017F4000703FB60FB68062B10D07B681B681A6824
:101804007B681B6842F001021A6007E07B681B6872
:101814001A687B681B6842F001021A6000231846AC
:101824001437BD4680BC7047002C01400034014091
:101834000004004000080040000C004080B582B065
:1018440000AF78607B68002B01D1012341E07B6805
:1018540093F83D30DBB2002B06D17B68002283F87D
:101864003C207868FEF750FE7B68022283F83D2016
:101874007B681A687B6804331946104600F092FAB4
:101884007B68012283F846207B68012283F83E208E
:101894007B68012283F83F207B68012283F8402083
:1018A4007B68012283F841207B68012283F842206F
:1018B4007B68012283F843207B68012283F844205B
:1018C4007B68012283F845207B68012283F83D2050
:1018D400002318460837BD4680BD000080B584B09B
:1018E40000AF786039600023FB733B68002B04D1A0
:1018F4007B6893F83E30DBB213E03B68042B04D1E1
:101904007B6893F83F30DBB20BE03B68082B04D1D3
:101914007B6893F84030DBB203E07B6893F8413096
:10192400DBB2BB733B68002B04D17B6893F8423075
:10193400DBB213E03B68042B04D17B6893F843309B
:10194400DBB20BE03B68082B04D17B6893F844308E
:10195400DBB203E07B6893F84530DBB27B73BB7B7F
:10196400012B02D17B7B012B01D00123C2E03B6818
:10197400002B04D17B68022283F83E2013E03B68ED
:10198400042B04D17B68022283F83F200BE03B68E0
:10199400082B04D17B68022283F8402003E07B6893
:1019A400022283F841203B68002B04D17B68022289
:1019B40083F8422013E03B68042B04D17B680222A5
:1019C40083F843200BE03B68082B04D17B68022298
:1019D40083F8442003E07B68022283F845203B68B7
:1019E4000C2B41D801A252F823F000BF251A00089D
:1019F4006D1A00086D1A00086D1A0008371A0008DD
:101A04006D1A00086D1A00086D1A0008491A0008BA
:101A14006D1A00086D1A00086D1A00085B1A000898
:101A24007B681B68DA687B681B6842F00202DA6034
:101A34001DE07B681B68DA687B681B6842F004025F
:101A4400DA6014E07B681B68DA687B681B6842F024
:101A54000802DA600BE07B681B68DA687B681B6845
:101A640042F01002DA6002E00123FB7300BFFB7B4B
:101A7400002B3ED17B681B6801223968184600F0B0
:101A840030FB7B681B681D4A934218D07B681B6837
:101A94001B4A934213D07B681B68B3F1804F0ED06E
:101AA4007B681B68174A934209D07B681B68164AF7
:101AB400934204D07B681B68144A934211D17B681B
:101AC4001B689B6803F00703BB60BB68062B10D040
:101AD4007B681B681A687B681B6842F001021A6005
:101AE40007E07B681B681A687B681B6842F0010288
:101AF4001A60FB7B18461037BD4680BD002C0140A0
:101B0400003401400004004000080040000C004084
:101B140080B584B000AF786039600023FB733B6804
:101B24000C2B41D801A252F823F000BF651B00081A
:101B3400AD1B0008AD1B0008AD1B0008771B000897
:101B4400AD1B0008AD1B0008AD1B0008891B000875
:101B5400AD1B0008AD1B0008AD1B00089B1B000853
:101B64007B681B68DA687B681B6822F00202DA6013
:101B74001DE07B681B68DA687B681B6822F004023E
:101B8400DA6014E07B681B68DA687B681B6822F003
:101B94000802DA600BE07B681B68DA687B681B6804
:101BA40022F01002DA6002E00123FB7300BFFB7B2A
:101BB400002B56D17B681B6800223968184600F058
:101BC40090FA7B681B681A6A41F211131340002BC8
:101BD4000FD17B681B681A6A40F244431340002B00
:101BE40007D17B681B681A687B681B6822F00102B6
:101BF4001A603B68002B04D17B68012283F83E20E5
:101C040013E03B68042B04D17B68012283F83F2056
:101C14000BE03B68082B04D17B68012283F8402049
:101C240003E07B68012283F841203B68002B04D148
:101C34007B68012283F8422013E03B68042B04D123
:101C44007B68012283F843200BE03B68082B04D116
:101C54007B68012283F8442003E07B68012283F837
:101C64004520FB7B18461037BD4680BD80B586B045
:101C740000AFF860B9607A600023FB75FB6893F8E5
:101C84003C30012B01D1022388E0FB68012283F858
:101C94003C207B68002B1BD1FB681868BB68196863
:101CA400BB685A68BB68DB6800F002F9FB681B6814
:101CB4009A69FB681B6822F00C029A61FB681B6836
:101CC4009969BB689A68FB681B680A439A6160E07B
:101CD4007B68042B1CD1FB681868BB681968BB6857
:101CE4005A68BB68DB6800F049F9FB681B689A69AD
:101CF400FB681B6822F440629A61FB681B6899695F
:101D0400BB689B681A02FB681B680A439A6140E03F
:101D14007B68082B1BD1FB681868BB681968BB6813
:101D24005A68BB68DB6800F065F9FB681B68DA6910
:101D3400FB681B6822F00C02DA61FB681B68D96936
:101D4400BB689A68FB681B680A43DA6121E07B6818
:101D54000C2B1CD1FB681868BB681968BB685A68EF
:101D6400BB68DB6800F081F9FB681B68DA69FB6813
:101D74001B6822F44062DA61FB681B68D969BB689E
:101D84009B681A02FB681B680A43DA6101E00123BD
:101D9400FB75FB68002283F83C20FB7D184618374E
:101DA400BD4680BD80B485B000AF786039607B6883
:101DB4001B68FB607B68394A934213D07B68384ABE
:101DC40093420FD07B68B3F1804F0BD07B68354AC8
:101DD400934207D07B68344A934203D07B68334AEA
:101DE400934208D1FB6823F07003FB603B685B6897
:101DF400FA681343FB607B68284A934213D07B68DC
:101E0400274A93420FD07B68B3F1804F0BD07B6895
:101E1400244A934207D07B68234A934203D07B68C9
:101E2400224A934208D1FB6823F44073FB603B6869
:101E3400DB68FA681343FB60FB6823F080023B68AD
:101E44005B691343FB607B68FA681A603B689A68B5
:101E54007B68DA623B681A687B689A627B680F4A1F
:101E6400934203D07B680E4A934203D13B681A69BC
:101E74007B681A637B6801225A617B681B6903F0E3
:101E84000103002B05D07B681B6923F001027B68EA
:101E94001A6100BF1437BD4680BC7047002C014056
:101EA400003401400004004000080040000C0040E1
:101EB40080B487B000AFF860B9607A603B60FB68BB
:101EC4001B6A3B61FB681B6A23F00102FB681A6210
:101ED400FB689B697B61FB68234A934213D0FB68D0
:101EE400224A93420FD0FB68B3F1804F0BD0FB68BA
:101EF4001F4A934207D0FB681E4A934203D0FB68F3
:101F04001D4A934201D1012300E00023002B08D095
:101F14007B6923F003037B617A697B6813437B61EC
:101F240003E07B6943F001037B617B6923F0F003E9
:101F34007B613B681B01DBB27A6913437B613B69BC
:101F440023F00A033B61BB6803F00A033A691343B5
:101F54003B61FB687A699A61FB683A691A6200BF5F
:101F64001C37BD4680BC7047002C01400034014042
:101F74000004004000080040000C004080B487B01A
:101F840000AFF860B9607A603B60FB681B6A7B61F4
:101F9400FB681B6A23F01002FB681A62FB689B69EA
:101FA4003B613B6923F440733B617B681B023A69E4
:101FB40013433B613B6923F470433B613B681B0360
:101FC4009BB23A6913433B617B6923F0A0037B61B5
:101FD400BB681B0103F0A0037A6913437B61FB68B0
:101FE4003A699A61FB687A691A6200BF1C37BD4678
:101FF40080BC704780B487B000AFF860B9607A6085
:102004003B60FB681B6A7B61FB681B6A23F480727C
:10201400FB681A62FB68DB693B613B6923F00303DD
:102024003B613A697B6813433B613B6923F0F003EE
:102034003B613B681B01DBB23A6913433B617B693B
:1020440023F400737B61BB681B0203F400737A6999
:1020540013437B61FB683A69DA61FB687A691A6247
:1020640000BF1C37BD4680BC704780B487B000AF4A
:10207400F860B9607A603B60FB681B6A7B61FB684F
:102084001B6A23F48052FB681A62FB68DB693B61BC
:102094003B6923F440733B617B681B023A69134339
:1020A4003B613B6923F470433B613B681B039BB278
:1020B4003A6913433B617B6923F400537B61BB683A
:1020C4001B0303F400537A6913437B61FB683A6989
:1020D400DA61FB687A691A6200BF1C37BD4680BCAE
:1020E400704780B487B000AFF860B9607A60BB68AD
:1020F40003F01F03012202FA03F37B61FB681A6AEF
:102104007B69DB431A40FB681A62FB681A6ABB6886
:1021140003F01F03796801FA03F31A43FB681A6298
:1021240000BF1C37BD4680BC7047000080B485B03A
:1021340000AF786039607B6893F83C30012B01D1A3
:10214400022350E07B68012283F83C207B68022252
:1021540083F83D207B681B685B68FB607B681B68B9
:102164009B68BB60FB6823F07003FB603B681B68E3
:10217400FA681343FB607B681B68FA685A607B68E3
:102184001B681B4A934218D07B681B68194A934208
:1021940013D07B681B68B3F1804F0ED07B681B683B
:1021A400154A934209D07B681B68144A934204D0B1
:1021B4007B681B68124A93420CD1BB6823F08003EE
:1021C400BB603B685B68BA681343BB607B681B6891
:1021D400BA689A607B68012283F83D207B680022FC
:1021E40083F83C20002318461437BD4680BC704752
:1021F400002C01400034014000040040000800406D
:10220400000C004080B582B000AF78607B68002B82
:1022140001D1012342E07B6893F84130DBB2002B0B
:1022240006D17B68002283F840207868FEF7A8F97D
:102234007B68242283F841207B681B68DA687B680A
:102244001B6822F40052DA60786800F071F97B6848
:102254001B681A697B681B6822F490421A617B68C8
:102264001B685A697B681B6822F02A025A617B68E2
:102274001B68DA687B681B6842F40052DA607B688A
:1022840000225A647B68202283F841207B68202244
:1022940083F842207B6800225A63002318460837DB
:1022A400BD4680BD80B58AB002AFF860B9603B60BE
:1022B4001346FB8000237B61FB6893F84130DBB25B
:1022C400202B75D1BB68002B02D0FB88002B01D1D9
:1022D40001236EE0FB6800225A64FB68212283F824
:1022E4004120FEF785FB7861FB68FA889A84FB68D5
:1022F400FA88DA84FB689B68B3F5805F08D1FB68D1
:102304001B69002B04D10023FB61BB68BB6103E0A4
:10231400BB68FB610023BB612EE03B6800937B69D3
:1023240000228021F86800F048F80346002B05D00D
:10233400FB68202283F8412003233AE0FB69002B49
:102344000BD1BB691B881A46FB681B68C2F30802E1
:102354005A60BB690233BB6107E0FB691A78FB680A
:102364001B685A60FB690133FB61FB68DB8C9BB221
:10237400013B9AB2FB68DA84FB68DB8C9BB2002BCE
:10238400CBD13B6800937B6900224021F86800F0C0
:1023940014F80346002B05D0FB68202283F8412063
:1023A400032306E0FB68202283F84120002300E099
:1023B400022318462037BD4680BD80B586B000AFE5
:1023C400F860B9603B601346FB713BE03B6AB3F1D4
:1023D400FF3F37D0FEF70CFB02463B68D31A3A6A3C
:1023E4009A4202D33B6A002B01D103233AE0FB68F3
:1023F4001B68DB6803F00403002B23D0BB68802B2D
:1024040020D0BB68402B1DD0FB681B681B6803F001
:102414000803082B16D100237B61FB681B681B682B
:102424007B61FB681B685B687B617B69F86800F013
:102434001DF8FB6808225A64FB68002283F84020D8
:1024440001230FE0FB681B681A68BB681340BA6875
:102454009A420CBF01230023DBB21A46FB799A424D
:10246400B4D0002318461837BD4680BD80B495B05B
:1024740000AF78607B681B680C337B637B6B53E82D
:10248400003F3B633B6B23F49073FB647B681B68E6
:102494000C33FA6C3A64FB63F96B3A6C41E8002341
:1024A400BB63BB6B002BE5D17B681B6814333B62B9
:1024B4003B6A53E8003FFB61FB6923F00103BB6403
:1024C4007B681B681433BA6CFA62BB62B96AFA6A35
:1024D40041E800237B627B6A002BE5D17B681B6BA0
:1024E400012B19D17B681B680C33FB60FB6853E834
:1024F400003FBB60BB6823F010037B647B681B68F0
:102504000C337A6CBA617B617969BA6941E800235A
:102514003B613B69002BE5D17B68202283F8422094
:102524007B6800221A6300BF5437BD4680BC7047E5
:1025340080B584B000AF78607B681B681B6923F4A6
:1025440040517B68DA687B681B680A431A617B68C0
:102554009A687B681B691A437B685B691343BB6099
:102564007B681B68DB6823F4B05323F00C037A68A0
:102574001268B9680B43D3607B681B685B6923F4FA
:1025840040717B689A697B681B680A435A617B685F
:102594001B682C4A934203D1FFF7C6F8F86002E0A7
:1025A400FFF7AEF8F860FA6813469B0013449A00EC
:1025B4001A447B685B689B00B2FBF3F3224AA2FBDC
:1025C40003235B091901FA6813469B0013449A001C
:1025D4001A447B685B689B00B2FBF3F21A4BA3FBC3
:1025E40002035B09642000FB03F3D31A1B0132339B
:1025F400154AA2FB03235B0903F0F0031944FA68AC
:1026040013469B0013449A001A447B685B689B0042
:10261400B2FBF3F20C4BA3FB02035B09642000FB47
:1026240003F3D31A1B013233074AA2FB03235B09CA
:1026340003F00F027B681B680A449A6000BF1037DE
:10264400BD4680BD003801401F85EB51002310B505
:102654000446C0E90033C0E90433836081814366E2
:10266400C2818361194608225C3000F006F90D4BE3
:10267400246263620C4BA3620C4BE3620C4B236336
:102684000C4B9C4206D003F16802944202D0D03332
:102694009C4205D104F15800BDE8104000F066B931
:1026A40010BD00BFF92700081B28000853280008A4
:1026B4007728000830010020024A0349034800F04B
:1026C40069B800BF0C000020053200081C0000207F
:1026D40041680C4B10B59942044601D000F090FDBE
:1026E400A168094B994202D0204600F089FDE168B7
:1026F400064B994204D02046BDE8104000F080BD4E
:1027040010BD00BF3001002098010020000200200D
:1027140010B50B4B0B4C0C4A20461A6004210022C6
:10272400FFF794FF04F1680001220921FFF78EFFEF
:1027340004F1D0000222BDE810401221FFF786BF49
:102744006802002030010020BD260008014800F086
:102754000EB900BF71020020014800F009B900BFA2
:102764007102002010B50446FFF7F0FF236A1BB185
:10277400BDE81040FFF7F0BF044B2362044B1B6815
:10278400002BF5D1FFF7C4FFF2E700BFD526000800
:10279400680200202DE9F8430746884614460026BF
:1027A400D4E90195B9F1010905D52468002CF7D1C4
:1027B4003046BDE8F883AB89012B07D9B5F90E3053
:1027C400013303D029463846C04706436835E9E754
:1027D4000FB407B5064904AB086853F8042B8168A5
:1027E400019300F0E5F903B05DF804EB04B0704721
:1027F4001800002010B50C46B1F90E1000F068F86E
:102804000028ABBF636DA3891B1823F48053ACBFAE
:102814006365A38110BD2DE9F0411F468B890546F0
:10282400DB050C46164605D502230022B1F90E102D
:1028340000F03CF8A389324623F48053A381284650
:102844003B46B4F90E10BDE8F04100F053B810B5A2
:102854000C46B1F90E1000F029F8431CA38915BFEA
:10286400606523F4805343F48053A38118BFA3818C
:1028740010BDB1F90E1000F009B8034602449342AA
:1028840000D1704703F8011BF9E7000038B50023B5
:10289400054D044608462B60FDF723FF431C02D177
:1028A4002B6803B1236038BD6C02002038B50446A0
:1028B400084611460022054D2A601A46FDF735FFE9
:1028C400431C02D12B6803B1236038BD6C02002085
:1028D40038B50446084611460022054D2A601A46BA
:1028E400FDF7C6FE431C02D12B6803B1236038BD3B
:1028F4006C02002038B50446084611460022054DF6
:102904002A601A46FDF7D1FE431C02D12B6803B19D
:10291400236038BD6C020020014B1868704700BF6B
:102924001800002070B500260C4D0D4C641BA4103B
:10293400A64209D100F0C2FD00260A4D0A4C641BD0
:10294400A410A64205D170BD55F8043B9847013642
:10295400EEE755F8043B98470136F2E74C3500089A
:102964004C3500084C350008503500087047704756
:102974007047000038B50546002940D051F8043CA2
:102984000C1F002BB8BFE41800F0DEF81C4A1368D3
:1029940033B9636014602846BDE8384000F0DAB803
:1029A400A34208D9206821188B4201BF19685B68CB
:1029B40009182160EDE71A465B680BB1A342FAD906
:1029C40011685018A0420BD120680144501883426A
:1029D4001160E0D118685B68084410605360DAE75E
:1029E40002D90C232B60D6E7206821188B4201BF43
:1029F40019685B680918216063605460CBE738BDCF
:102A04007802002070B50F4E0C463168054611B9A6
:102A140000F0B2FC30602146284600F0ADFC431CB7
:102A240003D14FF0FF34204670BDC41C24F00304CE
:102A3400A042F8D0211A284600F09EFC0130F2D1C1
:102A4400EFE700BF740200202DE9F843CD1C25F008
:102A5400030508350C2D38BF0C25002D064601DB77
:102A6400A94204D90C2333600020BDE8F883DFF8C1
:102A7400D48000F069F8D8F800301C4644BB2946DD
:102A84003046FFF7BFFF431C044658D1D8F8004036
:102A94002746002F43D1002C4BD0236839463046BB
:102AA40004EB030900F068FC814542D121683046FB
:102AB4006D1A2946FFF7A6FF01303AD023682B444C
:102AC4002360D8F800305A6862BBC8F800700FE081
:102AD4002268521B20D40B2A17D96119A3422560FE
:102AE40018BF5960636808BFC8F8001062514B6092
:102AF400304600F02FF804F10B00231D20F00700EE
:102B0400C21A1CBF1B1AA350AFE76268A3420CBFD2
:102B1400C8F800205A60EBE723466468AEE73C46F9
:102B24007F68B6E71A465B68A342FBD10023536073
:102B3400DEE70C233046336000F00CF894E70560C0
:102B4400D6E700BF780200200148FFF710BF00BF9E
:102B5400700200200148FFF70BBF00BF7002002085
:102B6400936810B4013B002B936007DA9469A34285
:102B740001DB0A2902D110BC00F06ABB1368581C9F
:102B840010601970084610BC7047F8B506460F4629
:102B94001446D518AC4201D1002007E03A4630462D
:102BA40014F8011BFFF7DCFF431CF3D1F8BD000050
:102BB4002DE9F04F0D461446984606469DB018B1CF
:102BC400036A0BB9FFF7CEFD6B6ED90705D4AB8949
:102BD4009A0502D4A86DFFF7CAFEAB891B0701D57D
:102BE4002B699BB92946304600F070FB70B16B6EBF
:102BF400DC0704D54FF0FF301DB0BDE8F08FAB8982
:102C04009805F7D4A86DFFF7B3FEF3E70023099303
:102C140020238DF8293030234FF00109CDF80C80A2
:102C2400DFF8A8818DF82A3023469A4613F8012B41
:102C34000AB1252AF9D1BAEB040B0BD05B46224624
:102C440029463046FFF7A1FF013000F0A780099A1A
:102C54005A4409929AF80030002B00F09F80002318
:102C64004FF0FF32CDE905230AF1010A04930793DB
:102C74008DF853301A935446052214F8011B534817
:102C840000F08AFB049AD8B9D10644BF20238DF8FA
:102C94005330130744BF2B238DF853309AF8003078
:102CA4002A2B15D0544600204FF00A0C079A2146CF
:102CB40011F8013B303B092B4BD9B0B1079214E01A
:102CC400A0EB080309FA03F31343A2460493D2E7E3
:102CD400039B191D1B680391002BBBBF5B4242F091
:102CE400020207930793B8BF049223782E2B0AD1CC
:102CF40063782A2B32D1039B02341A1D1B6803927A
:102D040043EAE3730593DFF8C8A003225046217811
:102D140000F042FB38B14022049BA0EB0A00824041
:102D240013430134049314F8011B062229488DF837
:102D3400281000F031FB00283FD0274B1BBB039B1E
:102D4400073323F0070308330393099B3B44099398
:102D54006AE70C4601200CFB0232A8E700234FF07F
:102D64000A0C194601340593204610F8012B303A19
:102D7400092A03D9002BC6D00591C4E704460123D0
:102D84000CFB0121F0E703AB00932A463046134BBA
:102D940004A9AFF300800746781CD6D16B6ED9071F
:102DA40005D4AB899A0502D4A86DFFF7E1FDAB8980
:102DB4005B063FF51FAF09981EE703AB00932A4655
:102DC4003046064B04A900F07DF8E4E71635000808
:102DD4001C35000820350008000000008F2B000877
:102DE4002DE9F047164698468A680B6907469342D0
:102DF400B8BF1346336091F843200C46DDF82090A9
:102E04000AB1013333602368990642BF3368023341
:102E14003360256815F0060506D104F1190AE36844
:102E240032689B1AAB422BDC94F843302268003B97
:102E340018BF0123920630D44146384604F14302B8
:102E4400C847013023D02368226903F00603042B0A
:102E540014BF002533684FF0000608BFE56804F18D
:102E64001A0408BFED1A54F8123C08BF25EAE575A8
:102E74009342C4BF9B1AED18B5421AD1002008E052
:102E84000123524641463846C847013003D14FF02A
:102E9400FF30BDE8F0870135C1E73020E11881F843
:102EA40043005A1C94F845102244023382F843101C
:102EB400C2E70123224641463846C8470130E6D0DE
:102EC4000136D9E72DE9FF470F7E9146782F8046DA
:102ED4000C469A460C9E01F1430207D8622F0AD889
:102EE400002F00F0D180582F00F0B88004F1420682
:102EF40084F842703AE0A7F16303152BF6D801A1D8
:102F040051F823F0612F0008752F0008F12E0008F6
:102F1400F12E0008F12E0008F12E0008752F00088C
:102F2400F12E0008F12E0008F12E0008F12E000801
:102F3400733000089F2F00082D300008F12E000880
:102F4400F12E000895300008F12E00089F2F00088C
:102F5400F12E0008F12E00083530000833681A1DE0
:102F64001B68326004F1420684F8423001239CE07D
:102F740033682068191D3160060601D51D6803E019
:102F84004506FBD5B3F90050002D03DA2D236D421D
:102F940084F843300A23584811E02168336808064E
:102FA40053F8045B02D4490648BFADB26F2F3360B7
:102FB40014BF0A2308235048002184F8431066688C
:102FC400002EA66005DB21682E4321F00401216058
:102FD4004BD01646B5FBF3F103FB1157C75D06F85A
:102FE400017D2F46BB420D46F4D9082B0BD1236833
:102FF400DF0708D5236961689942DEBF302306F8EC
:10300400013C06F1FF36921B22614B4621464046A5
:10301400CDF800A003AAFFF7E3FE01304AD14FF038
:10302400FF3004B0BDE8F087236843F02003236039
:103034007827324884F84570236831681F0651F8B0
:10304400045B02D45F0648BFADB23160D90744BF08
:1030540043F0200323601DB11023ADE72648E9E7C0
:10306400236823F020032360F6E71646BDE73368A0
:103074002568181D616930602E061B6801D519602A
:1030840002E06806FBD51980002316462361BCE7DD
:10309400336800211A1D32601E686268304600F0F1
:1030A4007BF908B1801B606063682361002384F8A6
:1030B4004330AAE73246494640462369D0470130A7
:1030C400ADD023689B0713D4E068039B9842B8BF34
:1030D4001846A6E70123324649464046D047013008
:1030E4009DD00135E36803995B1AAB42F2DCEBE750
:1030F400002504F11906F5E72735000838350008DE
:10310400B1F90C20F8B5160705460C4654D44B68A3
:10311400002B02DC0B6C002B48DDE66A002E45D048
:10312400002312F480522F68216A2B6030D0626D24
:10313400A389590705D56368D21A636B0BB1236C55
:10314400D21A00232846E66A216AB047431CA389A1
:1031540006D129681D292BD8284ACA40D60727D565
:10316400002262602269D904226004D5421C01D184
:103174002B6803B96065616B2F60B9B104F1440336
:10318400994202D02846FFF7F5FB002363630DE064
:1031940001232846B0470246501CC9D12B68002B96
:1031A400C6D01D2B01D0162B1DD12F60002021E08D
:1031B40043F040031BB21AE00F69002FF6D09307C7
:1031C40018BF00230E6808BF4B69F61B0F608B60A5
:1031D400002EEBDD33463A462846216AD4F828C04F
:1031E400E047002807DCB4F90C3043F040034FF00B
:1031F400FF30A381F8BD0744361AE9E701004020F7
:1032040038B50B6905460C4613B90025284638BD68
:1032140018B1036A0BB9FFF7A5FAB4F90C30002B07
:10322400F3D0626ED00704D4990502D4A06DFFF7E1
:103234009EFB28462146FFF763FF636E0546DA07C7
:10324400E4D4A3899B05E1D4A06DFFF791FBDDE7EE
:10325400F8B50E461446054618B1036A0BB9FFF7D4
:1032640081FAA369A360A3891A0701D5236943B925
:103274002146284600F02AF818B14FF0FF373846A7
:10328400F8BD23682269F6B2981A63693746834207
:1032940005DC21462846FFF7B3FF0028EDD1A368DB
:1032A400013BA36023685A1C22601E706269431CA0
:1032B4009A4204D0A389DB07E1D50A2EDFD1214647
:1032C4002846FFF79DFF0028D9D0D6E738B5294B0B
:1032D400054618680C4618B1036A0BB9FFF742FAA1
:1032E400B4F90C30190722D4DA0607D409222A606B
:1032F40043F040034FF0FF30A38133E0580712D569
:10330400616B41B104F14403994202D02846FFF7AE
:1033140031FB00236363A38923F02403A3810023E7
:10332400636023692360A38943F00803A3812369AD
:103334004BB9A38903F42073B3F5007F03D021466E
:10334400284600F05CF8B4F90C3013F001020AD0FE
:103354000022A26062695242A261226942B913F05A
:103364008000C5D138BD990758BF6269A260F4E7EF
:103374000020F7E71800002038B50023054D044667
:1033840008462B60FDF7DEF9431C02D12B6803B11C
:10339400236038BD6C020020034610B5C9B2024454
:1033A4009342184601D1002003E0047801338C4293
:1033B400F6D110BD70B50C46B1F90E1015460029B2
:1033C4001E4696B00CDAA389002113F0800F14BFB7
:1033D40040234FF48063002031602B6016B070BD31
:1033E4006A4600F049F80028EDDB019901F47041C8
:1033F400A1F50053594259414FF48063EBE78B899F
:10340400F7B59D0706460C4607D504F1470323602C
:1034140023610123636103B0F0BD6A4601ABFFF78A
:10342400C9FF009F054639463046FFF70DFB48B9F2
:10343400B4F90C309A05EED423F0030343F00203ED
:10344400A381E2E7A389C4E9040743F08003A381CD
:10345400019B20605BB13046B4F90E1000F01EF8F9
:1034640028B1A38923F0030343F00103A381A389B3
:103474001D43A581CFE7000038B50023064D04465F
:10348400084611462B60FDF737F9431C02D12B681F
:1034940003B1236038BD00BF6C02002038B500239F
:1034A400054D044608462B60FDF735F9431C02D14F
:1034B4002B6803B1236038BD6C020020F8B500BF4F
:1034C400F8BC08BC9E467047F8B500BFF8BC08BC01
:0434D4009E46704759
:1034D80044697374616E6369613A20256C75206371
:1034E8006D0D0A0000000000000000000102030446
:1034F800060708090000000001020304020304058E
:10350800060708090A0B0C0D0E0F10100102232DD7
:10351800302B2000686C4C006566674546470030D4
:103528003132333435363738394142434445460021
:103538003031323334353637383961626364656621
:04354800000000007F
:04354C000902000868
:04355000E501000889
:1035540000127A00100000000100000000000000CA
:1035640003000000300100201C00002000000000C7
:10357400300100209801002000020020000000001B
:103584000000000000000000000000000000000037
:103594000000000000000000000000000000000027
:1035A4000000000000000000000000000000000017
:0835B40000000000000000000F
:04000005080008F9EE
:00000001FF
